:020000040800F2
:10000000900700208901000889210008471D000889
:1000100000000000000000000000000000000000E0
:10002000000000000000000000000000792200082D
:1000300000000000000000008B2100087B22000867
:100040009B010008000000009B0100089B010008C4
:100050009B0100089B0100089B0100089B01000810
:10006000000000009B0100089B0100089B010008A4
:100070009B0100089B0100089B0100080000000094
:100080009B01000800000000000000009B01000828
:10009000000000009B0100089B0100089B01000874
:1000A0009B0100089B0100089B0100089B010008C0
:1000B0009B0100080000000000000000000000009C
:1000C00000F002F800F050F80CA030C808382418EE
:1000D0002D18A246671EAB4654465D46AC4201D180
:1000E00000F042F87E460F3E0FCCB6460126334262
:1000F00000D0FB1AA246AB4633431847D038000065
:10010000F0380000103A02D378C878C1FAD8520704
:1001100001D330C830C101D504680C6070470000BD
:100120000023002400250026103A01D378C1FBD813
:10013000520700D330C100D50B60704710B5642959
:1001400002D100F07BF810BD752902D100F076F8DD
:1001500010BD732902D100F08BFA10BD002010BD34
:100160001FB51FBD10B510BD00F09AFA1146FFF77C
:10017000F7FF02F0F7FA00F0B2FA03B4FFF7F2FF6C
:1001800003BC00F0B9FA0000074880470748004761
:10019000FEE7FEE7FEE7FEE7FEE7FEE70448054967
:1001A000054A064B70470000DD220008C100000828
:1001B0009001002090070020900300209003002071
:1001C0000FB41CB5074B06AA7B44694600900598FE
:1001D00000F023FA0020694600F032FA1CBC08BC8B
:1001E00004B018477504000070B50C460546012A96
:1001F00005D02878800600D5EA69002302E00123B3
:1002000005E05B1C934202D2E05C0028F9D1A869AA
:10021000E618C01AA861286AC01828622846C04695
:10022000C04604E06A682078A968641C9047B4421C
:10023000F8D32846C046C04670BD0000F7B500257B
:1002400075291068009914A611D0C046C046002830
:1002500002DA404211A608E0009909688A0701D530
:100260000FA602E0490704D50EA6012501E0C0460D
:10027000C046009F0024243704E000F0FDF930312F
:100280003955641C0028F8D12B4632462146009887
:1002900000F065F9FEBD0000000000002D00000028
:1002A0002B00000020000000F8B50F460546002096
:1002B00028622846E9688847002852D0252802D0BD
:1002C0006A68A96849E0E9682846002688476C28DA
:1002D00004460AD0682C08D04C2C37D06A2C33D076
:1002E000742C33D07A2C31D015E0E96806462846C4
:1002F0008847B042044608D16C2E25D00126B602AC
:100300002846E9688847044605E06C2E02D0FF269F
:10031000013600E04026002C23D020464138192821
:1003200003D80120C002064320343A4628462E60F6
:100330002146FFF703FF00280CD0012808D0FF1D3D
:10034000FF08FF000837B4E78026D9E70026D7E783
:100350003F1DAEE76A682046A9689047286A401C9E
:10036000A6E7286AF8BD000030B5441C03E0017818
:10037000401C00290DD08107F9D10B4BDD0104C8C9
:10038000D11A91432940FAD0001B0A0603D0C01E9F
:1003900030BD001B30BD0A0401D0801E30BD0902F3
:1003A000FCD0401E30BD000001010101D2B210B5E9
:1003B00013029A1813049A1800F00EF810BD01E009
:1003C00004C0091F0429FBD28B0701D50280801CC1
:1003D000C90700D00270704700290BD0C30702D0B4
:1003E0000270401C491E022904D3830702D50280F3
:1003F000801C891EE3E70022EEE70022DFE70022EF
:1004000003098B422CD3030A8B4211D300239C4651
:100410004EE003460B433CD4002243088B4231D3C9
:1004200003098B421CD3030A8B4201D394463FE05D
:10043000C3098B4201D3CB01C01A524183098B42BD
:1004400001D38B01C01A524143098B4201D34B01A6
:10045000C01A524103098B4201D30B01C01A524109
:10046000C3088B4201D3CB00C01A524183088B4290
:1004700001D38B00C01A524143088B4201D34B0079
:10048000C01A5241411A00D20146524110467047EB
:100490005DE0CA0F00D04942031000D340425340F0
:1004A00000229C4603098B422DD3030A8B4212D3B0
:1004B000FC22890112BA030A8B420CD389019211E2
:1004C0008B4208D3890192118B4204D389013AD01F
:1004D000921100E08909C3098B4201D3CB01C01AF4
:1004E000524183098B4201D38B01C01A5241430907
:1004F0008B4201D34B01C01A524103098B4201D3F5
:100500000B01C01A5241C3088B4201D3CB00C01A61
:10051000524183088B4201D38B00C01A5241D9D279
:1005200043088B4201D34B00C01A5241411A00D2FA
:100530000146634652415B10104601D34042002BF6
:1005400000D54942704763465B1000D3404201B575
:100550000020C046C04602BD704770477047FFB5D7
:1005600004460D4681B0243000902168880604D5E9
:100570001022E0699143216000E00120A84201DDE2
:10058000471B00E000270498A1697A191018081A7F
:10059000A0612078C00602D42046C046C04600268E
:1005A00008E003986268A168805D9047206A401C5B
:1005B000761C206204988642F3DB2078C0060AD5B8
:1005C0002046C046C04606E06268A16830209047D9
:1005D000206A401C206238467F1E0028F4DC07E0B9
:1005E00000986268A168405D9047206A401C2062C4
:1005F00028466D1E0028F3DC2046C046C046207801
:10060000000602D5022005B0F0BD0120FBE7000086
:1006100001694A1C02610878704700B58FB00291E9
:1006200000210591054901937944039111460490F5
:100630006846FFF739FE0FB000BD0000E5FFFFFF81
:100640000A681070521C0A60704710B54369002B8D
:1006500002D0C046C04601E0FFF7C6FD012010BD34
:100660001278014624310A7000224A700122ECE718
:1006700011680022D243E8E701468008081A0209FF
:100680001018020A1018020C1018C0088200121864
:100690005200891A01E0401C0A390A29FBD270472E
:1006A000754600F025F8AE46050069465346C00879
:1006B000C000854618B020B5FFF770FD60BC00276C
:1006C0004908B6460026C0C5C0C5C0C5C0C5C0C51E
:1006D000C0C5C0C5C0C5403D49008D46704710B576
:1006E0000446C046C0462046FFF747FD10BD000047
:1006F000004870472C01002001491820ABBEFEE7DE
:10070000260002007047000070B50446006801F042
:10071000A9FB002824D0206881688907C90F04D16B
:100720008168104A11401031816000F00BFD0546D0
:1007300012E000F007FD401B02280DD920688068F8
:10074000400709D5A06D10210843A065E06D012187
:100750000843E065084670BD206880684007E8D41B
:10076000002070BDE8FFFF7FF8B50446006881688F
:100770008907CD0F01F072FB00282AD0002D28D167
:10078000206881680522114010250126012914D115
:100790008168114A1140891C81602168032008602A
:1007A00000F0D0FC074610E000F0CCFCC01B022893
:1007B0000BD920688068C00707D0A06D2843A065CA
:1007C000E06D3043E0650120F8BD20688068C00717
:1007D000EAD10020F8BD0000E8FFFF7FF8B504462D
:1007E00000200090206801F039FB002845D12068E6
:1007F0008168234A10261140002930D18168D543F1
:100800002940491C81601F4800680721890508406C
:1008100000020AD51D481C490068FFF7F0FD401C86
:1008200000E0401E00900028FBD1607E012824D00B
:1008300000F088FC07461BE001F010FB002804D103
:10084000206881682940491C816000F07BFCC01B46
:1008500002280DD920680068C043C00708D0A06DE9
:100860003043A065E06D01210843E0650846F8BD0E
:1008700020680168C943C907DED10020F8BD000027
:100880001700008008270140400D030030000020C1
:1008900072B6FEE738B50020694608700546044682
:1008A00023E068466D1C0178EDB2772912D05729F4
:1008B00010D0732910D053290ED061290ED04129B0
:1008C0000CD064290CD044290AD06D290AD04D29B6
:1008D00008D008E0012406E0022404E0032402E03A
:1008E000042400E00524102D07D2002301226946CC
:1008F000034801F039F90028D3D0204638BD000064
:1009000098000020FFB589B0002536E01298405DC0
:10091000A12837D202011C4B0020694614181C5D27
:100920000C54401C1028F9DB0026E80008900A98B7
:1009300000243718E017400F0019C0086946C000AE
:100940008A5D201A8021C14009980A4206D0011907
:1009500008980B9A0818B9B280B205E001190898F6
:100960000C9A0818B9B280B200F010F8641C082C78
:10097000E0DB761C102EDADB6D1C1298FFF7F4FC1E
:10098000A842C3D80DB0F0BDF428000810B5144635
:100990004A1C93B2421C92B201F0ECFA204601F0DC
:1009A00049FA10BDF8B500270646044640360097C0
:1009B000307D0D4601280FD001203075206801F0F0
:1009C00051FA00280AD0A06D20210843A065012714
:1009D000002030753846F8BD0220F8BD686802284E
:1009E0007ED001222169D207914202D0121D91428C
:1009F00006D120682968826A4903490B0A436EE0E0
:100A0000C206D20E0F20216E904081432868430316
:100A100002D0C3074BD102E04000C00E48E083077C
:100A200001D5012044E0430701D5022040E003073F
:100A300001D503203CE0C30601D5042038E083063D
:100A400001D5052034E0430601D5062030E0030639
:100A500001D507202CE0C30501D5082028E0830537
:100A600001D5092024E0430501D50A2020E0030533
:100A700001D50B201CE0C30401D50C2018E0830431
:100A800001D50D2014E0430401D50E2010E003042D
:100A900001D50F200CE0C30301D5102008E083032B
:100AA00001D5112004E0400301D5122000E0002010
:100AB0009040014321666968E2698808401C9042C1
:100AC00010D820682B68826A9C46C906C90E0F237D
:100AD0008B409A4363469B001B0F8B401A4300E0F8
:100AE0003BE082622168AB6828684A690002824361
:100AF00018404001400902434A612868002800DB91
:100B000066E72B4A116807239B051940294B984239
:100B100014D10B0212D4C0020143104601F0AEF909
:100B2000264825490068FFF76AFC0C21401C484311
:100B300000E0401E00900028FBD149E7204B98427E
:100B400003D1CB0101D4800205E01E4B9842D7D1DE
:100B50004802D5D45802014325E001212069C90784
:100B6000884202D0091D884206D120682968826A1D
:100B70004903490B8A43826228680028C0DA0C4A7C
:100B8000116807239B0519400A4B984201D1C00206
:100B900008E00B4B984201D1800203E0094B9842D8
:100BA000AED140028143104601F068F910E7000021
:100BB00008270140001000B0400D03003000002065
:100BC000004000B8002000B40068006C70470000CE
:100BD000FEB50027044601973E460297009700287D
:100BE00005D02546A06D2035002802D007E0012061
:100BF000FEBD204600F0FCF8E6655420065520684E
:100C00008168C900C90F12D18168724A114001225E
:100C100012071143816071486F490068FFF7EFFBCD
:100C20004000801C00E0401E00900028FBD120689E
:100C30008168C900C90F08D1A16D10221143A165B7
:100C4000E16D01221143E165174601F00BF9A16D39
:100C5000C90601D4002804D0A06D10210843A06566
:100C6000B4E0A06DFF210131884302210843A06553
:100C7000206801F0F3F800286DD1217EA068890377
:100C80000843617ECA03A17E4B031A431043226BC3
:100C9000002A01D0012212031043E26810432269A6
:100CA000002A02DA5200520801E0012252051043E4
:100CB0002A7B52001043019A10432A78012A09D155
:100CC000002922D0A16D20221143A165E16D0122EE
:100CD0001143E165616A002906D0FF23C133194041
:100CE000A26A0143104608432168CA683C4B1A4077
:100CF0000243CA606168029A890F8907E06C0A435F
:100D000010432A7F012A04D00CE001210904084382
:100D1000E0E7636C226C491C1A43A36C0B43114639
:100D20001943084321680A692E4B1A4002430A619D
:100D300003216068890788420DD0590788420AD08C
:100D40004900884207D0284A91680F239B049943A1
:100D50001840014391600021626B206801F095F812
:100D60002249A26B206801F090F80F202169C0434E
:100D700000291CD00122520591420AD121688A6AB9
:100D8000227F9200121FD206D20E9040226E104394
:100D9000886220684069616B4007400F88420BD130
:100DA000E665A06D80088000401CA0650FE021680A
:100DB0008A6A02438A62ECE7A06D0221884310210F
:100DC0000843A065E06D01210843E065012738462E
:100DD000FEBD0000E8FFFF7F400D03003000002053
:100DE0000102DEFF02FCFF1F0027014004FFFF0796
:100DF00010B586B0044614216846FFF7FEFA114983
:100E0000206888421CD110480268012109050A4364
:100E100002600068084005900B484038416B012291
:100E200011434163406B69461040059012200090C9
:100E300003200190002002900520000700F0CEF86A
:100E400006B010BD0024014040100240F8B5044631
:100E500040690D46082809D02068C068C00707D03F
:100E6000A06D20210843A0650120F8BD082600E000
:100E7000042600F067F9074615E0681C13D000F05F
:100E800061F9C01BA84201D8002D0CD12068006870
:100E9000304208D1A06D04210843A06500204034F1
:100EA00020750320F8BD206800683042E5D0A06DB1
:100EB000012149020843A065206800F0D7FF0C25F6
:100EC000002812D0A07E00280FD1206801680907F1
:100ED0000BD500F0C7FF012100280AD0A06D202209
:100EE0001043A065E06D0843E065207E00280BD02C
:100EF0000CE020684268AA434260A06DFF220132E4
:100F000090430843A065F0E7206805600020F8BD25
:100F100070B50446006800F0A5FF002802D0022149
:100F2000084670BD25464035287D01280AD001209D
:100F300028752046FFF752FC01460020002903D007
:100F40002875EDE7022070BDA26D094B1A40FF2302
:100F500001331A43A265E06523681C221A602875D4
:100F600020688268034B1A40121D8260D8E7000097
:100F7000FEF1FFFFE8FFFF7F70B5054604464035F0
:100F8000287D012807D001262E752046FFF7BCFBDF
:100F9000002802D00CE0022070BD2046FFF7E4FBE1
:100FA000002805D1A16DFF22013291433143A16593
:100FB0000021297570BD000070B5044600F0C2F82C
:100FC0000546601C02D004480078241800F0BAF8E6
:100FD000401BA042FAD370BD24000020F0B50023CE
:100FE00003249AE02A4601259D402A407ED00E79AE
:100FF000B607B60F012E01D0022E16D186682746FD
:10100000B4465E00B646B7406646BE43B446CF68B7
:101010007646B7406646374387604668AE430D79EB
:10102000ED06ED0F9D40354345600D79ED43AD076D
:1010300008D0C5685F002646BE40B5438E68BE40F6
:101040002E43C6600D79AD07AD0F022D0ED1DD0820
:10105000AD002D18AC462D6A5E07F60E0F27B7407F
:10106000BD430F69B7402F4365462F6205685F0097
:101070002646BE40B5430E79B607B60FBE402E4396
:1010800006604D68AD03AD0F46D09E08264DB600F4
:101090007519AC462D6E9E07F60E0F27B740BD435F
:1010A00005273F07B84201D100270FE01F4FB84284
:1010B00001D101270AE01E4FB84201D1022705E005
:1010C0001C4FB84201D1032700E00527B7402F434A
:1010D000154D664637662D684E689543F60200D575
:1010E0001543114F3D607D68954300E014E04E6864
:1010F000B60200D515437D600B4D80356E684F6894
:101100009643BF0300D516436E602E684F68964322
:10111000FF0300D516432E605B1C0A681546DA40B3
:1011200000D05FE7F0BD000000180240000400504E
:1011300000080050000C0050002A01D08161704767
:1011400081627047014880687047000024000020D9
:101150000248816802788918816070472400002065
:1011600010B508480024016882151143016003206E
:1011700000F00AF8002801D0012401E000F028F86E
:10118000204610BD0020024070B50F4E002431787B
:101190000546002915D07D20C000FFF730F9014633
:1011A0000A480068FFF72BF900F0EAFB002808D195
:1011B000042D06D200222946401E00F01FF875605B
:1011C00000E00124204670BD2400002030000020F3
:1011D00008B5094801680122114301600068104008
:1011E000009005484038C26B01040A43C263C06BDB
:1011F0000840009008BD00004010024010B501F00A
:101200008FFA10BD10B50F4C216803225202914392
:1012100001432160C11FFF39FA390ED10A48062166
:10122000006848430949FFF7EAF8401C02E000283B
:1012300005D0401E61694905F9D4002010BD032086
:1012400010BD0000007000403000002040420F0040
:10125000F8B50446006800264D4D800358D54C482B
:1012600000274038C06BC00009D449484038C26BE1
:1012700001040A43C263C06B08400127009045483F
:101280000168821511430160FFF75CFF009005E0E3
:10129000FFF758FF0099401A022825D83D480068FA
:1012A000C005F5D5E8690321090208400FD061693E
:1012B00081420CD0E86903210902EA6988430121CF
:1012C00009040A43EA61EA698A43EA61E861C007FE
:1012D0000FD0FFF737FF009008E0FFF733FF0099CA
:1012E000411A2D48814201D9032609E0E8698007A7
:1012F000F3D5E86903210902884361690843E8617D
:10130000002F05D022484038C26B01048A43C263D3
:101310002078C00705D068696168800880000843AC
:1013200068612078800606D568690321090388432F
:10133000A168084368612088400411D56869216963
:10134000800080080843686101212069890788427C
:1013500006D10F484038C168012212041143C16010
:101360002088000512D56869032189038843E16854
:10137000084368610121E0688903884206D1044876
:101380004038C168012212041143C1603046F8BDE3
:10139000401002400070004088130000F8B50F466E
:1013A000060043D04D4D28684007400FB84213D285
:1013B0002868C008C00038432860FFF7C3FE044611
:1013C00005E0FFF7BFFE011B4548814261D8286850
:1013D0004007400FB842F4D13068424C81070DD528
:1013E000400704D5A068072109030843A060A0684E
:1013F0000F2109028843B1680843A0603078C00714
:1014000032D0706801280AD002280BD000280FD0F3
:101410003449403103280ED0C969890704E02168A6
:10142000890301E021688901002906DB0120F8BD5C
:1014300021684905F8E7096AEFE7A168C908C9000A
:101440000143A160FFF77EFE009006E0FFF77AFE01
:101450000099411A224881421BD8A06838210840CF
:101460007168C9008842F1D128684007400FB8422E
:1014700017D91A480168C908C90039430160FFF744
:1014800061FE054607E0FFF75DFE411B14488142FF
:1014900001D90320F8BD114800684007400FB84249
:1014A000F1D13078400706D5A068072109038843A9
:1014B000F1680843A06000F031F8A1683C22890976
:1014C0001140094A515CC906C90EC8400749086065
:1014D00007480068FFF758FEF8BD000000200240F2
:1014E000881300000010024020390008300000205E
:1014F000280000200648074900688968064A490410
:10150000490F8900515CC906C90EC84070470000E8
:1015100030000020001002406039000810B5204C57
:10152000A068204A8006400F16D0A0688006410FB0
:10153000501001290FD0A1688906490F022912D045
:10154000A0688006400F042823D0A0688006400FC2
:10155000032821D0002010BD206801218004400F05
:101560008140104612E0E1688B07E1689B0F490655
:10157000490F491C032B00D01046FEF740FFE168DD
:101580004904490E4843E168490F491CFEF737FFFB
:1015900010BD0120C00310BD7D20000210BD000061
:1015A000001002400024F400F8B504007ED020783A
:1015B0003827C007E94D002846D0A868E9683840B8
:1015C0008907890F102802D008280BD001E00329D1
:1015D00008D001206268000482420AD129680143D0
:1015E000296015E0286880032ED560680028DDD0CA
:1015F0002AE0052301211B0489049A422A6802D1AA
:101600000A432A60EAE782432A6028688843286000
:10161000606800280CD0FFF795FD064604E0FFF750
:1016200091FD801B642873D828688003F7D50BE0F0
:10163000FFF788FD064604E0FFF784FD801B642861
:10164000F1D828688003F7D42078800769D5A86886
:10165000E96838408A070721920FC902102802D092
:10166000002813D001E0022A10D0E068002846D0FC
:10167000286888432169084328602868FF210131D0
:1016800008432860FFF75EFD06462CE02A685205F5
:1016900002D5E268002A89D06A687F231B029A4338
:1016A00063691B021A436A60002800E08DE00ED1D6
:1016B000286888432169084328602868012180043C
:1016C000400F8140A648FEF79AFEA6490860A6484A
:1016D0000068FFF759FD002877D122E0FFF732FDBF
:1016E000801B02289FD828684005F7D568687F21AD
:1016F00009028843616909020843686011E02968AA
:10170000FF20013081432960FFF71CFD064605E0FC
:1017100098E0FFF717FD801B022884D82868400551
:10172000F7D42078914E00072ED5A8688006400F88
:1017300003280AD0A0690028306A16D00121084386
:101740003062FFF7FFFC07460BE0306A80071BD5CD
:10175000A06900289FD017E0FFF7F4FCC01B022807
:1017600070D8306A8007F7D50EE04008400030623C
:10177000FFF7E8FC074604E0FFF7E4FCC01B022883
:1017800060D8306A8007F7D4207840076CD5A86805
:1017900000278006400F042818D0E86BC00008D44A
:1017A000E96B012000070143E963E96B0140012770
:1017B00000916F480168C90519D401688215114369
:1017C0000160FFF7BFFC00900DE083E0F069800747
:1017D0004AD5A06800287DD046E0FFF7B3FC009909
:1017E000401A02282ED862480068C005F5D5A168C5
:1017F000012910D004200529F16911D049084900B8
:10180000F161F1698143F161A068002816D0FFF70A
:1018100099FC00900EE0F06901210843F061F3E7C4
:101820000143F161F7E7FFF78DFC0099411A514838
:10183000814265D8F0698007F5D50EE0FFF782FC9C
:10184000009007E05CE0FFF77DFC0099411A4948F1
:10185000814255D8F0698007F5D4002F04D0E96B98
:10186000012000078143E963E069002873D0A9687B
:101870008906490F02294DD001263606022828681C
:1018800005D0B0432860FFF75DFC04463AE0B04362
:101890002860FFF757FC074604E0FFF753FCC01B26
:1018A00002282DD828688001F7D4616A206AA26ACC
:1018B0000843E16A120211430843216B0843E968B7
:1018C0002D4A11400843E860286830432860E868E2
:1018D000012100E03DE009070843E860FFF732FC22
:1018E000044604E0FFF72EFC001B022808D82868F5
:1018F0008001F7D52FE0FFF725FC001B022801D956
:101900000320F8BD28688001F5D4E8681B49084029
:10191000E86020E00128F4D0E868226A8107890F96
:10192000914216D17021626A0140914211D17F210A
:10193000A26A09020140120291420AD11F21490400
:10194000E26A0140914204D1400F216B4007884276
:1019500001D00120F8BD0020F8BD000000100240B9
:101960000024F40030000020280000204010024035
:1019700000700040881300008C80C11FFCFFFEEF48
:10198000094910B5401E884201D9012010BD074CFD
:1019900060610321081F00F0C3FE0020A061072042
:1019A0002061002010BD0000FFFFFF0000E000E00C
:1019B00010B5014680310A79012A15D001220A7139
:1019C00024228A6002681368146864086400146042
:1019D00001225207934300224266006803602020E0
:1019E00088600A71104610BD022010BD70B5044613
:1019F00005468034207901281AD001202071242046
:101A0000A0602868066802685208520002602868D0
:101A1000826807235B069A430A438260284600F0E7
:101A20005FFC286806602020A0600020207170BD47
:101A3000022070BD70B50446054680342079012827
:101A400019D0012020712420A0602868066802684F
:101A500052085200026028688268D200D2080A4305
:101A60008260284600F03CFC286806602020A060C8
:101A70000020207170BD022070BD70B5040005D03B
:101A800025468035A868002802D006E0012070BDF8
:101A900000202871204600F027F82420A860206844
:101AA0000168490849000160A06A002802D0204668
:101AB00000F038FC204600F029FD0128E7D020681E
:101AC00041680922D20291434160206881682A223C
:101AD0009143816020680168012211430160204622
:101AE00000F086FC70BD000030B58DB004461421B6
:101AF0006846FEF782FC182105A8FEF77EFC18490F
:101B00002068884229D10124002505A8069505945E
:101B1000FFF79EFB002801D0FEF7BAFE11480268CD
:101B2000012189030A430260006808400B900D48B8
:101B30004038416B21434163406B0295C007C00FA1
:101B40000B9003204002009002200190052069467E
:101B5000039504940007FFF741FA0DB030BD000073
:101B60000038014040100240FFB507460446803768
:101B7000F86885B00E46202802D0022009B0F0BDDA
:101B8000002E61D0079800285ED00120A1680003D4
:101B9000814204D12069002801D1F00754D10020EE
:101BA00038612221F960E066FFF7CCFA0390254600
:101BB00040350798A8830798E8830121A0680903A6
:101BC000FF22884204D12369002B0BD1274A09E068
:101BD000002812D001221207904213D12269002A54
:101BE0000ED03F222A8492B20292884202D120690A
:101BF000002809D00196002631E02369002BF1D09E
:101C00007F22EFE70022EDE70020019027E008980F
:101C10000090002220212046039B00F02BFD00288D
:101C200003D02020F8600320A8E70198002820684E
:101C30000CD0416A02980140019801700198401C43
:101C40000190F868222807D0012097E7406A02999E
:101C500008403080B61CF4E7E88B401EE883E88B30
:101C60000028D4D12020F860002087E7FF01000081
:101C7000FFB5064604468036B06883B00D4620287E
:101C800002D0022007B0F0BD002D3BD005980028FF
:101C900038D00120A1680003814204D120690028C6
:101CA00001D1E8072ED1002030612120B060FFF77C
:101CB00049FA0190274640370598B8820598F8827E
:101CC0000120A1680003814202D12069002802D0CE
:101CD0000295002522E0002002901FE000228021D2
:101CE000204600F0C7FC002825D1029800280BD020
:101CF0002168007888620298401C0290B168212017
:101D0000884308D00120BDE728882168C005C00DA0
:101D10008862AD1CF2E7F88A401EF882F88A019BBF
:101D2000002806980090D9D100224021204600F0DA
:101D3000A1FC002803D02020B0600320A2E72020CF
:101D4000B06000209EE7FEE730B587B00C46054640
:101D50002022102101A8FEF729FB00206946087502
:101D6000014601AA04E05054491CC9B2102902D20C
:101D7000605C0028F7D100230092034A29461846E8
:101D8000FEF7C0FD07B030BDFFFF000010B51A4CD4
:101D900088B0207800F0EAF9024618A16846FEF7FC
:101DA0000FFA69460020FFF7CFFF16A168462269A7
:101DB000FEF706FA69461020FFF7C6FFA27814A1C5
:101DC0006846FEF7FDF969462020FFF7BDFF13A125
:101DD0006846A3686268FEF7F3F969463020FFF7AA
:101DE000B3FF12A16846E268FEF7EAF969464020AF
:101DF000FFF7AAFF08B010BD000000204D6F64651A
:101E00003A2573004C696768743A256C75000000C8
:101E10004C6576656C3A25640000000054313A2523
:101E20006C752054323A256C7500000054333A2505
:101E30006C75000070B50125ED03052636070446D4
:101E4000B562054910208861200A00F0FFF9E0B270
:101E500000F0FCF9B56170BD000400508068C00757
:101E6000C00F704780684007C00F7047C06800050A
:101E7000800F01D0002070470120704702680723BF
:101E80009B059A430A430260704710B543690424D6
:101E9000214007248C40A3438A401343436110BD73
:101EA00070B506467F2300211A46084600F062F806
:101EB0002C2000F09BF8002400253046FFF7BAFFE5
:101EC0006D1C802DF9D3641C802CF5D370BD0000EF
:101ED00010B50A20FFF770F8012240212448FFF7CF
:101EE0002BF9112000F082F80320FFF765F811208C
:101EF00000F07CF80520FFF75FF8362000F076F858
:101F00000520FFF759F8362000F070F80520FFF79C
:101F100053F8C82000F05AF80520FFF74DF8C82004
:101F200000F054F80520FFF747F83A2000F05EF87B
:101F30000520FFF741F83A2000F058F80520FFF798
:101F40003BF8052000F042F80520FFF735F80520A2
:101F500000F03CF81420FFF72FF8292000F046F895
:101F60000520FFF729F8292000F040F810BD0000F7
:101F700000040050F0B507461C4615460E462A20C0
:101F800000F034F8002000F021F8BF1CF8B200F097
:101F90001DF8002000F01AF8AD1CE8B200F016F8A9
:101FA0002B2000F023F8002000F010F8F61CF0B20F
:101FB00000F00CF8002000F009F8E41CE0B200F09A
:101FC00005F82C2000F012F8F0BD000030B5012516
:101FD000ED0305242407A562034A1021916100F056
:101FE00035F9A56130BD00000004005030B5012571
:101FF000ED0305242407A562034A1021916200F035
:1020000025F9A56130BD0000000400503EB5002454
:102010001948009401941749029401608460C460D7
:1020200009050461416004214161047644768476A7
:102030000121C161014620310C70446284620C733D
:1020400007224263046382630C77C464FEF7C0FD19
:10205000002801D0FEF71CFC084800900194694656
:1020600002940548FEF79EFC002801D0FEF710FC04
:102070003EBD00000024014034000020100000108C
:10208000F0B587B014216846FEF7B7F91B48426BDC
:1020900020210A434263426B0A400592416B0125AD
:1020A00029434163416B29400591426B02210A4358
:1020B0004263406B124F0840059000227F21384652
:1020C000FFF73AF8EE030520002231460007FFF73C
:1020D00033F87F2000240090029469460195039410
:1020E0003846FEF77BFF05200294694600070096FC
:1020F00001950394FEF772FF07B0F0BD0010024097
:102100000004005010B5184816490160E121490249
:10211000416000218160C16001618161C161016232
:102120000C22416242618162FFF7A7FC002801D0C6
:10213000FEF7AEFB00210C48FFF77CFC002801D025
:10214000FEF7A6FB00210848FFF750FC002801D04D
:10215000FEF79EFB0448FFF72BFC002801D0FEF79A
:1021600097FB10BD0038014098000020012801D0E5
:1021700001A0704702A070474155544F0000000075
:102180004D414E55414C0000FEE770471D49052862
:102190000A7817D003281DD0042823D0012828D07E
:1021A00002280ED14868642801D9643848608868DC
:1021B000642801D964388860C868642801D9643803
:1021C000C86070470020002A01D0087070470122C3
:1021D0000A7005E0012AF9D148780028F6D0401E9F
:1021E00048707047012AFCD148780328F9D2401C76
:1021F000F6E7486864304860886864308860C8687A
:102200006430DDE7000000203EB5002101910C465E
:102210000291009069460C48FEF7C4FB002801D0EB
:1022200072B6FEE70848FEF773FE64210648FEF723
:102230000DFE002803D10448FEF7C6FC0446024800
:10224000FEF79AFE20463EBD3400002030B508213E
:10225000084B20240A46050601D59C6100E09C62DB
:102260009A619A624006491E000E0906090EF2D1D3
:1022700030BD000000040050704710B5FEF768FF45
:1022800010BD10B592B034216846FEF7B6F80024B0
:1022900001200D940E940F9440021094FEF7B2FFAB
:1022A00002200090C0010390402005900494079400
:1022B0006846FFF779F9002801D072B6FEE70720DB
:1022C0000D900E940F94002110940DA8FFF766F85E
:1022D000002801D072B6FEE712B010BD70470000B2
:1022E000F8B50446416E4034002915D00068816875
:1022F000806809014D0F0A4E400F3746315C083F98
:10230000385CC000FEF77BF86085785D715DC000C9
:10231000FEF775F82085F8BD01206085FAE700001A
:102320001639000810B5018D090707D501684A68FC
:102330000123DB039A43836B1A434A60018DC9076B
:1023400007D001684A6801235B049A43C36A1A43B1
:102350004A60018D890707D501684A6801231B047B
:102360009A43036B1A434A60018D490707D50168F8
:102370004A6801239B049A43436B1A434A60018DC8
:10238000C90607D50268916801231B039943C36BF3
:1023900019439160018D890607D501688A68012378
:1023A0005B039A43036C1A438A60018D490612D578
:1023B00003685A6801210905446C8A4322435A6024
:1023C000426C8A4207D10268516803235B05994336
:1023D000836C19435160018D090607D501684A686D
:1023E0000123DB04C06C9A4302434A6010BD000025
:1023F000FEB505460026803504462E61FEF7A2FE96
:1024000001902068006820270007002817DA254877
:102410000090002239042046019B00F02BF900288F
:102420000DD0EFF31080012181F3108821680A6834
:1024300080239A430A6080F31088AF6028E0206808
:102440000068400727D51748009001210022890520
:102450002046019B00F00EF900281CD0EFF31080FD
:10246000012181F3108821680A68FF2321339A43F0
:102470000A6080F31088EFF31080012181F3108847
:1024800021688A68520852008A6080F31088EF60E1
:102490002E710320FEBDAF60EF60E66626672E71E9
:1024A0000020FEBDFFFFFF0110B5EFF310810122F8
:1024B00082F3108802681368FF242134A343136059
:1024C00081F31088EFF31081012282F310880268F3
:1024D00093680D4C2340936081F31088C16E0129ED
:1024E0000BD1EFF31081012282F310880268136888
:1024F0001024A343136081F3108820228C210A50FA
:102500000021C166416710BDFEFFFFEFF8B504462C
:1025100080682169E26908436169002511432268E6
:10252000084311684B4B1940014311602068416812
:10253000032212039143E26811434160A169206ABA
:10254000084321688A68444B1A4002438A60206825
:10255000C16A626A090909011143C1623F492068E1
:10256000884211D13E4840698007800F0FD0012872
:1025700006D0022802D003280BD103E0022109E093
:10258000042107E0082105E03649884201D10021F5
:1025900000E010210120E369C003334A334E344F79
:1025A000834227D1002906D0022907D0042907D069
:1025B00008293FD108E0FEF79DFF03E0104603E045
:1025C000FEF7ACFF00283AD0616A4900715AFDF766
:1025D00016FF616840004A088018FDF710FF0146A9
:1025E0001039B94226D82249491C01400007400F42
:1025F000084322E0002906D0022907D0042907D089
:10260000082917D108E0FEF775FF03E0104603E044
:10261000FEF784FF002812D0616A4900715AFDF765
:10262000EEFE61684A088018FDF7E9FE01461039A0
:10263000B94201D9012502E080B22168C860204674
:10264000012140304185018500206067A067284650
:10265000F8BD0000F369FFCFFFF4FF11003801401F
:1026600040100240004400400024F400F638000806
:10267000EFFF0000FFB581B005460E4604468035E9
:102680000A9F32E0781C30D0FEF75CFD0499401AB6
:10269000B84218D8002F16D020680168490724D501
:1026A000802E22D0402E20D0C169C94309070CD406
:1026B000082606622046FFF7F7FE2E6100202871EB
:1026C000012005B0F0BD0320FBE7C069C043000551
:1026D0000BD401202168C00208622046FFF7E4FE07
:1026E0002020286100202871EDE72068C16930466C
:1026F000884305D0002103988142C3D00020E0E741
:102700000121F8E730B47446641E2578641CAB429E
:1027100000D21D46635D5B00E31830BC1847000023
:102720008307FF22DB0E9A408907090E9940002893
:1027300008DB830809489B001B181868904308436E
:10274000186070470007000F0838830804489B0092
:102750001B18D86990430843D861704700E400E033
:1027600000ED00E0B4B0FEF7FBFCFFF78AFDFFF7D9
:1027700087FCFFF7C7FCFFF749FC01220520D103C6
:102780000007FEF7D9FCFFF7A3FB0020FFF788FB4B
:10279000FFF7FCFA464F474CFEF7D4FC0546FEF720
:1027A00079F80090FFF7F2FCA069281A642808D392
:1027B0004148A561FFF728FD20614048FFF724FD4F
:1027C00060612078002801D0607810E0616820699D
:1027D000884201D200200AE0A168884201D201208B
:1027E00005E0E168884201D2022000E003200606ED
:1027F000A070360E01D0012200E0002204213846EC
:10280000FEF79AFC022E01D3012200E000220221F1
:102810003846FEF791FC032E01D3012200E000228E
:1028200001213846FEF788FCE069291AFF20F530BF
:10283000814202D3E561FFF7A9FA206A291A7D20B7
:10284000C000814202D200980028A5D025620098DD
:102850000300FFF757FF060E0406080A0C0E18A522
:1028600008E018A506E019A504E01AA502E01BA5DA
:1028700000E01CA52078FFF779FC0246201D0BC85C
:10288000A6780491029605930390606900900195E3
:10289000164906A82369FDF793FC06A8FDF764FD19
:1028A00082B2642306A91248FFF7E2F974E7000038
:1028B000000400500000002010000010020000047E
:1028C00055500000444F574E000000004C45465400
:1028D00000000000524947485400000043454E5450
:1028E000455200004E4F4E45000000008039000860
:1028F0009800002000000000000000000000000020
:1029000000000000000000000000000000000000C7
:1029100000000000000000000000000000000000B7
:1029200000000000000000000000000000000000A7
:102930000000000000000000000000000000000097
:102940000000000000000000000000000000000087
:102950000000000000000000000000000000000077
:102960000000000000000000000000000000000067
:10297000000000000000001808C80808000000005F
:102980000000000000007F6060606060606060E0E8
:1029900060200000000000000000000000000000B7
:1029A00000000000000018181810101000000000AF
:1029B0000000000000000000000000000808080CF3
:1029C0000C0C0000000000000000000000000000EF
:1029D0000000000000006C3810007CC6701CC67C33
:1029E00000000000000010386C00780C7CCCCC7625
:1029F000000000000000000000007CC670C0C67C23
:102A0000000000000000000000006C967CD0D66C36
:102A1000000000000000000000007CC60606C67C26
:102A200000000000000000386CC6C6FEC6C66C3848
:102A30000000000000000000001038286C44C6C6EA
:102A4000000000000000000000007CC606FEC67CFE
:102A500000000000000000000000DC666666F6066C
:102A600006663C000000006C38F80C7EC6C6C67CCA
:102A7000000000000000000E1B1818181818181885
:102A8000D87000000000000000FE860C180C06063E
:102A9000C67C0000000076DC0000780C7CCCCC7694
:102AA00000000000000076DC00007CC60606C67C44
:102AB00000000000000076DC0000DC6666666666EA
:102AC0000000000000000000000076999F98996FB8
:102AD0000000000000000000000000000000000CEA
:102AE00006060000000000000000000000003C6638
:102AF000663C000000000000000000000000000034
:102B000000000000000000183C3C3C181800181899
:102B1000000000000000C6C6C6440000000000001F
:102B2000000000000000006C6CFE6C6C6CFE6C6CB5
:102B3000000000000018187CC6C2C07C0686C67C57
:102B4000181800000000000000C3C60C183063C352
:102B500000000000000000386C6C3876DCCCCC76CD
:102B60000000000000003030306000000000000075
:102B700000000000000000183060606060603018E5
:102B800000000000000000180C06060606060C18DF
:102B90000000000000000000006C38FE386C0000EF
:102BA00000000000000000001818187E1818180017
:102BB00000000000000000000000000000181818CD
:102BC0003000000000000000000000FE00000000D7
:102BD00000000000000000000000000000001818C5
:102BE0000000000000000002060C183060C08000E9
:102BF000000000000000007CC6CEDEF6E6C6C67C03
:102C00000000000000000018387818181818187E06
:102C1000000000000000007CC6060C183060C6FEF4
:102C2000000000000000007CC606063C0606C67CCC
:102C3000000000000000000C1C3C6CCCFE0C0C1EC4
:102C400000000000000000FEC0C0C0FC0606C67CFC
:102C5000000000000000003860C0C0FCC6C6C67C92
:102C600000000000000000FEC6060C1830303030B6
:102C7000000000000000007CC6C6C67CC6C6C67C3C
:102C8000000000000000007CC6C6C67E06060C7868
:102C900000000000000000001818000000181800D4
:102CA0000000000000000000181800000018183094
:102CB00000000000000000060C18306030180C0600
:102CC000000000000000000000007E00007E000008
:102CD000000000000000006030180C060C18306086
:102CE000000000000000007CC6C60C181800181870
:102CF000000000000000007CC6C6DEDEDEDCC07C1A
:102D00000000000000000010386CC6C6FEC6C6C633
:102D100000000000000000FC6666667C666666FCDB
:102D2000000000000000003C66C2C0C0C0C2663C9B
:102D300000000000000000F86C66666666666CF8CD
:102D400000000000000000FE66626878686266FEAF
:102D500000000000000000FE66626878686060F0B5
:102D6000000000000000003C66C2C0C0DEC6663A3B
:102D700000000000000000C6C6C6C6FEC6C6C6C625
:102D8000000000000000003C181818181818183C23
:102D9000000000000000001E0C0C0C0C0CCCCC78C9
:102DA00000000000000000E6666C6C786C6C66E663
:102DB00000000000000000F060606060606266FE7D
:102DC00000000000000000C6EEFED6C6C6C6C6C69D
:102DD00000000000000000C6E6F6FEDECEC6C6C655
:102DE00000000000000000386CC6C6C6C6C66C38BD
:102DF00000000000000000FC6666667C606060F019
:102E0000000000000000007CC6C6C6D6DE7C0C0EAA
:102E100000000000000000FC6666667C6C6666E6EA
:102E2000000000000000007CC6C660380CC6C67CEE
:102E3000000000000000007E5A1818181818183CEE
:102E400000000000000000C6C6C6C6C6C6C6C67CD6
:102E500000000000000000C6C6C6C6C6C66C38101A
:102E600000000000000000C6C6C6C6C6D6FEEEC6FC
:102E700000000000000000C6C6C66C386CC6C6C69E
:102E800000000000000000C6C6C66C383838387C28
:102E900000000000000000FEC68C183060C2C6FEB4
:102EA000000000000000003C303030303030303C5A
:102EB0000000000000000080C0E070381C0E060218
:102EC000000000000000003C0C0C0C0C0C0C0C3C36
:102ED000000000000010386CC60000000000000078
:102EE00000000000000000000000000000000000E2
:102EF00000FE00000000303018000000000000005C
:102F000000000000000000000000780C7CCCCC76B3
:102F100000000000000000E06060786C666666DC1F
:102F2000000000000000000000007CC6C0C0C67C9D
:102F3000000000000000001C0C0C3C6CCCCCCC76DB
:102F4000000000000000000000007CC6FEC0C67C3F
:102F5000000000000000001C3632307C3030307839
:102F60000000000000000000000076CCCCCC7C0CFF
:102F7000CC780000000000E060606C76666666E673
:102F80000000000000000018180038181818183C3D
:102F9000000000000000000606000E060606066699
:102FA000663C0000000000E06060666C786C66E6DD
:102FB0000000000000000038181818181818183CF5
:102FC0000000000000000000000044FED6D6D6D667
:102FD00000000000000000000000DC666666666617
:102FE000000000000000000000007CC6C6C6C67CD1
:102FF00000000000000000000000DC6666667C60E7
:1030000060F0000000000000000076CCCCCC7C0C0E
:103010000C1E0000000000000000DC76666060F01E
:10302000000000000000000000007CC6701CC67C90
:1030300000000000000000103030FC303030361C42
:1030400000000000000000000000CCCCCCCCCC760E
:1030500000000000000000000000C6C6C66C38106A
:1030600000000000000000000000C6C6C6D6FE6CCE
:1030700000000000000000000000C66C38386CC67C
:1030800000000000000000000000C6C6C6C67E06A4
:103090000C780000000000000000FECC183066FE36
:1030A000000000000000000E181818701818180E04
:1030B0000000000000000018181818001818181850
:1030C00000000000000000701818180E1818187082
:1030D0000000000000000076DC000000000000009E
:1030E00000000000000000000000000000000000E0
:1030F00000000000000000000000000000000000D0
:1031000000000000000000000000000000000000BF
:1031100000000000000000000000000000000000AF
:1038F00000000000000001000200040006000800B3
:103900000A000C00100020004000800000010101AE
:10391000010307010000080402040801010100007E
:103920000000000000000000000000000000000097
:103930000000000000000000000000000000000087
:10394000010000000200000003000000040000006D
:103950000600000007000000080000000900000049
:103960000000000000000000000000000000000057
:10397000010000000200000003000000040000003D
:103980006D6F64653D25732C206C696768743D25F7
:103990006C752C206B65795F6164633D256C752CBB
:1039A00020756172745F6B65793D25732C206C65A1
:1039B00076656C3D25642C2074683D256C752F253B
:1039C0006C752F256C750D0A00000000EC3900089D
:1039D000000000203400000004010008203A000824
:1039E000340000205C0700002001000800000000F7
:1039F000F401000008070000F00A000000000000C9
:103A000000000000000000000000000000000000B6
:103A10000100000004000000000000000024F40089
:04000005080000C12E
:00000001FF
