:020000040800F2
:100000006807002089010008A91D0008231C0008BA
:1000100000000000000000000000000000000000E0
:10002000000000000000000000000000F11D0008BA
:100030000000000000000000AB1D0008F31D0008D8
:100040009B010008000000009B0100089B010008C4
:100050009B0100089B0100089B0100089B01000810
:10006000000000009B0100089B0100089B010008A4
:100070009B0100089B0100089B0100080000000094
:100080009B01000800000000000000009B01000828
:10009000000000009B0100089B0100089B01000874
:1000A0009B0100089B0100089B0100089B010008C0
:1000B0009B0100080000000000000000000000009C
:1000C00000F002F800F050F80CA030C808382418EE
:1000D0002D18A246671EAB4654465D46AC4201D180
:1000E00000F042F87E460F3E0FCCB6460126334262
:1000F00000D0FB1AA246AB46334318470024000049
:1001000020240000103A02D378C878C1FAD85207E8
:1001100001D330C830C101D504680C6070470000BD
:100120000023002400250026103A01D378C1FBD813
:10013000520700D330C100D50B60704710B5642959
:1001400002D100F07BF810BD752902D100F076F8DD
:1001500010BD732902D100F081FA10BD002010BD3E
:100160001FB51FBD10B510BD00F090FA1146FFF786
:10017000F7FF02F0B3F800F0A8FA03B4FFF7F2FFBC
:1001800003BC00F0AFFA000007488047074800476B
:10019000FEE7FEE7FEE7FEE7FEE7FEE70448054967
:1001A000054A064B70470000551E0008C1000008B4
:1001B0006801002068070020680300206803002011
:1001C0000FB41CB5074B06AA7B44694600900598FE
:1001D00000F019FA0020694600F028FA1CBC08BC9F
:1001E00004B018476104000070B50C460546012AAA
:1001F00005D02878800600D5EA69002302E00123B3
:1002000005E05B1C934202D2E05C0028F9D1A869AA
:10021000E618C01AA861286AC01828622846C04695
:10022000C04604E06A682078A968641C9047B4421C
:10023000F8D32846C046C04670BD0000F7B500257B
:1002400075291068009914A611D0C046C046002830
:1002500002DA404211A608E0009909688A0701D530
:100260000FA602E0490704D50EA6012501E0C0460D
:10027000C046009F0024243704E000F0F3F9303139
:100280003955641C0028F8D12B4632462146009887
:1002900000F05CF9FEBD0000000000002D00000031
:1002A0002B00000020000000F8B50F460546002096
:1002B00028622846E9688847002852D0252802D0BD
:1002C0006A68A96849E0E9682846002688476C28DA
:1002D00004460AD0682C08D04C2C37D06A2C33D076
:1002E000742C33D07A2C31D015E0E96806462846C4
:1002F0008847B042044608D16C2E25D00126B602AC
:100300002846E9688847044605E06C2E02D0FF269F
:10031000013600E04026002C23D020464138192821
:1003200003D80120C002064320343A4628462E60F6
:100330002146FFF703FF00280CD0012808D0FF1D3D
:10034000FF08FF000837B4E78026D9E70026D7E783
:100350003F1DAEE76A682046A9689047286A401C9E
:10036000A6E7286AF8BD000030B5441C03E0017818
:10037000401C00290DD08107F9D10B4BDD0104C8C9
:10038000D11A91432940FAD0001B0A0603D0C01E9F
:1003900030BD001B30BD0A0401D0801E30BD0902F3
:1003A000FCD0401E30BD00000101010101E004C08D
:1003B000091F0429FBD28B0701D50280801CC907C5
:1003C00000D00270704700290BD0C30702D0027022
:1003D000401C491E022904D3830702D50280801CD9
:1003E000891EE3E70022EEE70022DFE7002203098F
:1003F0008B422CD3030A8B4211D300239C464EE040
:1004000003460B433CD4002243088B4231D30309FB
:100410008B421CD3030A8B4201D394463FE0C309AD
:100420008B4201D3CB01C01A524183098B4201D3C5
:100430008B01C01A524143098B4201D34B01C01AB0
:10044000524103098B4201D30B01C01A5241C30828
:100450008B4201D3CB00C01A524183088B4201D397
:100460008B00C01A524143088B4201D34B00C01A83
:100470005241411A00D201465241104670475DE098
:10048000CA0F00D04942031000D34042534000221B
:100490009C4603098B422DD3030A8B4212D3FC22C4
:1004A000890112BA030A8B420CD3890192118B4243
:1004B00008D3890192118B4204D389013AD0921159
:1004C00000E08909C3098B4201D3CB01C01A524114
:1004D00083098B4201D38B01C01A524143098B42DD
:1004E00001D34B01C01A524103098B4201D30B01C6
:1004F000C01A5241C3088B4201D3CB00C01A5241EB
:1005000083088B4201D38B00C01A5241D9D24308D1
:100510008B4201D34B00C01A5241411A00D201460E
:10052000634652415B10104601D34042002B00D578
:100530004942704763465B1000D3404201B500203A
:10054000C046C04602BD704770477047FFB50446BD
:100550000D4681B0243000902168880604D5102211
:10056000E0699143216000E00120A84201DD471BC2
:1005700000E000270498A1697A191018081AA061F0
:100580002078C00602D42046C046C046002608E0B7
:1005900003986268A168805D9047206A401C761CC1
:1005A000206204988642F3DB2078C0060AD52046F4
:1005B000C046C04606E06268A16830209047206AC5
:1005C000401C206238467F1E0028F4DC07E00098BB
:1005D0006268A168405D9047206A401C20622846FE
:1005E0006D1E0028F3DC2046C046C0462078000679
:1005F00002D5022005B0F0BD0120FBE701694A1CCD
:1006000002610878704700B58FB002910021059112
:100610000549019379440391114604906846FFF718
:1006200043FE0FB000BD0000E5FFFFFF0A68107039
:10063000521C0A60704710B54369002B02D0C046B7
:10064000C04601E0FFF7D0FD012010BD1278014641
:1006500024310A7000224A700122ECE7116800225E
:10066000D243E8E701468008081A02091018020A76
:100670001018020C1018C008820012185200891AB3
:1006800001E0401C0A390A29FBD27047754600F088
:1006900025F8AE46050069465346C008C0008546A9
:1006A00018B020B5FFF77AFD60BC00274908B646B0
:1006B0000026C0C5C0C5C0C5C0C5C0C5C0C5C0C571
:1006C000C0C5403D49008D46704710B50446C04640
:1006D000C0462046FFF751FD10BD0000004870479E
:1006E0000801002001491820ABBEFEE726000200E9
:1006F0007047000070B50446006801F097FA0028C2
:1007000024D0206881688907C90F04D18168104A04
:1007100011401031816000F083FC054612E000F0CA
:100720007FFC401B02280DD920688068400709D54E
:10073000A06D10210843A065E06D01210843E0652C
:10074000084670BD206880684007E8D4002070BD6E
:10075000E8FFFF7FF8B50446006881688907CD0F80
:1007600001F060FA00282AD0002D28D12068816885
:100770000522114010250126012914D18168114A52
:100780001140891C816021680320086000F048FC4A
:10079000074610E000F044FCC01B02280BD920687B
:1007A0008068C00707D0A06D2843A065E06D304386
:1007B000E0650120F8BD20688068C007EAD100200C
:1007C000F8BD0000E8FFFF7FF8B504460020009068
:1007D000206801F027FA002845D120688168234A63
:1007E00010261140002930D18168D5432940491C89
:1007F00081601F48006807218905084000020AD56A
:100800001D481C490068FFF7F1FD401C00E0401E38
:1008100000900028FBD1607E012824D000F000FC6D
:1008200007461BE001F0FEF9002804D1206881682A
:100830002940491C816000F0F3FBC01B02280DD940
:1008400020680068C043C00708D0A06D3043A06591
:10085000E06D01210843E0650846F8BD20680168A5
:10086000C943C907DED10020F8BD00001700008091
:1008700008270140400D03000C00002072B6FEE77F
:10088000F8B500270646044640360097307D0D46F1
:1008900001280FD001203075206801F0C7F9002829
:1008A0000AD0A06D20210843A065012700203075E3
:1008B0003846F8BD0220F8BD686802287ED00122C3
:1008C0002169D207914202D0121D914206D12068BF
:1008D0002968826A4903490B0A436EE0C206D20EB8
:1008E0000F20216E904081432868430302D0C30744
:1008F0004BD102E04000C00E48E0830701D5012043
:1009000044E0430701D5022040E0030701D503205E
:100910003CE0C30601D5042038E0830601D505205C
:1009200034E0430601D5062030E0030601D5072058
:100930002CE0C30501D5082028E0830501D5092056
:1009400024E0430501D50A2020E0030501D50B2052
:100950001CE0C30401D50C2018E0830401D50D2050
:1009600014E0430401D50E2010E0030401D50F204C
:100970000CE0C30301D5102008E0830301D511204A
:1009800004E0400301D5122000E000209040014324
:1009900021666968E2698808401C904210D8206886
:1009A0002B68826A9C46C906C90E0F238B409A4366
:1009B00063469B001B0F8B401A4300E03BE08262C2
:1009C0002168AB6828684A690002824318404001E8
:1009D000400902434A612868002800DB66E72B4A89
:1009E000116807239B051940294B984214D10B022B
:1009F00012D4C0020143104601F024F926482549CB
:100A00000068FFF7F3FC0C21401C484300E0401E47
:100A100000900028FBD149E7204B984203D1CB013D
:100A200001D4800205E01E4B9842D7D14802D5D4AC
:100A30005802014325E001212069C907884202D0FC
:100A4000091D884206D120682968826A4903490B3A
:100A50008A43826228680028C0DA0C4A116807239A
:100A60009B0519400A4B984201D1C00208E00B4B8C
:100A7000984201D1800203E0094B9842AED1400276
:100A80008143104601F0DEF810E70000082701401E
:100A9000001000B0400D03000C000020004000B822
:100AA000002000B40068006C70470000FEB500270D
:100AB000044601973E4602970097002805D0254638
:100AC000A06D2035002802D007E00120FEBD2046A1
:100AD00000F0FCF8E6655420065520688168C900DE
:100AE000C90F12D18168724A1140012212071143C5
:100AF000816071486F490068FFF778FC4000801CF6
:100B000000E0401E00900028FBD120688168C900E9
:100B1000C90F08D1A16D10221143A165E16D012219
:100B20001143E165174601F081F8A16DC90601D4B2
:100B3000002804D0A06D10210843A065B4E0A06D8A
:100B4000FF210131884302210843A065206801F09C
:100B500069F800286DD1217EA06889030843617E71
:100B6000CA03A17E4B031A431043226B002A01D013
:100B7000012212031043E26810432269002A02DABC
:100B80005200520801E00122520510432A7B520014
:100B90001043019A10432A78012A09D1002922D052
:100BA000A16D20221143A165E16D01221143E16590
:100BB000616A002906D0FF23C1331940A26A0143AC
:100BC000104608432168CA683C4B1A400243CA6079
:100BD0006168029A890F8907E06C0A4310432A7FF3
:100BE000012A04D00CE0012109040843E0E7636C0A
:100BF000226C491C1A43A36C0B431146194308434A
:100C000021680A692E4B1A4002430A610321606879
:100C1000890788420DD0590788420AD04900884286
:100C200007D0284A91680F239B0499431840014339
:100C300091600021626B206801F00BF82249A26BE1
:100C4000206801F006F80F202169C04300291CD05C
:100C50000122520591420AD121688A6A227F9200BC
:100C6000121FD206D20E9040226E10438862206876
:100C70004069616B4007400F88420BD1E665A06D6B
:100C800080088000401CA0650FE021688A6A02434A
:100C90008A62ECE7A06D0221884310210843A06519
:100CA000E06D01210843E06501273846FEBD0000E4
:100CB000E8FFFF7F400D03000C0000200102DEFF73
:100CC00002FCFF1F0027014004FFFF0710B586B09C
:100CD000044614216846FFF787FB114920688842C3
:100CE0001CD110480268012109050A43026000680E
:100CF000084005900B484038416B01221143416385
:100D0000406B69461040059012200090032001902E
:100D1000002002900520000700F0CEF806B010BDBC
:100D20000024014040100240F8B5044640690D46D9
:100D3000082809D02068C068C00707D0A06D20210E
:100D40000843A0650120F8BD082600E0042600F055
:100D500067F9074615E0681C13D000F061F9C01B65
:100D6000A84201D8002D0CD120680068304208D17B
:100D7000A06D04210843A0650020403420750320A5
:100D8000F8BD206800683042E5D0A06D012149021D
:100D90000843A065206800F04DFF0C25002812D004
:100DA000A07E00280FD12068016809070BD500F04C
:100DB0003DFF012100280AD0A06D20221043A0652C
:100DC000E06D0843E065207E00280BD00CE0206831
:100DD0004268AA434260A06DFF220132904308435B
:100DE000A065F0E7206805600020F8BD70B50446F6
:100DF000006800F01BFF002802D00221084670BDE9
:100E000025464035287D01280AD001202875204636
:100E1000FFF7DAFC01460020002903D02875EDE732
:100E2000022070BDA26D094B1A40FF2301331A4303
:100E3000A265E06523681C221A6028752068826814
:100E4000034B1A40121D8260D8E70000FEF1FFFF3D
:100E5000E8FFFF7F70B5054604464035287D012830
:100E600007D001262E752046FFF744FC002802D04B
:100E70000CE0022070BD2046FFF76CFC002805D175
:100E8000A16DFF22013291433143A16500212975F3
:100E900070BD000070B5044600F0C2F80546601C45
:100EA00002D004480078241800F0BAF8401BA04291
:100EB000FAD370BD00000020F0B5002303249AE0AF
:100EC0002A4601259D402A407ED00E79B607B60FEE
:100ED000012E01D0022E16D186682746B4465E0048
:100EE000B646B7406646BE43B446CF687646B7407E
:100EF0006646374387604668AE430D79ED06ED0FD1
:100F00009D40354345600D79ED43AD0708D0C56878
:100F10005F002646BE40B5438E68BE402E43C66085
:100F20000D79AD07AD0F022D0ED1DD08AD002D18E6
:100F3000AC462D6A5E07F60E0F27B740BD430F691A
:100F4000B7402F4365462F6205685F002646BE40C6
:100F5000B5430E79B607B60FBE402E4306604D6806
:100F6000AD03AD0F46D09E08264DB6007519AC46B0
:100F70002D6E9E07F60E0F27B740BD4305273F078E
:100F8000B84201D100270FE01F4FB84201D101271D
:100F90000AE01E4FB84201D1022705E01C4FB842BB
:100FA00001D1032700E00527B7402F43154D6646C2
:100FB00037662D684E689543F60200D51543114FEC
:100FC0003D607D68954300E014E04E68B60200D5B0
:100FD00015437D600B4D80356E684F689643BF03A7
:100FE00000D516436E602E684F689643FF0300D508
:100FF00016432E605B1C0A681546DA4000D05FE796
:10100000F0BD00000018024000040050000800502D
:10101000000C0050002A01D0816170478162704746
:101020000148806870470000000000200248816885
:1010300002788918816070470000002010B50848C8
:1010400000240168821511430160032000F00AF8B2
:10105000002801D0012401E000F028F8204610BD4E
:101060000020024070B50F4E00243178054600295B
:1010700015D07D20C000FFF7B9F901460A48006885
:10108000FFF7B4F900F0EAFB002808D1042D06D2DE
:1010900000222946401E00F01FF8756000E0012480
:1010A000204670BD000000200C00002008B5094853
:1010B000016801221143016000681040009005485A
:1010C0004038C26B01040A43C263C06B0840009001
:1010D00008BD00004010024010B501F0DDF810BD61
:1010E00010B50F4C21680322520291430143216045
:1010F000C11FFF39FA390ED10A480621006848435A
:101100000949FFF773F9401C02E0002805D0401E92
:1011100061694905F9D4002010BD032010BD00000D
:10112000007000400C00002040420F00F8B504465B
:10113000006800264D4D800358D54C4800274038A4
:10114000C06BC00009D449484038C26B01040A434F
:10115000C263C06B084001270090454801688215B2
:1011600011430160FFF75CFF009005E0FFF758FFB7
:101170000099401A022825D83D480068C005F5D5D9
:10118000E8690321090208400FD0616981420CD04F
:10119000E86903210902EA698843012109040A4335
:1011A000EA61EA698A43EA61E861C0070FD0FFF7A4
:1011B00037FF009008E0FFF733FF0099411A2D48F0
:1011C000814201D9032609E0E8698007F3D5E8697F
:1011D00003210902884361690843E861002F05D0B3
:1011E00022484038C26B01048A43C2632078C0079A
:1011F00005D06869616880088000084368612078CC
:10120000800606D56869032109038843A16808435D
:1012100068612088400411D56869216980008008D0
:1012200008436861012120698907884206D10F4877
:101230004038C168012212041143C16020880005B2
:1012400012D56869032189038843E168084368610E
:101250000121E0688903884206D104484038C1680A
:10126000012212041143C1603046F8BD4010024013
:101270000070004088130000F8B50F46060043D008
:101280004D4D28684007400FB84213D22868C00867
:10129000C00038432860FFF7C3FE044605E0FFF7AF
:1012A000BFFE011B4548814261D828684007400FB6
:1012B000B842F4D13068424C81070DD5400704D5BF
:1012C000A068072109030843A060A0680F21090254
:1012D0008843B1680843A0603078C00732D0706896
:1012E00001280AD002280BD000280FD03449403101
:1012F00003280ED0C969890704E02168890301E049
:1013000021688901002906DB0120F8BD2168490513
:10131000F8E7096AEFE7A168C908C9000143A160BD
:10132000FFF77EFE009006E0FFF77AFE0099411A73
:10133000224881421BD8A068382108407168C90042
:101340008842F1D128684007400FB84217D91A489F
:101350000168C908C90039430160FFF761FE05460D
:1013600007E0FFF75DFE411B1448814201D90320CD
:10137000F8BD114800684007400FB842F1D13078FD
:10138000400706D5A068072109038843F168084390
:10139000A06000F031F8A1683C2289091140094A97
:1013A000515CC906C90EC840074908600748006873
:1013B000FFF758FEF8BD000000200240881300002F
:1013C000001002409C2400080C00002004000020B3
:1013D0000648074900688968064A4904490F890098
:1013E000515CC906C90EC840704700000C000020BF
:1013F00000100240DC24000810B5204CA068204AF0
:101400008006400F16D0A0688006410F50100129B9
:101410000FD0A1688906490F022912D0A068800662
:10142000400F042823D0A0688006400F032821D055
:10143000002010BD206801218004400F814010462B
:1014400012E0E1688B07E1689B0F4906490F491CD0
:10145000032B00D01046FEF7C9FFE1684904490E8E
:101460004843E168490F491CFEF7C0FF10BD012049
:10147000C00310BD7D20000210BD0000001002401E
:101480000024F400F8B504007ED020783827C00787
:10149000E94D002846D0A868E96838408907890FD7
:1014A000102802D008280BD001E0032908D0012021
:1014B0006268000482420AD129680143296015E06C
:1014C000286880032ED560680028DDD02AE0052337
:1014D00001211B0489049A422A6802D10A432A6026
:1014E000EAE782432A602868884328606068002809
:1014F0000CD0FFF795FD064604E0FFF791FD801B39
:10150000642873D828688003F7D50BE0FFF788FDBF
:10151000064604E0FFF784FD801B6428F1D82868A4
:101520008003F7D42078800769D5A868E968384037
:101530008A070721920FC902102802D0002813D071
:1015400001E0022A10D0E068002846D028688843CD
:101550002169084328602868FF2101310843286079
:10156000FFF75EFD06462CE02A68520502D5E268C8
:10157000002A89D06A687F231B029A4363691B0291
:101580001A436A60002800E08DE00ED12868884385
:10159000216908432860286801218004400F8140A8
:1015A000A648FEF723FFA6490860A6480068FFF793
:1015B00059FD002877D122E0FFF732FD801B022879
:1015C0009FD828684005F7D568687F2109028843BD
:1015D000616909020843686011E02968FF20013051
:1015E00081432960FFF71CFD064605E098E0FFF700
:1015F00017FD801B022884D828684005F7D420787E
:10160000914E00072ED5A8688006400F03280AD007
:10161000A0690028306A16D0012108433062FFF724
:10162000FFFC07460BE0306A80071BD5A069002845
:101630009FD017E0FFF7F4FCC01B022870D8306A77
:101640008007F7D50EE0400840003062FFF7E8FC65
:10165000074604E0FFF7E4FCC01B022860D8306AAC
:101660008007F7D4207840076CD5A868002780064B
:10167000400F042818D0E86BC00008D4E96B0120A3
:1016800000070143E963E96B0140012700916F48BE
:101690000168C90519D40168821511430160FFF77B
:1016A000BFFC00900DE083E0F06980074AD5A06898
:1016B00000287DD046E0FFF7B3FC0099401A0228CD
:1016C0002ED862480068C005F5D5A168012910D060
:1016D00004200529F16911D049084900F161F16937
:1016E0008143F161A068002816D0FFF799FC0090B3
:1016F0000EE0F06901210843F061F3E70143F16175
:10170000F7E7FFF78DFC0099411A5148814265D8EF
:10171000F0698007F5D50EE0FFF782FC009007E046
:101720005CE0FFF77DFC0099411A4948814255D899
:10173000F0698007F5D4002F04D0E96B0120000781
:101740008143E963E069002873D0A9688906490FDD
:1017500002294DD0012636060228286805D0B0435C
:101760002860FFF75DFC04463AE0B0432860FFF7CD
:1017700057FC074604E0FFF753FCC01B02282DD896
:1017800028688001F7D4616A206AA26A0843E16A86
:10179000120211430843216B0843E9682D4A1140A6
:1017A0000843E860286830432860E868012100E0C9
:1017B0003DE009070843E860FFF732FC044604E017
:1017C000FFF72EFC001B022808D828688001F7D5F7
:1017D0002FE0FFF725FC001B022801D90320F8BDEC
:1017E00028688001F5D4E8681B490840E86020E0DB
:1017F0000128F4D0E868226A8107890F914216D146
:101800007021626A0140914211D17F21A26A0902CE
:101810000140120291420AD11F214904E26A0140AB
:10182000914204D1400F216B4007884201D0012032
:10183000F8BD0020F8BD0000001002400024F400B4
:101840000C00002004000020401002400070004006
:10185000881300008C80C11FFCFFFEEF094910B502
:10186000401E884201D9012010BD074C6061032150
:10187000081F00F011FD0020A0610720206100205A
:1018800010BD0000FFFFFF0000E000E010B50146C2
:1018900080310A79012A15D001220A7124228A6036
:1018A0000268136814686408640014600122520717
:1018B00093430022426600680360202088600A711A
:1018C000104610BD022010BD70B504460546803498
:1018D000207901281AD0012020712420A0602868D6
:1018E000066802685208520002602868826807236E
:1018F0005B069A430A438260284600F0ADFA2868E6
:1019000006602020A0600020207170BD022070BD04
:1019100070B50446054680342079012819D001208D
:1019200020712420A06028680668026852085200CE
:10193000026028688268D200D2080A438260284682
:1019400000F08AFA286806602020A060002020713C
:1019500070BD022070BD70B5040005D025468035ED
:10196000A868002802D006E0012070BD0020287180
:10197000204600F027F82420A86020680168490864
:1019800049000160A06A002802D0204600F086FAD3
:10199000204600F077FB0128E7D020684168092243
:1019A000D20291434160206881682A22914381607C
:1019B00020680168012211430160204600F0D4FA3A
:1019C00070BD000030B58DB0044614216846FEF7A6
:1019D0000BFD182105A8FEF707FD1849206888426D
:1019E00029D10124002505A806950594FFF79EFB43
:1019F000002801D0FEF742FF114802680121890347
:101A00000A430260006808400B900D484038416B63
:101A100021434163406B0295C007C00F0B90032028
:101A2000400200900220019005206946039504942D
:101A30000007FFF741FA0DB030BD0000003801404B
:101A400040100240FFB5074604468037F86885B06D
:101A50000E46202802D0022009B0F0BD002E61D031
:101A6000079800285ED00120A1680003814204D1BC
:101A70002069002801D1F00754D1002038612221CB
:101A8000F960E066FFF7CCFA0390254640350798E9
:101A9000A8830798E8830121A0680903FF228842F0
:101AA00004D12369002B0BD1274A09E0002812D06A
:101AB00001221207904213D12269002A0ED03F2240
:101AC0002A8492B20292884202D12069002809D069
:101AD0000196002631E02369002BF1D07F22EFE749
:101AE0000022EDE70020019027E0089800900022F6
:101AF00020212046039B00F079FB002803D0202002
:101B0000F8600320A8E70198002820680CD0416AFB
:101B100002980140019801700198401C0190F868FA
:101B2000222807D0012097E7406A029908403080B8
:101B3000B61CF4E7E88B401EE883E88B0028D4D17C
:101B40002020F860002087E7FF010000FFB506466F
:101B500004468036B06883B00D46202802D00220AB
:101B600007B0F0BD002D3BD00598002838D00120EB
:101B7000A1680003814204D12069002801D1E8074F
:101B80002ED1002030612120B060FFF749FA01908A
:101B9000274640370598B8820598F8820120A16849
:101BA0000003814202D12069002802D0029500255D
:101BB00022E0002002901FE000228021204600F059
:101BC00015FB002825D1029800280BD02168007849
:101BD00088620298401C0290B1682120884308D096
:101BE0000120BDE728882168C005C00D8862AD1CB2
:101BF000F2E7F88A401EF882F88A019B00280698CE
:101C00000090D9D100224021204600F0EFFA0028B0
:101C100003D02020B0600320A2E72020B060002085
:101C20009EE7FEE78068C007C00F704780684007E6
:101C3000C00F7047C0680005800F01D000207047BA
:101C400001207047026807239B059A430A430260FC
:101C5000704710B543690424214007248C40A343F6
:101C60008A401343436110BD3EB5002419480094D7
:101C700001941749029401608460C46009050461FD
:101C80004160042141610476447684760121C1617A
:101C9000014620310C70446284620C730722426357
:101CA000046382630C77C464FEF700FF002801D050
:101CB000FEF7E4FD08480090019469460294054847
:101CC000FEF7DEFD002801D0FEF7D8FD3EBD000086
:101CD00000240140100000201000001030B587B033
:101CE00014216846FEF780FB1348426B20210A430B
:101CF0004263426B0A400592416B012421434163D8
:101D0000416B21400591426B02210A434263406BC3
:101D10000A4D08400590002207212846FFF77AF96E
:101D20000021072002910391009001946946284602
:101D3000FFF7C2F807B030BD0010024000040050A9
:101D400010B5184816490160E1214902416000219F
:101D50008160C16001618161C16101620C224162E7
:101D600042618162FFF7F7FD002801D0FEF786FD92
:101D700000210C48FFF7CCFD002801D0FEF77EFDC6
:101D800000210848FFF7A0FD002801D0FEF776FDEE
:101D90000448FFF77BFD002801D0FEF76FFD10BD62
:101DA0000038014074000020FEE770473EB5002176
:101DB00001910C460291009069460C48FEF760FDC7
:101DC000002801D072B6FEE70848FFF70FF864213B
:101DD0000648FEF7A9FF002803D10448FEF762FE7B
:101DE00004460248FFF736F820463EBD10000020AA
:101DF000704710B5FFF71AF910BD10B592B0342135
:101E00006846FEF7F1FA002401200D940E940F9419
:101E100040021094FFF764F902200090C001039083
:101E200040200590049407946846FFF72BFB002898
:101E300001D072B6FEE707200D900E940F9400219A
:101E400010940DA8FFF718FA002801D072B6FEE72B
:101E500012B010BD70470000F8B50446416E403422
:101E6000002915D000688168806809014D0F0A4E6D
:101E7000400F3746315C083F385CC000FEF7B6FAC9
:101E80006085785D715DC000FEF7B0FA2085F8BD11
:101E900001206085FAE700009424000810B5018D48
:101EA000090707D501684A680123DB039A43836B5E
:101EB0001A434A60018DC90707D001684A680123A7
:101EC0005B049A43C36A1A434A60018D890707D5A8
:101ED00001684A6801231B049A43036B1A434A6052
:101EE000018D490707D501684A6801239B049A437D
:101EF000436B1A434A60018DC90607D50268916891
:101F000001231B039943C36B19439160018D89061B
:101F100007D501688A6801235B039A43036C1A435F
:101F20008A60018D490612D503685A6801210905A6
:101F3000446C8A4322435A60426C8A4207D1026849
:101F4000516803235B059943836C19435160018DEC
:101F5000090607D501684A680123DB04C06C9A436F
:101F600002434A6010BD0000FEB5054600268035DC
:101F700004462E61FFF754F801902068006820277E
:101F80000007002817DA254800900022390420466F
:101F9000019B00F02BF900280DD0EFF310800121F8
:101FA00081F3108821680A6880239A430A6080F3CD
:101FB0001088AF6028E020680068400727D51748E0
:101FC00000900121002289052046019B00F00EF9B6
:101FD00000281CD0EFF31080012181F310882168C4
:101FE0000A68FF2321339A430A6080F31088EFF3D5
:101FF0001080012181F3108821688A6852085200FC
:102000008A6080F31088EF602E710320FEBDAF6000
:10201000EF60E66626672E710020FEBDFFFFFF0120
:1020200010B5EFF31081012282F310880268136863
:10203000FF242134A343136081F31088EFF3108150
:10204000012282F31088026893680D4C234093604C
:1020500081F31088C16E01290BD1EFF310810122A9
:1020600082F31088026813681024A343136081F37D
:10207000108820228C210A500021C166416710BDC2
:10208000FEFFFFEFF8B5044680682169E269084366
:102090006169002511432268084311684B4B1940C0
:1020A0000143116020684168032212039143E268F2
:1020B00011434160A169206A084321688A68444B42
:1020C0001A4002438A602068C16A626A09090901EC
:1020D0001143C1623F492068884211D13E4840699E
:1020E0008007800F0FD0012806D0022802D00328D5
:1020F0000BD103E0022109E0042107E0082105E0FB
:102100003649884201D1002100E010210120E36915
:10211000C003334A334E344F834227D1002906D0BF
:10212000022907D0042907D008293FD108E0FFF78A
:102130004FF903E0104603E0FFF75EF900283AD0BC
:10214000616A4900715AFEF751F9616840004A0816
:102150008018FEF74BF901461039B94226D82249BA
:10216000491C01400007400F084322E0002906D027
:10217000022907D0042907D0082917D108E0FFF762
:1021800027F903E0104603E0FFF736F9002812D0E4
:10219000616A4900715AFEF729F961684A08801896
:1021A000FEF724F901461039B94201D9012502E0B0
:1021B00080B22168C86020460121403041850185F8
:1021C00000206067A0672846F8BD0000F369FFCFD4
:1021D000FFF4FF110038014040100240004400406D
:1021E0000024F40074240008EFFF0000FFB581B064
:1021F00005460E46044680350A9F32E0781C30D0F2
:10220000FEF70EFF0499401AB84218D8002F16D0D6
:1022100020680168490724D5802E22D0402E20D086
:10222000C169C94309070CD4082606622046FFF796
:10223000F7FE2E6100202871012005B0F0BD0320BB
:10224000FBE7C069C04300050BD401202168C00230
:1022500008622046FFF7E4FE202028610020287154
:10226000EDE72068C1693046884305D00021039816
:102270008142C3D00020E0E70121F8E730B4744682
:10228000641E2578641CAB4200D21D46635D5B0072
:10229000E31830BC184700008307FF22DB0E9A408A
:1022A0008907090E9940002808DB830809489B002C
:1022B0001B18186890430843186070470007000F08
:1022C0000838830804489B001B18D86990430843CA
:1022D000D861704700E400E000ED00E0A2B0FEF736
:1022E000ADFEFFF78AFDFFF7F9FCFFF729FDFFF7C9
:1022F000BBFC454F4548FFF759FD04464448FFF7EE
:1023000055FDFF210290F53120468C4201D2002577
:102310000CE0E121C900884201D2012506E0AF218D
:1023200009018C4201D2022500E0032500266846FF
:1023300006703346012269463648FFF783FB0028C2
:102340001FD168460078772812D0572810D07328FC
:1023500010D053280ED061280ED041280CD064280C
:102360000CD044280AD06D280AD04D2808D008E0A7
:10237000012606E0022604E0032602E0042600E02F
:102380000526002D01D0012200E00022042138465C
:10239000FEF740FE022D01D3012200E000220221BF
:1023A0003846FEF737FE032D01D3012200E000225C
:1023B00001213846FEF72EFE3300FFF75FFF060EC1
:1023C0000406080A0C0E14A008E014A006E015A0EC
:1023D00004E016A002E017A000E018A0009001950C
:1023E000224618A103A8029BFDF7EAFE03A8FDF709
:1023F000BBFF82B2642303A90648FFF7A7FBFF20B7
:102400002D30FEF747FD75E7000400501000001066
:10241000020000047400002055500000444F574E45
:10242000000000004C454654000000005249474857
:102430005400000043454E54455200004E4F4E4557
:10244000000000006C696768743D256C752C206B7A
:1024500065795F6164633D256C752C2075617274CC
:102460005F6B65793D25732C206C6576656C3D2529
:10247000640D0A00010002000400060008000A00C2
:102480000C00100020004000800000010101010349
:102490000701000008040204080101010000000017
:1024A000000000000000000000000000000000002C
:1024B000000000000000000000000000010000001B
:1024C00002000000030000000400000006000000FD
:1024D00007000000080000000900000000000000E4
:1024E00000000000000000000000000001000000EB
:1024F0000200000003000000040000001C2500088A
:102500000000002010000000040100082C25000835
:102510001000002058070000200100080100000002
:0C25200004000000000000000024F40093
:04000005080000C12E
:00000001FF
