:020000040800F2
:10000000280A0020C1010008912E00081D290008BF
:1000100000000000000000000000000000000000E0
:100020000000000000000000000000009130000807
:100030000000000000000000E12E0008E53000088C
:10004000D301000800000000D3010008D30100081C
:10005000D3010008D3010008D3010008D301000830
:1000600000000000D3010008D3010008D3010008FC
:10007000D3010008D3010008D301000800000000EC
:10008000D301000800000000000000004931000812
:1000900000000000D3010008D3010008D3010008CC
:1000A000D3010008D3010008D3010008CD3C0008AB
:1000B000DD3C00080000000000000000000000001F
:1000C00000F002F800F050F80CA030C808382418EE
:1000D0002D18A246671EAB4654465D46AC4201D180
:1000E00000F042F87E460F3E0FCCB6460126334262
:1000F00000D0FB1AA246AB4633431847F451000028
:1001000014520000103A02D378C878C1FAD85207C6
:1001100001D330C830C101D504680C6070470000BD
:100120000023002400250026103A01D378C1FBD813
:10013000520700D330C100D50B60704710B5642959
:1001400002D100F097F810BD752902D100F092F8A5
:1001500010BD732902D100F037FB10BD002010BD87
:100160001FB51FBD10B510BD00F046FB1146FFF7CF
:10017000F7FF03F0E1FE00F05EFB03B4FFF7F2FFD0
:1001800003BC00F065FB000070B505460C46164642
:1001900002E00FCC0FC5103E102EFAD2082E02D36B
:1001A00003CC03C5083E042E07D301CC01C5361F7E
:1001B00003E021782970641C6D1C761EF9D270BD95
:1001C0000748804707480047FEE7FEE7FEE7FEE7EF
:1001D000FEE7FEE704480549054A064B7047000064
:1001E00047310008C100000828040020280A002028
:1001F00028060020280600200FB41CB5074B06AACD
:100200007B4469460090059800F0B3FA00206946E7
:1002100000F0C2FA1CBC08BC04B0184795050000E9
:1002200070B50C460546012A05D02878800600D511
:10023000EA69002302E0012305E05B1C934202D23D
:10024000E05C0028F9D1A869E618C01AA861286AFC
:10025000C01828622846C046C04604E06A68207874
:10026000A968641C9047B442F8D32846C046C046EB
:1002700070BD0000F7B5002575291068009914A617
:1002800011D0C046C046002802DA404211A608E05C
:10029000009909688A0701D50FA602E0490704D52D
:1002A0000EA6012501E0C046C046009F0024243769
:1002B00004E000F08DFA30313955641C0028F8D183
:1002C0002B4632462146009800F0F6F9FEBD0000AC
:1002D000000000002D0000002B00000020000000A6
:1002E000F8B50F460546002028622846E968884789
:1002F000002852D0252802D06A68A96849E0E96838
:100300002846002688476C2804460AD0682C08D066
:100310004C2C37D06A2C33D0742C33D07A2C31D07B
:1003200015E0E968064628468847B042044608D1E9
:100330006C2E25D00126B6022846E9688847044677
:1003400005E06C2E02D0FF26013600E04026002C8E
:1003500023D020464138192803D80120C002064383
:1003600020343A4628462E602146FFF7E7FE002853
:100370000CD0012808D0FF1DFF08FF000837B4E7A4
:100380008026D9E70026D7E73F1DAEE76A682046FA
:10039000A9689047286A401CA6E7286AF8BD0000B3
:1003A00030B5441C03E00178401C00290DD08107C2
:1003B000F9D10B4BDD0104C8D11A91432940FAD081
:1003C000001B0A0603D0C01E30BD001B30BD0A044E
:1003D00001D0801E30BD0902FCD0401E30BD00009F
:1003E000010101010346F0B50B439B072DD1244DBC
:1003F000EF01042A29D308C810C95E1B9E43121FAF
:100400003E4017D0D8B2E1B2401A3106014310D1B4
:1004100098B2A1B2401A310401430AD11802210254
:10042000000A090A401A3102014302D1180E210EB6
:10043000401AF0BDA342DCD018BA21BA884201D9D3
:100440000120F0BD0020C043F0BD002A01D10020F2
:10045000F0BD03780C78401C491C002B0DD0A34242
:100460000BD1521E09D003780C78401C491C002B7C
:1004700003D0A34201D1521EEBD1181BF0BD0000E6
:1004800001010101F8B5042A2CD3830712D00B789F
:10049000491C0370401C521E83070BD00B78491C6B
:1004A0000370401C521E830704D00B78491C037054
:1004B000401C521E8B079B0F05D0C91ADF0020235A
:1004C000DE1B08C90AE0FFF75FFEF8BD1D4608C93C
:1004D000FD401C46B4402C4310C0121F042AF5D224
:1004E000F308C91A521EF0D40B78491C0370401C43
:1004F000521EEAD40B78491C0370401C012AE4D434
:1005000009780170F8BDD2B210B513029A1813041D
:100510009A1800F00EF810BD01E004C0091F04296C
:10052000FBD28B0701D50280801CC90700D0027066
:10053000704700290BD0C30702D00270401C491E2F
:10054000022904D3830702D50280801C891EE3E7B9
:100550000022EEE70022DFE7002203098B422CD3C2
:10056000030A8B4211D300239C464EE003460B4303
:100570003CD4002243088B4231D303098B421CD365
:10058000030A8B4201D394463FE0C3098B4201D357
:10059000CB01C01A524183098B4201D38B01C01A8F
:1005A000524143098B4201D34B01C01A5241030906
:1005B0008B4201D30B01C01A5241C3088B4201D3B5
:1005C000CB00C01A524183088B4201D38B00C01A62
:1005D000524143088B4201D34B00C01A5241411A89
:1005E00000D201465241104670475DE0CA0F00D06C
:1005F0004942031000D34042534000229C46030965
:100600008B422DD3030A8B4212D3FC22890112BAEA
:10061000030A8B420CD3890192118B4208D38901C2
:1006200092118B4204D389013AD0921100E08909DA
:10063000C3098B4201D3CB01C01A524183098B42BB
:1006400001D38B01C01A524143098B4201D34B01A4
:10065000C01A524103098B4201D30B01C01A524107
:10066000C3088B4201D3CB00C01A524183088B428E
:1006700001D38B00C01A5241D9D243088B4201D317
:100680004B00C01A5241411A00D201466346524102
:100690005B10104601D34042002B00D54942704701
:1006A00063465B1000D3404201B50020C046C046FF
:1006B00002BD704770477047FFB504460D4681B0D4
:1006C000243000902168880604D51022E069914307
:1006D000216000E00120A84201DD471B00E0002767
:1006E0000498A1697A191018081AA0612078C00628
:1006F00002D42046C046C046002608E0039862683F
:10070000A168805D9047206A401C761C2062049896
:100710008642F3DB2078C0060AD52046C046C04694
:1007200006E06268A16830209047206A401C206281
:1007300038467F1E0028F4DC07E000986268A16854
:10074000405D9047206A401C206228466D1E0028AC
:10075000F3DC2046C046C0462078000602D50220C1
:1007600005B0F0BD0120FBE701694A1C0261087871
:10077000704700B58FB002910021059105490193A2
:1007800079440391114604906846FFF7A9FD0FB024
:1007900000BD0000E5FFFFFF0A681070521C0A60F0
:1007A000704710B54369002B02D0C046C04601E037
:1007B000FFF736FD012010BD1278014624310A7082
:1007C00000224A700122ECE711680022D243E8E7D8
:1007D00001468008081A02091018020A1018020CB3
:1007E0001018C008820012185200891A01E0401C3B
:1007F0000A390A29FBD27047754600F025F8AE4643
:10080000050069465346C008C000854618B020B5AB
:10081000FFF7E0FC60BC00274908B6460026C0C5CB
:10082000C0C5C0C5C0C5C0C5C0C5C0C5C0C5403DA8
:1008300049008D46704710B50446C046C046204664
:10084000FFF79BFC10BD000000487047C403002068
:1008500001491820ABBEFEE72600020070470000E9
:1008600070B50446006802F04BF9002824D02068D7
:1008700081688907C90F04D18168104A114010317D
:10088000816000F0A9FF054612E000F0A5FF401BC3
:1008900002280DD920688068400709D5A06D102175
:1008A0000843A065E06D01210843E065084670BD7E
:1008B000206880684007E8D4002070BDE8FFFF7F13
:1008C000F8B50446006881688907CD0F02F014F975
:1008D00000282AD0002D28D12068816805221140E7
:1008E00010250126012914D18168114A1140891C63
:1008F000816021680320086000F06EFF074610E069
:1009000000F06AFFC01B02280BD920688068C0076E
:1009100007D0A06D2843A065E06D3043E06501205D
:10092000F8BD20688068C007EAD10020F8BD00004B
:10093000E8FFFF7FF8B5044600200090206802F031
:10094000DBF8002845D120688168234A1026114031
:10095000002930D18168D5432940491C81601F4856
:10096000006807218905084000020AD51D481C4976
:100970000068FFF7F1FD401C00E0401E00900028D9
:10098000FBD1607E012824D000F026FF07461BE043
:1009900002F0B2F8002804D1206881682940491C7F
:1009A000816000F019FFC01B02280DD92068006883
:1009B000C043C00708D0A06D3043A065E06D0121A1
:1009C0000843E0650846F8BD20680168C943C907C7
:1009D000DED10020F8BD000017000080082701408C
:1009E000400D03004C00002077281FD057281DD051
:1009F00073281DD053281BD061281BD0412819D043
:100A0000642819D0442817D06D2817D04D2815D048
:100A1000702815D0502813D0722813D0522811D026
:100A2000672811D047280FD0002070470120704759
:100A3000022070470320704704207047052070474C
:100A400006207047072070470820704706C8436893
:100A50005140026880685A40514041400148484036
:100A600070470000A5A5A5A510B5044600680D496E
:100A7000884212D1606801280FD12046FFF7E6FFB7
:100A80006169884209D1E168A068884205D220697D
:100A9000814202D20449884201D9002010BD0120C0
:100AA00010BD000013072620FF0F00007D21044821
:100AB000C90081610349C1611921C90101627047FF
:100AC00000000020FC080000F0B597B00020304E78
:100AD00006900790089009901490308C01214006F0
:100AE000C00B2C4FC902411AC5192B480D9001208B
:100AF0000E902A48CC0A81690F91C1691091006A51
:100B000011900DA8FFF7A2FF129018220DA96846B8
:100B1000FFF73AFB00F098FD0220069004200790B2
:100B200001200990089414A906A800F005FD0028EA
:100B30000FD10024E0006946421853680A58318CEE
:100B40004906C90B0818C119012000F04DFD002805
:100B500002D000F035FD19E0641C032CEAD300F04C
:100B60002FFD2846FFF780FF00280FD00B48A9680B
:100B7000826991420AD1E968C269914206D1296924
:100B8000006A814202D1012017B0F0BD0020FBE7CE
:100B9000C075FF1F00F8FF07130726200000002084
:100BA00072B6FEE703494A6901231B041843024356
:100BB0004A61704700200240044A5069044BC90052
:100BC000184001430348014351617047002002402F
:100BD00007E0FFFF0200010030B505494C6901251F
:100BE0002C434C610260BFF36F8F436030BD000047
:100BF0000020024030B50B4C002362690125AD0492
:100C00002A436261EFF3108272B620C95B1C20C0D8
:100C1000DBB2402BF9D32069C003FCD482F31088E7
:100C200030BD000000200240F8B5044600F0D4FDBD
:100C3000012706463F04124D06E0601C04D000F078
:100C4000CBFD801BA04213D228693842F5D1286918
:100C50000C4908400C4929610CD00C49486001201E
:100C6000F8BD601C06D000F0B7FD801BA04201D388
:100C70000320F8BD28694003F3D40020F8BD00002C
:100C800000200240FA830000FB830000A80300203C
:100C9000F0B52FA08BB003C80190002502916846E3
:100CA000057001AE2C4C4AE0E08A002817D0684657
:100CB0000078FFF799FE0746E08A401EE082002F89
:100CC0003DD0384601F02CFE024624A103A8FFF7D0
:100CD00093FA03A802F098FA38460BB0F0BDA07A58
:100CE000002817D06846007801463039092906D80F
:100CF000A18A0A22514308183038A0821FE02C280C
:100D000017D03A2804D1A08A002800D10120E0821F
:100D1000A5720EE0607A6946325C09788A420AD18F
:100D2000401CC0B26072305C002808D1657201209E
:100D3000A072A58203E02B2907D0002060726846CC
:100D400002F080FA0028AFD1C7E70120F6E70000E3
:100D50002B4950442C000000000000200D0A776948
:100D600066692072656D6F74653A2025730D0A00FF
:100D7000FFB589B0002536E01298405DA12837D232
:100D800002011C4B0020694614181C5D0C54401CC9
:100D90001028F9DB0026E80008900A98002437188C
:100DA000E017400F0019C0086946C0008A5D201A8C
:100DB0008021C14009980A4206D0011908980B9A6F
:100DC0000818B9B280B205E0011908980C9A081801
:100DD000B9B280B200F010F8641C082CE0DB761C7D
:100DE000102EDADB6D1C1298FFF7DAFAA842C3D88E
:100DF0000DB0F0BDCC41000810B514464A1C93B2AA
:100E0000421C92B201F004FF204601F061FE10BDC9
:100E1000F8B500270646044640360097307D0D465B
:100E200001280FD001203075206801F069FE0028EC
:100E30000AD0A06D20210843A0650127002030754D
:100E40003846F8BD0220F8BD686802287ED001222D
:100E50002169D207914202D0121D914206D1206829
:100E60002968826A4903490B0A436EE0C206D20E22
:100E70000F20216E904081432868430302D0C307AE
:100E80004BD102E04000C00E48E0830701D50120AD
:100E900044E0430701D5022040E0030701D50320C9
:100EA0003CE0C30601D5042038E0830601D50520C7
:100EB00034E0430601D5062030E0030601D50720C3
:100EC0002CE0C30501D5082028E0830501D50920C1
:100ED00024E0430501D50A2020E0030501D50B20BD
:100EE0001CE0C30401D50C2018E0830401D50D20BB
:100EF00014E0430401D50E2010E0030401D50F20B7
:100F00000CE0C30301D5102008E0830301D51120B4
:100F100004E0400301D5122000E00020904001438E
:100F200021666968E2698808401C904210D82068F0
:100F30002B68826A9C46C906C90E0F238B409A43D0
:100F400063469B001B0F8B401A4300E03BE082622C
:100F50002168AB6828684A69000282431840400152
:100F6000400902434A612868002800DB66E72B4AF3
:100F7000116807239B051940294B984214D10B0295
:100F800012D4C0020143104601F0C6FD264825498F
:100F90000068FFF7E1FA0C21401C484300E0401EC6
:100FA00000900028FBD149E7204B984203D1CB01A8
:100FB00001D4800205E01E4B9842D7D14802D5D417
:100FC0005802014325E001212069C907884202D067
:100FD000091D884206D120682968826A4903490BA5
:100FE0008A43826228680028C0DA0C4A1168072305
:100FF0009B0519400A4B984201D1C00208E00B4BF7
:10100000984201D1800203E0094B9842AED14002E0
:101010008143104601F080FD10E7000008270140E1
:10102000001000B0400D03004C000020004000B84C
:10103000002000B40068006C70470000FEB5002777
:10104000044601973E4602970097002805D02546A2
:10105000A06D2035002802D007E00120FEBD20460B
:1010600000F0FCF8E6655420065520688168C90048
:10107000C90F12D18168724A11400122120711432F
:10108000816071486F490068FFF766FA4000801C74
:1010900000E0401E00900028FBD120688168C90054
:1010A000C90F08D1A16D10221143A165E16D012284
:1010B0001143E165174601F023FDA16DC90601D476
:1010C000002804D0A06D10210843A065B4E0A06DF5
:1010D000FF210131884302210843A065206801F007
:1010E0000BFD00286DD1217EA06889030843617E35
:1010F000CA03A17E4B031A431043226B002A01D07E
:10110000012212031043E26810432269002A02DA26
:101110005200520801E00122520510432A7B52007E
:101120001043019A10432A78012A09D1002922D0BC
:10113000A16D20221143A165E16D01221143E165FA
:10114000616A002906D0FF23C1331940A26A014316
:10115000104608432168CA683C4B1A400243CA60E3
:101160006168029A890F8907E06C0A4310432A7F5D
:10117000012A04D00CE0012109040843E0E7636C74
:10118000226C491C1A43A36C0B43114619430843B4
:1011900021680A692E4B1A4002430A6103216068E4
:1011A000890788420DD0590788420AD049008842F1
:1011B00007D0284A91680F239B04994318400143A4
:1011C00091600021626B206801F0ADFC2249A26BA6
:1011D000206801F0A8FC0F202169C04300291CD021
:1011E0000122520591420AD121688A6A227F920027
:1011F000121FD206D20E9040226E104388622068E1
:101200004069616B4007400F88420BD1E665A06DD5
:1012100080088000401CA0650FE021688A6A0243B4
:101220008A62ECE7A06D0221884310210843A06583
:10123000E06D01210843E06501273846FEBD00004E
:10124000E8FFFF7F400D03004C0000200102DEFF9D
:1012500002FCFF1F0027014004FFFF0710B586B006
:10126000044614216846FFF775F911492068884241
:101270001CD110480268012109050A430260006878
:10128000084005900B484038416B012211434163EF
:10129000406B694610400590122000900320019099
:1012A000002002900520000700F0E2F906B010BD12
:1012B0000024014040100240F8B5044640690D4644
:1012C000082809D02068C068C00707D0A06D202179
:1012D0000843A0650120F8BD082600E0042600F0C0
:1012E0007BFA074615E0681C13D000F075FAC01BA6
:1012F000A84201D8002D0CD120680068304208D1E6
:10130000A06D04210843A06500204034207503200F
:10131000F8BD206800683042E5D0A06D0121490287
:101320000843A065206801F0EFFB0C25002812D0CF
:10133000A07E00280FD12068016809070BD501F0B5
:10134000DFFB012100280AD0A06D20221043A065F8
:10135000E06D0843E065207E00280BD00CE020689B
:101360004268AA434260A06DFF22013290430843C5
:10137000A065F0E7206805600020F8BD70B5044660
:10138000006801F0BDFB002802D00221084670BDB4
:1013900025464035287D01280AD0012028752046A1
:1013A000FFF7C8FA01460020002903D02875EDE7B1
:1013B000022070BDA26D094B1A40FF2301331A436E
:1013C000A265E06523681C221A602875206882687F
:1013D000034B1A40121D8260D8E70000FEF1FFFFA8
:1013E000E8FFFF7F70B5054604464035287D01289B
:1013F00007D001262E752046FFF732FA002802D0CA
:101400000CE0022070BD2046FFF75AFA002805D1F3
:10141000A16DFF22013291433143A165002129755D
:1014200070BD0000F0B5002808D0014620314A798F
:10143000022A05D00422C263002008710120F0BDF9
:10144000026813685B085B001360026813680E246F
:10145000A3431360426C1468FF2301339C43146060
:101460000C4A5568066C1C24264001242746B740C8
:101470003D435560826CC56C5560026D002A05D0F5
:1014800015689D431560826D406D42604C7100206F
:101490000871F0BD00000240F8B50024014620317B
:1014A0004A79022A03D00421C16301242DE0026895
:1014B00013685B085B001360026813680E25AB437A
:1014C0001360426C1368FF250135AB431360104A6B
:1014D0005568066C1C231E4001231F46B7403D4340
:1014E0005560826CC56C5560026D002A06D0166886
:1014F0001D02AE431660426D856D55604B71002232
:101500000A71816B002900D088472046F8BD000091
:101510000000024070B5044600F05EF90546601C0C
:1015200002D004480078241800F056F9401BA0426D
:10153000FAD370BD40000020F8B51F4E0446307845
:101540000F4601280AD001203070002070607D20F5
:10155000C000FFF769FB002802D029E00220F8BD97
:10156000042161602268042A03D0491F3960A568FC
:1015700014E00846FFF716FB7D20C000FFF754FB80
:1015800016E029466068FFF717FB7D20C000FFF7D3
:101590004BFB002801D03D6005E06D1CE268A168AE
:1015A0008918A942EDD805494A6902239A434A613C
:1015B00000213170F8BD0000A80300200020024087
:1015C00010B57D200124C000FFF72EFB05484169BE
:1015D0008204114341614069002800DA002420465A
:1015E00010BD000000200240F0B51FB4144C0646A8
:1015F0002078154601280AD00120207000277D2080
:10160000C0006760FFF710FB002803D010E0022045
:1016100005B0F0BD012E0DD029460198FFF7EAFA7A
:101620007D20C000FFF700FB06494A69B2434A61CA
:101630002770EDE72A46039B0198FFF7CDFAEFE705
:10164000A803002000200240064900204A69002A21
:1016500007DA054A8A60054A8A604969002900DA82
:10166000012070470020024023016745AB89EFCD80
:10167000F0B5002303249AE02A4601259D402A4024
:101680007ED00E79B607B60F012E01D0022E16D1EC
:1016900086682746B4465E00B646B7406646BE43F7
:1016A000B446CF687646B74066463743876046689B
:1016B000AE430D79ED06ED0F9D40354345600D7944
:1016C000ED43AD0708D0C5685F002646BE40B54370
:1016D0008E68BE402E43C6600D79AD07AD0F022D5A
:1016E0000ED1DD08AD002D18AC462D6A5E07F60E52
:1016F0000F27B740BD430F69B7402F4365462F62A0
:1017000005685F002646BE40B5430E79B607B60FA2
:10171000BE402E4306604D68AD03AD0F46D09E0817
:10172000264DB6007519AC462D6E9E07F60E0F2796
:10173000B740BD4305273F07B84201D100270FE05E
:101740001F4FB84201D101270AE01E4FB84201D114
:10175000022705E01C4FB84201D1032700E005270E
:10176000B7402F43154D664637662D684E68954342
:10177000F60200D51543114F3D607D68954300E0AA
:1017800014E04E68B60200D515437D600B4D8035E0
:101790006E684F689643BF0300D516436E602E688F
:1017A0004F689643FF0300D516432E605B1C0A6802
:1017B0001546DA4000D05FE7F0BD00000018024097
:1017C0000004005000080050000C0050002A01D016
:1017D00081617047816270470148806870470000EE
:1017E00040000020024881680278891881607047B3
:1017F0004000002010B508480024016882151143FC
:101800000160032000F00AF8002801D0012401E063
:1018100000F028F8204610BD0020024070B50F4EA1
:10182000002431780546002915D07D20C000FEF740
:1018300093FE01460A480068FEF78EFE00F0F6FBB4
:10184000002808D1042D06D200222946401E00F0AF
:101850002BF8756000E00124204670BD4000002098
:101860004C00002008B509480168012211430160BD
:1018700000681040009005484038C26B01040A43DC
:10188000C263C06B0840009008BD000040100240D9
:10189000002805DBC106C90E012088400149086007
:1018A0007047000000E100E010B502F023FB10BD1E
:1018B00010B50F4C2168032252029143014321606D
:1018C000C11FFF39FA390ED10A4806210068484382
:1018D0000949FEF741FE401C02E0002805D0401EE9
:1018E00061694905F9D4002010BD032010BD000036
:1018F000007000404C00002040420F00F8B5044644
:10190000006800264D4D800358D54C4800274038CC
:10191000C06BC00009D449484038C26B01040A4377
:10192000C263C06B084001270090454801688215DA
:1019300011430160FFF750FF009005E0FFF74CFFF7
:101940000099401A022825D83D480068C005F5D501
:10195000E8690321090208400FD0616981420CD077
:10196000E86903210902EA698843012109040A435D
:10197000EA61EA698A43EA61E861C0070FD0FFF7CC
:101980002BFF009008E0FFF727FF0099411A2D4830
:10199000814201D9032609E0E8698007F3D5E869A7
:1019A00003210902884361690843E861002F05D0DB
:1019B00022484038C26B01048A43C2632078C007C2
:1019C00005D06869616880088000084368612078F4
:1019D000800606D56869032109038843A168084386
:1019E00068612088400411D56869216980008008F9
:1019F00008436861012120698907884206D10F48A0
:101A00004038C168012212041143C16020880005DA
:101A100012D56869032189038843E1680843686136
:101A20000121E0688903884206D104484038C16832
:101A3000012212041143C1603046F8BD401002403B
:101A40000070004088130000F8B50F46060043D030
:101A50004D4D28684007400FB84213D22868C0088F
:101A6000C00038432860FFF7B7FE044605E0FFF7E3
:101A7000B3FE011B4548814261D828684007400FEA
:101A8000B842F4D13068424C81070DD5400704D5E7
:101A9000A068072109030843A060A0680F2109027C
:101AA0008843B1680843A0603078C00732D07068BE
:101AB00001280AD002280BD000280FD03449403129
:101AC00003280ED0C969890704E02168890301E071
:101AD00021688901002906DB0120F8BD216849053C
:101AE000F8E7096AEFE7A168C908C9000143A160E6
:101AF000FFF772FE009006E0FFF76EFE0099411AB4
:101B0000224881421BD8A068382108407168C9006A
:101B10008842F1D128684007400FB84217D91A48C7
:101B20000168C908C90039430160FFF755FE054641
:101B300007E0FFF751FE411B1448814201D9032001
:101B4000F8BD114800684007400FB842F1D1307825
:101B5000400706D5A068072109038843F1680843B8
:101B6000A06000F031F8A1683C2289091140094ABF
:101B7000515CC906C90EC84007490860074800689B
:101B8000FFF74CFEF8BD0000002002408813000063
:101B900000100240205200084C00002044000020A9
:101BA0000648074900688968064A4904490F8900C0
:101BB000515CC906C90EC840704700004C000020A7
:101BC000001002406052000810B5204CA068204A66
:101BD0008006400F16D0A0688006410F50100129E2
:101BE0000FD0A1688906490F022912D0A06880068B
:101BF000400F042823D0A0688006400F032821D07E
:101C0000002010BD206801218004400F8140104653
:101C100012E0E1688B07E1689B0F4906490F491CF8
:101C2000032B00D01046FEF797FCE1684904490EEB
:101C30004843E168490F491CFEF78EFC10BD0120A6
:101C4000C00310BD7D20000210BD00000010024046
:101C50000024F400F8B504007ED020783827C007AF
:101C6000E94D002846D0A868E96838408907890FFF
:101C7000102802D008280BD001E0032908D0012049
:101C80006268000482420AD129680143296015E094
:101C9000286880032ED560680028DDD02AE005235F
:101CA00001211B0489049A422A6802D10A432A604E
:101CB000EAE782432A602868884328606068002831
:101CC0000CD0FFF789FD064604E0FFF785FD801B79
:101CD000642873D828688003F7D50BE0FFF77CFDF4
:101CE000064604E0FFF778FD801B6428F1D82868D9
:101CF0008003F7D42078800769D5A868E968384060
:101D00008A070721920FC902102802D0002813D099
:101D100001E0022A10D0E068002846D028688843F5
:101D20002169084328602868FF21013108432860A1
:101D3000FFF752FD06462CE02A68520502D5E268FC
:101D4000002A89D06A687F231B029A4363691B02B9
:101D50001A436A60002800E08DE00ED128688843AD
:101D6000216908432860286801218004400F8140D0
:101D7000A648FEF7F1FBA6490860A6480068FFF7F1
:101D80004DFD002877D122E0FFF726FD801B0228B9
:101D90009FD828684005F7D568687F2109028843E5
:101DA000616909020843686011E02968FF20013079
:101DB00081432960FFF710FD064605E098E0FFF734
:101DC0000BFD801B022884D828684005F7D42078B2
:101DD000914E00072ED5A8688006400F03280AD030
:101DE000A0690028306A16D0012108433062FFF74D
:101DF000F3FC07460BE0306A80071BD5A06900287A
:101E00009FD017E0FFF7E8FCC01B022870D8306AAB
:101E10008007F7D50EE0400840003062FFF7DCFC99
:101E2000074604E0FFF7D8FCC01B022860D8306AE0
:101E30008007F7D4207840076CD5A8680027800673
:101E4000400F042818D0E86BC00008D4E96B0120CB
:101E500000070143E963E96B0140012700916F48E6
:101E60000168C90519D40168821511430160FFF7A3
:101E7000B3FC00900DE083E0F06980074AD5A068CC
:101E800000287DD046E0FFF7A7FC0099401A022801
:101E90002ED862480068C005F5D5A168012910D088
:101EA00004200529F16911D049084900F161F1695F
:101EB0008143F161A068002816D0FFF78DFC0090E7
:101EC0000EE0F06901210843F061F3E70143F1619D
:101ED000F7E7FFF781FC0099411A5148814265D824
:101EE000F0698007F5D50EE0FFF776FC009007E07B
:101EF0005CE0FFF771FC0099411A4948814255D8CE
:101F0000F0698007F5D4002F04D0E96B01200007A9
:101F10008143E963E069002873D0A9688906490F05
:101F200002294DD0012636060228286805D0B04384
:101F30002860FFF751FC04463AE0B0432860FFF701
:101F40004BFC074604E0FFF747FCC01B02282DD8D6
:101F500028688001F7D4616A206AA26A0843E16AAE
:101F6000120211430843216B0843E9682D4A1140CE
:101F70000843E860286830432860E868012100E0F1
:101F80003DE009070843E860FFF726FC044604E04B
:101F9000FFF722FC001B022808D828688001F7D52B
:101FA0002FE0FFF719FC001B022801D90320F8BD20
:101FB00028688001F5D4E8681B490840E86020E003
:101FC0000128F4D0E868226A8107890F914216D16E
:101FD0007021626A0140914211D17F21A26A0902F7
:101FE0000140120291420AD11F214904E26A0140D4
:101FF000914204D1400F216B4007884201D001205B
:10200000F8BD0020F8BD0000001002400024F400DC
:102010004C000020440000204010024000700040AE
:10202000881300008C80C11FFCFFFEEF094910B52A
:10203000401E884201D9012010BD074C6061032178
:10204000081F01F057FF0020A06107202061002039
:1020500010BD0000FFFFFF0000E000E07047704788
:10206000704770B5040005D025462035687F0028EC
:1020700002D006E0012070BD00202877204600F045
:1020800017F802206877211D206801F065F8012209
:1020900040342272AA77EA7722706270A270E270EE
:1020A00022716271A271E2716A77002070BD000036
:1020B00008B50068094988420FD109480268C91368
:1020C0000A43026000680022084000901146132075
:1020D000FFF7EAFB1320FFF7DBFB08BD0020004001
:1020E00040100240014620314A7F012A01D00120E0
:1020F000704702224A770168CB6801221343CB6004
:1021000000680949884202D00849884207D181689D
:10211000074B1940062905D0DB1F994202D0016800
:102120001143016000207047002C01400004004072
:102130000700010070470000F8B504460068C66853
:1021400005690027A907002913DAB10711D5F91E7F
:10215000016101202077206880698007204602D035
:10216000FFF7E8FF04E000F08BF8204600F089F864
:102170002777680716D5700714D504202168C04357
:10218000086102202077206880698005800F204642
:1021900002D0FFF7CFFF04E000F072F8204600F015
:1021A00070F82777280715D5300713D50820216840
:1021B000C0430861042020772068C069800720465A
:1021C00002D0FFF7B7FF04E000F05AF8204600F015
:1021D00058F82777E80616D5F00614D510202168A0
:1021E000C0430861082020772068C0698005800FFF
:1021F000204602D0FFF79EFF04E000F041F82046A1
:1022000000F03FF82777E80708D0F00706D0012054
:102210002168C0430861204600F034F8280601D444
:10222000A80407D5300605D5216813480861204663
:10223000FFF715FFE80507D5300605D521680F48DB
:1022400008612046FFF70AFF680608D5700606D524
:1022500040202168C0430861204600F01DF8A80610
:1022600008D5B00606D520202168C0430861204665
:10227000FFF7F6FEF8BD00007FDFFFFFFFFEFFFF68
:102280007047704710B500680249884201D100F0DC
:1022900001FF10BD00200040704710B5014680319D
:1022A0000A79012A15D001220A7124228A60026863
:1022B0001368146864086400146001225207934391
:1022C0000022426600680360202088600A71104680
:1022D00010BD022010BD7047704770B5044605461A
:1022E0008034207901281AD0012020712420A06098
:1022F00028680668026852085200026028688268EE
:1023000007235B069A430A438260284600F0C0FF19
:10231000286806602020A0600020207170BD022087
:1023200070BD70B50446054680342079012819D067
:10233000012020712420A0602868066802685208E5
:102340005200026028688268D200D2080A43826084
:10235000284600F09DFF286806602020A06000202D
:10236000207170BD022070BD70477047704700003B
:10237000F8B503680446D96918689A68B94D0E46DD
:102380002E4025468035002E75D0B74EB74F1640EB
:10239000074037436ED0CF0706D0C70504D50127C5
:1023A0001F622B693B432B618B0708D5D30706D0EF
:1023B000276802233B622B6904273B432B614B07B1
:1023C00008D5D30706D0276804233B622B69022770
:1023D0003B432B610B0709D520230340334305D032
:1023E0002668082333622E691E432E610B0509D52A
:1023F000430107D501232668DB0233622B692026BF
:1024000033432B612B69002B42D089060AD520214A
:102410000840C9050A40104304D0616F002901D06B
:1024200020468847286921688968490602D42821FE
:10243000084232D0204601F015F82168886840062D
:1024400027D5EFF31080012282F310888B68402299
:1024500093438B6080F310882868002819D0844942
:1024600081632868FFF718F8002811D02868816B6D
:102470000DE000E017E08E0615D5012720263F0766
:10248000064017403E430ED0616FBFE020468847AC
:10249000F8BD2046FFF76AFFF8BD2046FFF766FF4C
:1024A00000202861F8BDE66E012E7DD1CE067BD5D9
:1024B000C60679D510201862226890682646400624
:1024C0004036002857DA29680B6858680004000C69
:1024D00045D0B78B874242D9F083086800688006F0
:1024E00036D4EFF31080012181F310881168FF23A7
:1024F00001339943116080F31088EFF310800121BC
:1025000081F3108821688A68520852008A6080F33B
:102510001088EFF31080012181F3108821688A6808
:1025200040239A438A6080F310882020E8600020CE
:10253000E066EFF31080012181F3108821680B68B9
:10254000102293430B6080F310882868FEF76AFF1F
:1025500002202067B08BF18B401A81B207E0B18B6B
:1025600081429FD1186880069CD5022020672046B2
:10257000FFF7B1FEF8BDB08BF18B401A81B2F08B42
:102580000028F7D00029F5D0EFF31080012383F362
:1025900010881368FF262136B343136080F3108838
:1025A000EFF31080012200E01BE082F31088226824
:1025B00093682D4EF6433340936080F310882020BB
:1025C000E8600020E0666067EFF31080012282F38C
:1025D0001088226813681025AB43136080F31088BD
:1025E000C3E7CE0208D5560206D5012000051862C1
:1025F0002046FFF7BAFEF8BD0E060BD50127802650
:10260000FF0506403A40164304D0A16F002900D0D0
:102610003CE7F8BD4A0614D5420612D52046EFF332
:102620001081012282F310881A684024A2431A60A4
:1026300081F310882021A9600021816700F06DF9E5
:10264000F8BD0A0205D5420003D52046FFF78CFEEF
:10265000F8BDC901FCD50028FADA2046FFF73CFE98
:10266000F8BD00000F080000010000102001000468
:102670005934000870B5040005D025468035A86897
:10268000002802D006E0012070BD002028712046FD
:1026900000F026F82420A860206801684908490055
:1026A0000160A06A002802D0204600F013FE2046F8
:1026B00001F07AF90128E7D0206841680922D202A6
:1026C00091434160206881682A229143816020689B
:1026D0000168012211430160204600F061FE70BDD7
:1026E000F0B58DB0044614216846FDF733FF18217C
:1026F00005A8FDF72FFF22492068224C022700265B
:10270000012588421CD105A806960595FFF7F6F825
:10271000002801D0FEF744FA1A484030026801212F
:1027200089030A430260006808400B90606B2843ED
:102730006063606BC007C00F0B900320400212E083
:102740001149884219D1E16B012040040143E16342
:10275000E16B01400B91606B28436063606BC007C5
:10276000C00F0B900C20009005200296694601973F
:10277000039604950007FEF77BFF0DB0F0BD000047
:1027800000380140001002400044004070B58C2326
:102790001B58202B01D0022070BD00290BD0002A2D
:1027A00009D0012483682403A34206D10369002BC6
:1027B00003D1CB0701D0012070BD0023C36604689C
:1027C00063681B020BD5EFF31083012585F3108896
:1027D00025680126B6063543256083F3108801F08D
:1027E00097F970BD10B5134A0168134891420ED194
:1027F00042798179C379491C4906490E994203D02F
:102800000E4B84791A55817100F00CFD10BD0C4AF5
:102810009142FBD1027AC189038A491CC9B299420B
:1028200004D0064BC48980331A55C18100F020FDC5
:1028300010BD0000003801400000002050000020C2
:1028400000440040FFB5064604468036B06883B0B9
:102850000D46202802D0022007B0F0BD002D3BD04D
:102860000598002838D00120A1680003814204D1D6
:102870002069002801D1E8072ED1002030612120F5
:10288000B060FEF7A9FF0190274640370598B8824F
:102890000598F8820120A1680003814202D12069D5
:1028A000002802D00295002522E0002002901FE0BF
:1028B00000228021204601F0C1F9002825D102988C
:1028C00000280BD02168007888620298401C029092
:1028D000B1682120884308D00120BDE728882168FD
:1028E000C005C00D8862AD1CF2E7F88A401EF88270
:1028F000F88A019B002806980090D9D10022402137
:10290000204601F09BF9002803D02020B06003206E
:10291000A2E72020B06000209EE77047FEE700009D
:1029200000B5030001F0D8FA091606080A0C0E10CB
:102930001214160008A000BD08A000BD09A000BD2B
:102940000AA000BD0BA000BD0CA000BD0DA000BDE5
:102950000EA000BD0FA000BD55500000444F574EC3
:10296000000000004C454654000000005249474812
:102970005400000043454E54455200005341564513
:102980000000000052455345540000004F5554507C
:10299000555400004E4F4E450000000030B587B042
:1029A0000C4605462022102101A8FDF7ACFD0020B1
:1029B00069460875014601AA04E05054491CC9B291
:1029C000102902D2605C0028F7D100230092034A4C
:1029D00029461846FEF7CCF907B030BDFFFF0000CE
:1029E00070B5044D0C46E862FEF7F6FE0019286348
:1029F00070BD00000000002070B5244C88B022A5F6
:102A0000207900F047FA0646207800F033FA0246B3
:102A100033461FA16846FDF7EFFB69460020FFF72C
:102A2000BDFF1EA16846626AFDF7E6FB69461020FD
:102A3000FFF7B4FFA389E2781BA16846FDF7DCFB32
:102A400069462020FFF7AAFF1BA16846E369A26937
:102A5000FDF7D2FB69463020FFF7A0FF1AA16846B8
:102A6000226AFDF7C9FB69464020FFF797FFFEF792
:102A7000B3FE216B884200D2E56A50202946FFF759
:102A80008DFF08B070BD00000000000000000020B5
:102A90004D6F64653A257320257300004C696768A3
:102AA000743A256C750000004C6576656C3A2564B7
:102AB0002050574D3A25640054313A256C75205406
:102AC000323A256C7500000054333A256C750000CD
:102AD00070B50125ED03052636070446B5620549A4
:102AE00010208861200A00F0BDFAE0B200F0BAFAC6
:102AF000B56170BD000400508068C007C00F70470A
:102B000080684007C00F7047C0680005800F01D083
:102B10000020704701207047026807239B059A43F5
:102B20000A430260704710B543690424214007241A
:102B30008C40A3438A401343436110BD70B50646E1
:102B40007F2300211A46084600F062F82C2000F08E
:102B50009BF8002400253046FFF7BAFF6D1C802D3E
:102B6000F9D3641C802CF5D370BD000010B50A2089
:102B7000FEF7D0FC012240212448FEF727FE112059
:102B800000F082F80320FEF7C5FC112000F07CF86D
:102B90000520FEF7BFFC362000F076F80520FEF792
:102BA000B9FC362000F070F80520FEF7B3FCC82011
:102BB00000F05AF80520FEF7ADFCC82000F054F8EC
:102BC0000520FEF7A7FC3A2000F05EF80520FEF78E
:102BD000A1FC3A2000F058F80520FEF79BFC0520E8
:102BE00000F042F80520FEF795FC052000F03CF8C7
:102BF0001420FEF78FFC292000F046F80520FEF790
:102C000089FC292000F040F810BD000000040050AD
:102C1000F0B507461C4615460E462A2000F034F84B
:102C2000002000F021F8BF1CF8B200F01DF80020D1
:102C300000F01AF8AD1CE8B200F016F82B2000F0F6
:102C400023F8002000F010F8F61CF0B200F00CF8A9
:102C5000002000F009F8E41CE0B200F005F82C2098
:102C600000F012F8F0BD000030B50125ED03052499
:102C70002407A562034A1021916100F0F3F9A561D0
:102C800030BD00000004005030B50125ED030524DF
:102C90002407A562034A1021916200F0E3F9A561BF
:102CA00030BD0000000400503EB5002419480094D7
:102CB00001941749029401608460C46009050461AD
:102CC0004160042141610476447684760121C1612A
:102CD000014620310C70446284620C730722426307
:102CE000046382630C77C464FEF7A8F9002801D05E
:102CF000FDF756FF08480090019469460294054884
:102D0000FEF786F8002801D0FDF74AFF3EBD00001F
:102D100000240140D001002010000010F0B587B061
:102D200014216846FDF716FC1B48426B20210A431C
:102D30004263426B0A400592416B0125294341637E
:102D4000416B29400591426B02210A434263406B6B
:102D5000124F0840059000227F213846FEF736FDCD
:102D6000EE030520002231460007FEF72FFD7F20ED
:102D70000024009002946946019503943846FEF7BA
:102D800077FC05200294694600070096019503949C
:102D9000FEF76EFC07B0F0BD0010024000040050CA
:102DA00010B50A48084901600F2141600021816087
:102DB00031220161C2608161FFF753F9002801D01F
:102DC000FDF7EEFE10BD00000020004034020020A0
:102DD00010B5184816490160E121490241600021FF
:102DE0008160C16001618161C16101620C22416247
:102DF00042618162FFF73EFC002801D0FDF7D0FE62
:102E000000210C48FFF78DFA002801D0FDF7C8FE1D
:102E100000210848FFF761FA002801D0FDF7C0FE45
:102E20000448FFF73AFA002801D0FDF7B9FE10BDBB
:102E3000003801408002002010B50D480B490160A8
:102E4000E1214902416000218160C160016181612D
:102E5000C16101620C22416242618162FFF70AFC9A
:102E6000002801D0FDF79CFE10BD0000004400408A
:102E700014030020012801D001A0704702A0704770
:102E80004155544F000000004D414E55414C00004B
:102E9000FEE70000012801D001A0704702A07047A2
:102EA000535445500000000050574D000146064A5B
:102EB00000204300D35A8B4204D2401CC0B21428D5
:102EC000F7D3142070470000CE510008142800D911
:102ED000142002494000085A70470000CE510008F3
:102EE00070470000F8B53C4C0025012723780528E1
:102EF00021D021468A784978032828D0042833D065
:102F000021468B69CA69096A01283CD0022843D04E
:102F10007D26360106284CD0072853D0082809D131
:102F20002079002853D0257131462CA0FFF758FD99
:102F3000FFF762FDF8BD002B01D02570F8BD2770AA
:102F4000E0786070A089FFF7B1FFA070F8BD012B99
:102F5000FCD12079012803D00029F7D0491E0BE0CD
:102F6000002AF3D0521E0CE0012BEFD1207901286A
:102F700004D00329EAD2491C6170F8BD142AFCD29E
:102F8000521CA270F8BD184864318142FAD86433EB
:102F90006432A361E2610AE0642B01D9643BA3615E
:102FA000642A01D9643AE2616429EBD96439216267
:102FB000F8BDFDF789FD0028314601D00BA0B5E72B
:102FC0000EA0B3E7FDF772FD31460FA0AEE7277103
:102FD000314610A0AAE70000000000204F75747071
:102FE0007574205354455000FF0F0000436F6E6608
:102FF00069672053415645440000000053617665DF
:10300000204641494C45440044656661756C742016
:1030100052414D004F75747075742050574D00002B
:103020003EB5002101910C460291009069460C4882
:10303000FDF7EEFE002801D072B6FEE70848FEF765
:103040009DF964210648FEF737F9002803D10448AA
:10305000FDF7F0FF04460248FEF7C4F920463EBDE6
:10306000D001002030B50821084B20240A4605066F
:1030700001D59C6100E09C629A619A624006491EFB
:10308000000E0906090EF2D130BD00000004005008
:103090007047000070B5114C207901281DD1608A5D
:1030A000401C80B26082C82801D300206082A589BC
:1030B0000B4E012204213046FEF788FB608AA842AD
:1030C00001D3012200E0002202213046FEF77EFB00
:1030D000012211463046FEF779FB70BD000000204A
:1030E0000004005010B5FEF77DFB10BD10B592B086
:1030F00034216846FDF72EFA002401200D940E9429
:103100000F9440021094FEF7D3FB02200090C00100
:10311000039040200590049407946846FEF79AFDBA
:10312000002801D072B6FEE707200D900E940F9490
:10313000002110940DA8FEF787FC002801D072B67C
:10314000FEE712B010BD704710B50248FEF7F4FF5D
:1031500010BD00003402002070B502681A4B1B4EEF
:10316000984201D0B04203D17024A2434C6822435C
:10317000174C184D984208D0B04206D0164EB042B7
:1031800003D0A04201D0A84204D103263602B243A4
:10319000CE6832438026B2434E6932438E68C6629F
:1031A0000E688662984203D0A04201D0A84201D1A5
:1031B0000969016301680423194301600121416128
:1031C000BFF34F8F026070BD002C0140000400402F
:1031D0000044014000480140002000400849CA79ED
:1031E0008B799A4201D100207047064ACB79D25C94
:1031F0000270C879401C4006400EC871012070471B
:10320000000000205000002010B50446FDF7C8F86B
:1032100082B2642321460248FFF714FB10BD000070
:103220008002002010B5012204490548FFF7AEFADC
:10323000002801D072B6FEE710BD00000500002096
:103240008002002008490A8ACB899A4201D10020D5
:103250007047064A0B8AD25C0270088A401CC0B2D2
:10326000088201207047000000000020D0000020EC
:1032700010B5012204490548FFF788FA002801D05B
:1032800072B6FEE710BD0000080000201403002005
:10329000F8B50446416E4034002915D000688168B5
:1032A000806809014D0F0A4E400F3746315C083FD8
:1032B000385CC000FDF750F96085785D715DC00035
:1032C000FDF74AF92085F8BD01206085FAE7000086
:1032D0001852000810B5018D090707D501684A6822
:1032E0000123DB039A43836B1A434A60018DC907AC
:1032F00007D001684A6801235B049A43C36A1A43F2
:103300004A60018D890707D501684A6801231B04BB
:103310009A43036B1A434A60018D490707D5016838
:103320004A6801239B049A43436B1A434A60018D08
:10333000C90607D50268916801231B039943C36B33
:1033400019439160018D890607D501688A680123B8
:103350005B039A43036C1A438A60018D490612D5B8
:1033600003685A6801210905446C8A4322435A6064
:10337000426C8A4207D10268516803235B05994376
:10338000836C19435160018D090607D501684A68AD
:103390000123DB04C06C9A4302434A6010BD000065
:1033A000FEB505460026803504462E61FEF714FA68
:1033B00001902068006820270007002817DA2548B8
:1033C0000090002239042046019B00F037FC0028C1
:1033D0000DD0EFF31080012181F3108821680A6875
:1033E00080239A430A6080F31088AF6028E0206849
:1033F0000068400727D51748009001210022890561
:103400002046019B00F01AFC00281CD0EFF310802E
:10341000012181F3108821680A68FF2321339A4330
:103420000A6080F31088EFF31080012181F3108887
:1034300021688A68520852008A6080F31088EF6021
:103440002E710320FEBDAF60EF60E66626672E7129
:103450000020FEBDFFFFFF0110B5806AFEF786FF6A
:1034600010BD000010B5EFF31081012282F3108827
:1034700002681368FF242134A343136081F310888A
:10348000EFF31081012282F31088026893680D4CDB
:103490002340936081F31088C16E01290BD1EFF3B3
:1034A0001081012282F31088026813681024A3435C
:1034B000136081F3108820228C210A500021C166FC
:1034C000416710BDFEFFFFEF70B501464031034676
:1034D00080330C8CDD680268222D04D090690821AD
:1034E0000843906170BD526A856D22402A80826DCA
:1034F000921C8265CA8B521ECA83CA8B002AF1D1E4
:10350000EFF31082012484F3108804682568FF26F5
:103510002136B543256082F31088EFF31082012431
:1035200084F310880468A5686D086D00A56082F3B7
:1035300010882022DA60002343670367046862680A
:1035400012020BD5EFF31082012585F31088256850
:103550000126B606B543256082F31088C26E012AA3
:1035600002D0FFF73FF970BDC366EFF3108201236D
:1035700083F310880468256810239D43256082F337
:1035800010880268D469E443E40600D41362898B8E
:10359000FEF7A1FE70BD0000F0B5064604464036B9
:1035A00089B0308C01902068C769016806918168F4
:1035B000254680350491E968222905D081690822D1
:1035C0001143816109B0F0BD308D05903DE0206868
:1035D000406A019AA16D10400880A06D801CA06512
:1035E000F08B401EF0832068C769790729D0F9075E
:1035F00007D00699C90504D501210162286908434D
:103600002861B80709D50498C00706D021680220B0
:1036100008622869042108432861780709D50498BD
:10362000C00706D0216804200862286902210843E7
:1036300028612869002804D02046FEF797FE002064
:103640002861F08B002826D00598002801D0B80604
:10365000BDD4F08B0028B5D0318D8142B2D9EFF3C3
:103660001080012181F3108821688A6801231B07DB
:103670009A438A6080F310882D486067EFF31080CA
:10368000012181F3108821680A6820231A430A6007
:1036900080F3108896E7EFF31080012181F3108802
:1036A00021680A68FF2301339A430A6080F3108877
:1036B000EFF31080012181F3108821688A681D4B87
:1036C0001A408A6080F310882020E860002161673A
:1036D00021672268506800020BD5EFF310800123A8
:1036E00083F3108813680125AD06AB43136080F3A4
:1036F0001088E06E012803D02046FFF773F8A8E792
:10370000E166EFF31080012181F3108822681368CD
:1037100010218B43136080F310882068C269D24364
:10372000D20600D40162B18B2046FEF7D4FD90E7AB
:10373000C9340008FEFFFFEF70B501464031034673
:1037400080330C8CDD680268222D04D0906908213A
:103750000843906170BD526A2240846D2270826D70
:10376000521C8265CA8B521ECA83CA8B002AF1D1B1
:10377000EFF31082012484F3108804682568FF2683
:103780002136B543256082F31088EFF310820124BF
:1037900084F310880468A5686D086D00A56082F345
:1037A00010882022DA600023436703670468626898
:1037B00012020BD5EFF31082012585F310882568DE
:1037C0000126B606B543256082F31088C26E012A31
:1037D00002D0FFF707F870BDC366EFF31082012334
:1037E00083F310880468256810239D43256082F3C5
:1037F00010880268D469E443E40600D41362898B1C
:10380000FEF769FD70BD0000F0B50646044640367F
:1038100089B0308C01902068C76901680691816881
:10382000254680350491E968222905D0816908225E
:103830001143816109B0F0BD308D05903DE02068F5
:10384000406A01990840A16D0870A06D401CA065F8
:10385000F08B401EF0832068C769790729D0F907EB
:1038600007D00699C90504D50121016228690843DA
:103870002861B80709D50498C00706D0216802203E
:1038800008622869042108432861780709D504984B
:10389000C00706D021680420086228690221084375
:1038A00028612869002804D02046FEF75FFD00202B
:1038B0002861F08B002826D00598002801D0B80692
:1038C000BDD4F08B0028B5D0318D8142B2D9EFF351
:1038D0001080012181F3108821688A6801231B0769
:1038E0009A438A6080F310882D486067EFF3108058
:1038F000012181F3108821680A6820231A430A6095
:1039000080F3108896E7EFF31080012181F310888F
:1039100021680A68FF2301339A430A6080F3108804
:10392000EFF31080012181F3108821688A681D4B14
:103930001A408A6080F310882020E86000216167C7
:1039400021672268506800020BD5EFF31080012335
:1039500083F3108813680125AD06AB43136080F331
:103960001088E06E012803D02046FEF73BFFA8E751
:10397000E166EFF31080012181F31088226813685B
:1039800010218B43136080F310882068C269D243F2
:10399000D20600D40162B18B2046FEF79CFC90E772
:1039A00039370008FEFFFFEFF8B50446806821694B
:1039B000E2690843616900251143226808431168E0
:1039C0004B4B1940014311602068416803221203E8
:1039D0009143E26811434160A169206A084321686C
:1039E0008A68444B1A4002438A602068C16A626A4E
:1039F000090909011143C1623F492068884211D178
:103A00003E4840698007800F0FD0012806D0022869
:103A100002D003280BD103E0022109E0042107E0D2
:103A2000082105E03649884201D1002100E010213B
:103A30000120E369C003334A334E344F834227D118
:103A4000002906D0022907D0042907D008293FD130
:103A500008E0FEF7A5F803E0104603E0FEF7B4F82F
:103A600000283AD0616A4900715AFCF775FD616817
:103A700040004A088018FCF76FFD01461039B94232
:103A800026D82249491C01400007400F084322E084
:103A9000002906D0022907D0042907D0082917D108
:103AA00008E0FEF77DF803E0104603E0FEF78CF82F
:103AB000002812D0616A4900715AFCF74DFD616817
:103AC0004A088018FCF748FD01461039B94201D96F
:103AD000012502E080B22168C86020460121403003
:103AE0004185018500206067A0672846F8BD000079
:103AF000F369FFCFFFF4FF1100380140401002408E
:103B0000004400400024F400F8510008EFFF0000DA
:103B1000F0B58165014640318A83CA830025456737
:103B2000012483682403FF26A34204D10369002BE8
:103B300013D13D4B0AE07F27002B09D00126360721
:103B4000B3420CD10369002B05D03F230B8407E05F
:103B50000369002B01D00F8402E00E8400E00D8485
:103B6000034680331D612225DD60EFF310830125BC
:103B700085F310880568AE6801273E43AE6083F385
:103B80001088436E7D07AB4229D1098D914226D81A
:103B90008168A14202D1016900291DD023494167F2
:103BA000016900290CD0EFF31081012282F3108803
:103BB00002681368FF2401342343136081F31088E3
:103BC000EFF31081012282F31088006882680123DC
:103BD0001B071A43826023E015494167F0E78168BB
:103BE000A14202D1016900290ED012494167016941
:103BF00000290BD0EFF31081012282F310880068B6
:103C00000268FF23213309E00B494167EFF310817C
:103C1000012282F310880068026820231A430260A0
:103C200081F310880020F0BDFF0100000938000872
:103C30009935000839370008C9340008FFB581B04C
:103C400005460E46044680350A9F32E0781C30D087
:103C5000FDF7C2FD0499401AB84218D8002F16D0BB
:103C600020680168490724D5802E22D0402E20D01C
:103C7000C169C94309070CD4082606622046FFF72C
:103C8000F1FB2E6100202871012005B0F0BD03205A
:103C9000FBE7C069C04300050BD401202168C002C6
:103CA00008622046FFF7DEFB2020286100202871F3
:103CB000EDE72068C1693046884305D000210398AC
:103CC0008142C3D00020E0E70121F8E710B50248A7
:103CD000FEF74EFB10BD00008002002010B5024828
:103CE000FEF746FB10BD000014030020F3B50746A5
:103CF00081B00020694608700646FDF76DFD054657
:103D00002C461AE06846FFF79DFA00280AD00126E3
:103D1000FDF762FD04466423012269460E48FEF762
:103D200091FD0AE0002E05D0FDF756FD011B02981B
:103D300081420CD20120FDF7EDFBFDF74DFD401B4C
:103D4000B842DFD3002E02D104A0FFF75DFA09A02C
:103D5000FFF75AFAFEBD0000800200202874696D4A
:103D6000656F75742F6E6F20726573706F6E7365FB
:103D7000290D0A000D0A2877696669207278206586
:103D80006E64290D0A000000F0B59BB0002668465D
:103D900006703446FDF720FD7D270546FF0014E040
:103DA0006846FFF71BFA00280AD0684600780D28FD
:103DB00010D00A280ED001A90855641CE4B202E014
:103DC0000120FDF7A7FB602C04D2FDF705FD401B89
:103DD000B842E5D301A8065505A0FFF715FA002C57
:103DE00004D001A800F010F81BB0F0BD05A0F9E761
:103DF0000D0A7769666920636D6420726561647974
:103E00000D0A000041540000F1B59AB01A98FCF771
:103E1000C7FAC4B2002768461F4E78250770602C89
:103E200000D96024224601A81A99FCF72BFB3846DA
:103E300001AF385519A0FFF7E7F901A8FFF7E4F93A
:103E400019A0FFF7E1F96846FFF7FCF90028FAD15D
:103E50000D203855641CE0B20A213954401CC2B20E
:103E60007D23DB0001A91448FEF7ECFC082213A116
:103E70001A98FCF7B7FA002806D0082212A11A985F
:103E8000FCF7B0FA002801D1124E354629463046DB
:103E9000FFF72CFF1BB0F0BDE02E00000D0A776984
:103EA00066692074783A20000D0A77696669207285
:103EB000783A0D0A000000001403002041542B43FF
:103EC000574A41500000000041542B43574C415089
:103ED000000000003075000030B47446641E257880
:103EE000641CAB4200D21D46635D5B00E31830BC2E
:103EF000184700008307FF22DB0E9A408907090E4E
:103F00009940002808DB830809489B001B181868A3
:103F100090430843186070470007000F0838830873
:103F200004489B001B18D86990430843D861704728
:103F300000E400E000ED00E0C0B0FDF75BFCFFF73F
:103F4000D5F8FEF7EBFEFEF743FFFEF7ADFEFEF7FA
:103F500027FFFEF771FF85488549008C4006C00B9E
:103F600045182846FCF780FD824C002806D0A8683A
:103F7000A061E868E0612869206201E0FCF796FD35
:103F8000002211461B20FDF78FFC1B20FDF780FC53
:103F9000002211461C20FDF787FC1C20FDF778FC51
:103FA000FFF740F9FFF764F97348FEF79BF8002824
:103FB00001D072B6FEE701220520D1030007FDF70C
:103FC00005FCFEF7D3FD0020FEF7B8FDFEF714FD5B
:103FD0006AA0FFF719F9FDF7FFFB054600206946C7
:103FE0000870074606460CE068467F1C0078FFB262
:103FF000402810D0FCF7F8FC002800D00646802F9F
:1040000004D26846FFF7EAF80028EDD1FCF740FE3D
:10401000002E04D102E0FFF7B7FEF0E70646304677
:10402000FEF760FF606B281A64280FD3624865634F
:10403000FEF7F6FF616A002903D04A0089180818C4
:10404000800860625D48FEF7EBFFA06220780028E0
:1040500003D06078E070A07824E0616AA269084625
:10406000914201D200210AE0E369994201D2012183
:1040700005E0236A994201D2022100E00321E170A8
:10408000904201D800200DE0216A884201D314201B
:1040900008E0891A801A142250434A088018FCF755
:1040A0005BFAC0B2FEF712FFA081207900281BD175
:1040B000E778002F08D0002204214148FDF786FB55
:1040C000022F03D2012202E00122F5E700220221A1
:1040D0003B48FDF77BFB032F01D2012200E00022C9
:1040E00001213748FDF772FBA06BFF21281AF5313B
:1040F000884202D3A563FEF77FFCE06B7D21281A7E
:10410000C900884202D2002E00D164E7E563A0898D
:10411000FEF7CCFE05463046FEF702FC0646207947
:10412000FEF7B8FE07462078FEF7A4FE02462046BA
:1041300018300BC80595089307910690A089E1787F
:10414000A36A0193039102960490606A00903B4633
:104150001C4909A8FCF750F809A8FCF721F982B21C
:10416000642309A91848FEF76DFB34E7C075FF1FEB
:1041700000F8FF0700000020340200200D0A4C6FF9
:1041800063616C3A206D2F672F612F642F772F7337
:104190002F702F722C2057694669204154206C697A
:1041A0006E65207061727365722076323A204041EC
:1041B000542B474D520D0A0010000010020000045D
:1041C000000400508052000880020020000000001F
:1041D00000000000000000000000000000000000DF
:1041E00000000000000000000000000000000000CF
:1041F00000000000000000000000000000000000BF
:1042000000000000000000000000000000000000AE
:10421000000000000000000000000000000000009E
:10422000000000000000000000000000000000008E
:10423000000000000000000000000000000000007E
:104240000000000000000000000000000000001856
:1042500008C80808000000000000000000007F609F
:1042600060606060606060E060200000000000004E
:10427000000000000000000000000000000018180E
:1042800018101010000000000000000000000000E6
:10429000000000000808080C0C0C000000000000E2
:1042A00000000000000000000000000000006C386A
:1042B00010007CC6701CC67C000000000000103896
:1042C0006C00780C7CCCCC76000000000000000074
:1042D00000007CC670C0C67C00000000000000002A
:1042E00000006C967CD0D66C00000000000000003E
:1042F00000007CC60606C67C0000000000000038F6
:104300006CC6C6FEC6C66C38000000000000000087
:10431000001038286C44C6C60000000000000000F1
:1043200000007CC606FEC67C000000000000000005
:104330000000DC666666F60606663C000000006C5F
:1043400038F80C7EC6C6C67C000000000000000ED7
:104350001B18181818181818D87000000000000052
:1043600000FE860C180C0606C67C0000000076DCF9
:104370000000780C7CCCCC7600000000000076DCDD
:1043800000007CC60606C67C00000000000076DC4B
:104390000000DC6666666666000000000000000043
:1043A000000076999F98996F0000000000000000BF
:1043B000000000000000000C0606000000000000E5
:1043C0000000000000003C66663C000000000000A9
:1043D00000000000000000000000000000000018C5
:1043E0003C3C3C1818001818000000000000C6C62D
:1043F000C644000000000000000000000000006C47
:104400006CFE6C6C6CFE6C6C000000000018187C7C
:10441000C6C2C07C0686C67C1818000000000000DA
:1044200000C3C60C183063C3000000000000003851
:104430006C6C3876DCCCCC760000000000003030AC
:1044400030600000000000000000000000000018C4
:1044500030606060606030180000000000000018EC
:104460000C06060606060C180000000000000000FE
:10447000006C38FE386C00000000000000000000F6
:104480001818187E1818180000000000000000001E
:1044900000000000001818183000000000000000A4
:1044A000000000FE0000000000000000000000000E
:1044B00000000000000018180000000000000002CA
:1044C000060C183060C08000000000000000007C76
:1044D000C6CEDEF6E6C6C67C00000000000000186E
:1044E000387818181818187E000000000000007CAA
:1044F000C6060C183060C6FE000000000000007CFC
:10450000C606063C0606C67C000000000000000C43
:104510001C3C6CCCFE0C0C1E00000000000000FED9
:10452000C0C0C0FC0606C67C0000000000000038C9
:1045300060C0C0FCC6C6C67C00000000000000FED3
:10454000C6060C1830303030000000000000007C3F
:10455000C6C6C67CC6C6C67C000000000000007C43
:10456000C6C6C67E06060C780000000000000000EB
:1045700018180000001818000000000000000000DB
:104580001818000000181830000000000000000695
:104590000C18306030180C0600000000000000000D
:1045A00000007E00007E00000000000000000060AF
:1045B00030180C060C183060000000000000007C71
:1045C000C6C60C1818001818000000000000007C77
:1045D000C6C6DEDEDEDCC07C00000000000000108D
:1045E000386CC6C6FEC6C6C600000000000000FC4F
:1045F0006666667C666666FC000000000000003CA3
:1046000066C2C0C0C0C2663C00000000000000F8E6
:104610006C66666666666CF800000000000000FECE
:1046200066626878686266FE00000000000000FEB6
:1046300066626878686060F0000000000000003C7E
:1046400066C2C0C0DEC6663A00000000000000C6B8
:10465000C6C6C6FEC6C6C6C6000000000000003CB6
:10466000181818181818183C000000000000001E48
:104670000C0C0C0C0CCCCC7800000000000000E608
:10468000666C6C786C6C66E600000000000000F060
:1046900060606060606266FE00000000000000C6AE
:1046A000EEFED6C6C6C6C6C600000000000000C6A4
:1046B000E6F6FEDECEC6C6C60000000000000038EA
:1046C0006CC6C6C6C6C66C3800000000000000FC00
:1046D0006666667C606060F0000000000000007CA0
:1046E000C6C6C6D6DE7C0C0E00000000000000FC32
:1046F0006666667C6C6666E6000000000000007C72
:10470000C6C660380CC6C67C000000000000007EF3
:104710005A1818181818183C00000000000000C6AD
:10472000C6C6C6C6C6C6C67C00000000000000C6DD
:10473000C6C6C6C6C66C381000000000000000C621
:10474000C6C6C6C6D6FEEEC600000000000000C603
:10475000C6C66C386CC6C6C600000000000000C6A5
:10476000C6C66C383838387C00000000000000FEF7
:10477000C68C183060C2C6FE000000000000003C7D
:10478000303030303030303C00000000000000801D
:10479000C0E070381C0E0602000000000000003C63
:1047A0000C0C0C0C0C0C0C3C000000000010386CC5
:1047B000C600000000000000000000000000000033
:1047C000000000000000000000FE0000000030308B
:1047D00018000000000000000000000000000000C1
:1047E0000000780C7CCCCC7600000000000000E0DB
:1047F0006060786C666666DC000000000000000007
:1048000000007CC6C0C0C67C000000000000001C88
:104810000C0C3C6CCCCCCC760000000000000000FE
:1048200000007CC6FEC0C67C000000000000001C2A
:104830003632307C3030307800000000000000005C
:10484000000076CCCCCC7C0CCC780000000000E0E2
:1048500060606C76666666E6000000000000001886
:10486000180038181818183C000000000000000656
:1048700006000E0606060666663C0000000000E024
:104880006060666C786C66E600000000000000382E
:10489000181818181818183C000000000000000034
:1048A000000044FED6D6D6D600000000000000006E
:1048B0000000DC666666666600000000000000001E
:1048C00000007CC6C6C6C67C0000000000000000D8
:1048D0000000DC6666667C6060F00000000000009E
:1048E000000076CCCCCC7C0C0C1E0000000000003C
:1048F0000000DC76666060F0000000000000000050
:1049000000007CC6701CC67C000000000000001087
:104910003030FC303030361C000000000000000059
:104920000000CCCCCCCCCC76000000000000000015
:104930000000C6C6C66C3810000000000000000071
:104940000000C6C6C6D6FE6C0000000000000000D5
:104950000000C66C38386CC6000000000000000083
:104960000000C6C6C6C67E060C7800000000000027
:104970000000FECC183066FE000000000000000EB3
:10498000181818701818180E000000000000001801
:1049900018181800181818180000000000000070FF
:1049A0001818180E18181870000000000000007683
:1049B000DC0000000000000000000000000000001B
:1049C00000000000000000000000000000000000E7
:1049D00000000000000000000000000000000000D7
:1049E00000000000000000000000000000000000C7
:1049F00000000000000000000000000000000000B7
:1051D00001000200040007000B00100017001F0070
:1051E00029003500420051006200740087009A00D7
:1051F000AC00BA00C300C8000100020004000600B1
:1052000008000A000C00100020004000800000018F
:105210000101010307010000080402040801010163
:10522000000000000000000000000000000000007E
:10523000000000000000000000000000000000006E
:105240000100000002000000030000000400000054
:105250000600000007000000080000000900000030
:10526000000000000000000000000000000000003E
:105270000100000002000000030000000400000024
:105280006D6F64653D25732C206F75747075743D6A
:1052900025732C206C696768743D256C752C206B18
:1052A00065795F6164633D256C752C20756172744E
:1052B0005F6B65793D25732C206C6576656C3D25AB
:1052C000642C2070776D3D25642C2070776D5F6CA9
:1052D0006576656C3D25642C2074683D256C752FC2
:1052E000256C752F256C750D0A000000000000006C
:1052F00010530008000000205000000004010008C6
:105300006053000850000020D80900002001000868
:10531000000000000000000000000000000000008D
:105320000000000000000000E8030000FC0800008E
:10533000800C00000000000000000000EC5200089B
:10534000000000000000000000000000000000005D
:105350000100000004000000000000000024F40030
:04000005080000C12E
:00000001FF
