:020000040800F2
:10000000B0070020C1010008852500080F21000865
:1000100000000000000000000000000000000000E0
:10002000000000000000000000000000D9260008C9
:10003000000000000000000087250008DB26000803
:10004000D301000800000000D3010008D30100081C
:10005000D3010008D3010008D3010008D301000830
:1000600000000000D3010008D3010008D3010008FC
:10007000D3010008D3010008D301000800000000EC
:10008000D30100080000000000000000D3010008B8
:1000900000000000D3010008D3010008D3010008CC
:1000A000D3010008D3010008D3010008D3010008E0
:1000B000D301000800000000000000000000000064
:1000C00000F002F800F050F80CA030C808382418EE
:1000D0002D18A246671EAB4654465D46AC4201D180
:1000E00000F042F87E460F3E0FCCB6460126334262
:1000F00000D0FB1AA246AB4633431847783D0000B8
:10010000983D0000103A02D378C878C1FAD8520757
:1001100001D330C830C101D504680C6070470000BD
:100120000023002400250026103A01D378C1FBD813
:10013000520700D330C100D50B60704710B5642959
:1001400002D100F097F810BD752902D100F092F8A5
:1001500010BD732902D100F0A7FA10BD002010BD18
:100160001FB51FBD10B510BD00F0B6FA1146FFF760
:10017000F7FF02F027FD00F0CEFA03B4FFF7F2FF1D
:1001800003BC00F0D5FA000070B505460C461646D3
:1001900002E00FCC0FC5103E102EFAD2082E02D36B
:1001A00003CC03C5083E042E07D301CC01C5361F7E
:1001B00003E021782970641C6D1C761EF9D270BD95
:1001C0000748804707480047FEE7FEE7FEE7FEE7EF
:1001D000FEE7FEE704480549054A064B7047000064
:1001E0003D270008C1000008B0010020B007002032
:1001F000B0030020B00300200FB41CB5074B06AAC3
:100200007B4469460090059800F023FA0020694677
:1002100000F032FA1CBC08BC04B01847750400009A
:1002200070B50C460546012A05D02878800600D511
:10023000EA69002302E0012305E05B1C934202D23D
:10024000E05C0028F9D1A869E618C01AA861286AFC
:10025000C01828622846C046C04604E06A68207874
:10026000A968641C9047B442F8D32846C046C046EB
:1002700070BD0000F7B5002575291068009914A617
:1002800011D0C046C046002802DA404211A608E05C
:10029000009909688A0701D50FA602E0490704D52D
:1002A0000EA6012501E0C046C046009F0024243769
:1002B00004E000F0FDF930313955641C0028F8D114
:1002C0002B4632462146009800F065F9FEBD00003D
:1002D000000000002D0000002B00000020000000A6
:1002E000F8B50F460546002028622846E968884789
:1002F000002852D0252802D06A68A96849E0E96838
:100300002846002688476C2804460AD0682C08D066
:100310004C2C37D06A2C33D0742C33D07A2C31D07B
:1003200015E0E968064628468847B042044608D1E9
:100330006C2E25D00126B6022846E9688847044677
:1003400005E06C2E02D0FF26013600E04026002C8E
:1003500023D020464138192803D80120C002064383
:1003600020343A4628462E602146FFF7E7FE002853
:100370000CD0012808D0FF1DFF08FF000837B4E7A4
:100380008026D9E70026D7E73F1DAEE76A682046FA
:10039000A9689047286A401CA6E7286AF8BD0000B3
:1003A00030B5441C03E00178401C00290DD08107C2
:1003B000F9D10B4BDD0104C8D11A91432940FAD081
:1003C000001B0A0603D0C01E30BD001B30BD0A044E
:1003D00001D0801E30BD0902FCD0401E30BD00009F
:1003E00001010101D2B210B513029A1813049A1830
:1003F00000F00EF810BD01E004C0091F0429FBD273
:100400008B0701D50280801CC90700D0027070479D
:1004100000290BD0C30702D00270401C491E0229DC
:1004200004D3830702D50280801C891EE3E70022E3
:10043000EEE70022DFE7002203098B422CD3030AF8
:100440008B4211D300239C464EE003460B433CD421
:10045000002243088B4231D303098B421CD3030A89
:100460008B4201D394463FE0C3098B4201D3CB01B9
:10047000C01A524183098B4201D38B01C01A5241E9
:1004800043098B4201D34B01C01A524103098B42ED
:1004900001D30B01C01A5241C3088B4201D3CB00D8
:1004A000C01A524183088B4201D38B00C01A5241BB
:1004B00043088B4201D34B00C01A5241411A00D26B
:1004C00001465241104670475DE0CA0F00D04942D4
:1004D000031000D34042534000229C4603098B4244
:1004E0002DD3030A8B4212D3FC22890112BA030ACC
:1004F0008B420CD3890192118B4208D3890192114E
:100500008B4204D389013AD0921100E08909C309D2
:100510008B4201D3CB01C01A524183098B4201D3D4
:100520008B01C01A524143098B4201D34B01C01ABF
:10053000524103098B4201D30B01C01A5241C30837
:100540008B4201D3CB00C01A524183088B4201D3A6
:100550008B00C01A5241D9D243088B4201D34B00C1
:10056000C01A5241411A00D20146634652415B1003
:10057000104601D34042002B00D5494270476346E4
:100580005B1000D3404201B50020C046C04602BD0A
:10059000704770477047FFB504460D4681B0243060
:1005A00000902168880604D51022E06991432160FB
:1005B00000E00120A84201DD471B00E0002704986D
:1005C000A1697A191018081AA0612078C00602D40F
:1005D0002046C046C046002608E003986268A1682D
:1005E000805D9047206A401C761C206204988642F9
:1005F000F3DB2078C0060AD52046C046C04606E098
:100600006268A16830209047206A401C206238460A
:100610007F1E0028F4DC07E000986268A168405D56
:100620009047206A401C206228466D1E0028F3DC9B
:100630002046C046C0462078000602D5022005B0FC
:10064000F0BD0120FBE7000001694A1C0261087847
:10065000704700B58FB002910021059105490193C3
:1006600079440391114604906846FFF739FE0FB0B4
:1006700000BD0000E5FFFFFF0A681070521C0A6011
:10068000704710B54369002B02D0C046C04601E058
:10069000FFF7C6FD012010BD1278014624310A7013
:1006A00000224A700122ECE711680022D243E8E7F9
:1006B00001468008081A02091018020A1018020CD4
:1006C0001018C008820012185200891A01E0401C5C
:1006D0000A390A29FBD27047754600F025F8AE4664
:1006E000050069465346C008C000854618B020B5CD
:1006F000FFF770FD60BC00274908B6460026C0C55C
:10070000C0C5C0C5C0C5C0C5C0C5C0C5C0C5403DC9
:1007100049008D46704710B50446C046C046204685
:10072000FFF72BFD10BD000000487047500100206E
:1007300001491820ABBEFEE726000200704700000A
:1007400070B50446006801F08BFD002824D02068B5
:1007500081688907C90F04D18168104A114010319E
:10076000816000F0D3FE054612E000F0CFFE401B92
:1007700002280DD920688068400709D5A06D102196
:100780000843A065E06D01210843E065084670BD9F
:10079000206880684007E8D4002070BDE8FFFF7F34
:1007A000F8B50446006881688907CD0F01F054FD53
:1007B00000282AD0002D28D1206881680522114008
:1007C00010250126012914D18168114A1140891C84
:1007D000816021680320086000F098FE074610E061
:1007E00000F094FEC01B02280BD920688068C00767
:1007F00007D0A06D2843A065E06D3043E06501207F
:10080000F8BD20688068C007EAD10020F8BD00006C
:10081000E8FFFF7FF8B5044600200090206801F053
:100820001BFD002845D120688168234A102611400D
:10083000002930D18168D5432940491C81601F4877
:10084000006807218905084000020AD51D481C4997
:100850000068FFF7F0FD401C00E0401E00900028FB
:10086000FBD1607E012824D000F050FE07461BE03B
:1008700001F0F2FC002804D1206881682940491C5D
:10088000816000F043FEC01B02280DD9206800687B
:10089000C043C00708D0A06D3043A065E06D0121C2
:1008A0000843E0650846F8BD20680168C943C907E8
:1008B000DED10020F8BD00001700008008270140AD
:1008C000400D03003800002006C84368514002680C
:1008D00080685A40514041400148484070470000FC
:1008E000A5A5A5A510B5044600680D49884212D1FA
:1008F000606801280FD12046FFF7E6FF6169884252
:1009000009D1E168A068884205D22069814202D2FB
:100910000449884201D9002010BD012010BD00000B
:1009200013072620FF0F00007D210448C900416005
:10093000034981601921C901C1607047000000208E
:10094000FC080000F0B597B00020304E06900790EC
:10095000089009901490308C01214006C00B2C4F58
:10096000C902411AC5192B480D9001200E902A4842
:10097000CC0A41680F9181681091C06811900DA850
:10098000FFF7A2FF129018220DA96846FFF7FCFBA3
:1009900000F0F4FC0220069004200790012009904A
:1009A000089414A906A800F061FC00280FD10024C7
:1009B000E0006946421853680A58318C4906C90B51
:1009C0000818C119012000F0A9FC002802D000F08D
:1009D00091FC19E0641C032CEAD300F08BFC284640
:1009E000FFF780FF00280FD00B48A96842689142AA
:1009F0000AD1E9688268914206D12969C0688142BA
:100A000002D1012017B0F0BD0020FBE7C075FF1F29
:100A100000F8FF07130726200000002072B6FEE74B
:100A200003494A6901231B04184302434A61704782
:100A300000200240044A5069044BC9001840014399
:100A400003480143516170470020024007E0FFFF67
:100A50000200010030B505494C6901252C434C6169
:100A60000260BFF36F8F436030BD00000020024082
:100A700030B50B4C002362690125AD042A43626145
:100A8000EFF3108272B620C95B1C20C0DBB2402B92
:100A9000F9D32069C003FCD482F3108830BD000074
:100AA00000200240F8B5044600F030FD012706465C
:100AB0003F04124D06E0601C04D000F027FD801BAF
:100AC000A04213D228693842F5D128690C49084060
:100AD0000C4929610CD00C4948600120F8BD601C0C
:100AE00006D000F013FD801BA04201D30320F8BD07
:100AF00028694003F3D40020F8BD00000020024024
:100B0000FA830000FB8300003401002038B5002088
:100B100069460870054604462FE068466D1C01785A
:100B2000EDB277291AD0572918D0732918D0532934
:100B300016D0612916D0412914D0642914D0442933
:100B400012D06D2912D04D2910D0702910D0502903
:100B50000ED072290ED052290CD00CE001240AE0EC
:100B6000022408E0032406E0042404E0052402E053
:100B7000062400E00724102D07D200230122694635
:100B8000034801F0D5F90028C7D0204638BD000041
:100B9000A0000020FFB589B0002536E01298405D26
:100BA000A12837D202011C4B0020694614181C5D95
:100BB0000C54401C1028F9DB0026E80008900A9825
:100BC00000243718E017400F0019C0086946C0001C
:100BD0008A5D201A8021C14009980A4206D0011975
:100BE00008980B9A0818B9B280B205E00119089864
:100BF0000C9A0818B9B280B200F010F8641C082CE6
:100C0000E0DB761C102EDADB6D1C1298FFF7C8FBB8
:100C1000A842C3D80DB0F0BD9C2D000810B51446F5
:100C20004A1C93B2421C92B201F0A2FB204601F092
:100C3000FFFA10BDF8B50027064604464036009777
:100C4000307D0D4601280FD001203075206801F05D
:100C500007FB00280AD0A06D20210843A0650127CA
:100C6000002030753846F8BD0220F8BD68680228BB
:100C70007ED001222169D207914202D0121D9142F9
:100C800006D120682968826A4903490B0A436EE04D
:100C9000C206D20E0F20216E904081432868430384
:100CA00002D0C3074BD102E04000C00E48E08307EA
:100CB00001D5012044E0430701D5022040E00307AD
:100CC00001D503203CE0C30601D5042038E08306AB
:100CD00001D5052034E0430601D5062030E00306A7
:100CE00001D507202CE0C30501D5082028E08305A5
:100CF00001D5092024E0430501D50A2020E00305A1
:100D000001D50B201CE0C30401D50C2018E083049E
:100D100001D50D2014E0430401D50E2010E003049A
:100D200001D50F200CE0C30301D5102008E0830398
:100D300001D5112004E0400301D5122000E000207D
:100D40009040014321666968E2698808401C90422E
:100D500010D820682B68826A9C46C906C90E0F23EA
:100D60008B409A4363469B001B0F8B401A4300E065
:100D70003BE082622168AB6828684A6900028243CE
:100D800018404001400902434A612868002800DBFE
:100D900066E72B4A116807239B051940294B9842A7
:100DA00014D10B0212D4C0020143104601F064FAC0
:100DB000264825490068FFF73EFB0C21401C4843AC
:100DC00000E0401E00900028FBD149E7204B9842EC
:100DD00003D1CB0101D4800205E01E4B9842D7D14C
:100DE0004802D5D45802014325E001212069C907F2
:100DF000884202D0091D884206D120682968826A8B
:100E00004903490B8A43826228680028C0DA0C4AE9
:100E1000116807239B0519400A4B984201D1C00273
:100E200008E00B4B984201D1800203E0094B984245
:100E3000AED140028143104601F01EFA10E70000D7
:100E400008270140001000B0400D030038000020CA
:100E5000004000B8002000B40068006C704700003B
:100E6000FEB50027044601973E46029700970028EA
:100E700005D02546A06D2035002802D007E00120CE
:100E8000FEBD204600F0FCF8E665542006552068BB
:100E90008168C900C90F12D18168724A11400122CC
:100EA00012071143816071486F490068FFF7C3FA68
:100EB0004000801C00E0401E00900028FBD120680C
:100EC0008168C900C90F08D1A16D10221143A16525
:100ED000E16D01221143E165174601F0C1F9A16DF1
:100EE000C90601D4002804D0A06D10210843A065D4
:100EF000B4E0A06DFF210131884302210843A065C1
:100F0000206801F0A9F900286DD1217EA06889032D
:100F10000843617ECA03A17E4B031A431043226B30
:100F2000002A01D0012212031043E2681043226913
:100F3000002A02DA5200520801E001225205104351
:100F40002A7B52001043019A10432A78012A09D1C2
:100F5000002922D0A16D20221143A165E16D01225B
:100F60001143E165616A002906D0FF23C1331940AE
:100F7000A26A0143104608432168CA683C4B1A40E4
:100F80000243CA606168029A890F8907E06C0A43CC
:100F900010432A7F012A04D00CE0012109040843F0
:100FA000E0E7636C226C491C1A43A36C0B431146A7
:100FB0001943084321680A692E4B1A4002430A610B
:100FC00003216068890788420DD0590788420AD0FA
:100FD0004900884207D0284A91680F239B0499430F
:100FE0001840014391600021626B206801F04BF9C9
:100FF0002249A26B206801F046F90F202169C04305
:1010000000291CD00122520591420AD121688A6A26
:10101000227F9200121FD206D20E9040226E104301
:10102000886220684069616B4007400F88420BD19D
:10103000E665A06D80088000401CA0650FE0216877
:101040008A6A02438A62ECE7A06D0221884310217C
:101050000843A065E06D01210843E065012738469B
:10106000FEBD0000E8FFFF7F400D030038000020B8
:101070000102DEFF02FCFF1F0027014004FFFF0703
:1010800010B586B0044614216846FFF7D2F911491D
:10109000206888421CD110480268012109050A43D2
:1010A00002600068084005900B484038416B0122FF
:1010B00011434163406B6946104005901220009037
:1010C00003200190002002900520000700F06AF93B
:1010D00006B010BD0024014040100240F8B504469F
:1010E00040690D46082809D02068C068C00707D0AD
:1010F000A06D20210843A0650120F8BD082600E06E
:10110000042600F003FA074615E0681C13D000F02F
:10111000FDF9C01BA84201D8002D0CD12068006841
:10112000304208D1A06D04210843A065002040345E
:1011300020750320F8BD206800683042E5D0A06D1E
:10114000012149020843A065206801F08DF80C25B3
:10115000002812D0A07E00280FD12068016809075E
:101160000BD501F07DF8012100280AD0A06D2022C6
:101170001043A065E06D0843E065207E00280BD099
:101180000CE020684268AA434260A06DFF22013251
:1011900090430843A065F0E7206805600020F8BD93
:1011A00070B50446006801F05BF8002802D0022107
:1011B000084670BD25464035287D01280AD001200B
:1011C00028752046FFF726FB01460020002903D0A2
:1011D0002875EDE7022070BDA26D094B1A40FF2370
:1011E00001331A43A265E06523681C221A60287542
:1011F00020688268034B1A40121D8260D8E7000005
:10120000FEF1FFFFE8FFFF7F70B50546044640355D
:10121000287D012807D001262E752046FFF790FA79
:10122000002802D00CE0022070BD2046FFF7B8FA7B
:10123000002805D1A16DFF22013291433143A16500
:101240000021297570BD000070B5044600F05EF9FC
:101250000546601C02D004480078241800F056F9B6
:10126000401BA042FAD370BD2C000020F8B51F4EE1
:10127000044630780F4601280AD001203070002043
:1012800070607D20C000FFF70DFC002802D029E02F
:101290000220F8BD042161602268042A03D0491F9E
:1012A0003960A56814E00846FFF7BAFB7D20C0004E
:1012B000FFF7F8FB16E029466068FFF7BBFB7D20CF
:1012C000C000FFF7EFFB002801D03D6005E06D1C7A
:1012D000E268A1688918A942EDD805494A69022344
:1012E0009A434A6100213170F8BD000034010020AA
:1012F0000020024010B57D200124C000FFF7D2FB82
:10130000054841698204114341614069002800DABF
:101310000024204610BD000000200240F0B51FB49C
:10132000144C06462078154601280AD0012020706A
:1013300000277D20C0006760FFF7B4FB002803D0C2
:1013400010E0022005B0F0BD012E0DD02946019815
:10135000FFF78EFB7D20C000FFF7A4FB06494A691A
:10136000B2434A612770EDE72A46039B0198FFF7D5
:1013700071FBEFE734010020002002400649002005
:101380004A69002A07DA054A8A60054A8A6049697B
:10139000002900DA01207047002002402301674540
:1013A000AB89EFCDF0B5002303249AE02A4601254E
:1013B0009D402A407ED00E79B607B60F012E01D08F
:1013C000022E16D186682746B4465E00B646B74060
:1013D0006646BE43B446CF687646B7406646374356
:1013E00087604668AE430D79ED06ED0F9D403543AD
:1013F00045600D79ED43AD0708D0C5685F0026460E
:10140000BE40B5438E68BE402E43C6600D79AD0721
:10141000AD0F022D0ED1DD08AD002D18AC462D6AA2
:101420005E07F60E0F27B740BD430F69B7402F4345
:1014300065462F6205685F002646BE40B5430E79BB
:10144000B607B60FBE402E4306604D68AD03AD0F24
:1014500046D09E08264DB6007519AC462D6E9E07E7
:10146000F60E0F27B740BD4305273F07B84201D10D
:1014700000270FE01F4FB84201D101270AE01E4F9D
:10148000B84201D1022705E01C4FB84201D1032721
:1014900000E00527B7402F43154D664637662D6897
:1014A0004E689543F60200D51543114F3D607D68A7
:1014B000954300E014E04E68B60200D515437D6008
:1014C0000B4D80356E684F689643BF0300D51643B9
:1014D0006E602E684F689643FF0300D516432E605A
:1014E0005B1C0A681546DA4000D05FE7F0BD0000DB
:1014F000001802400004005000080050000C00508A
:10150000002A01D08161704781627047014880687C
:10151000704700002C00002002488168027889187A
:10152000816070472C00002010B508480024016835
:10153000821511430160032000F00AF8002801D051
:10154000012401E000F028F8204610BD00200240F0
:1015500070B50F4E002431780546002915D07D2046
:10156000C000FEF768FF01460A480068FEF763FF07
:1015700000F0EAFB002808D1042D06D200222946FB
:10158000401E00F01FF8756000E00124204670BD89
:101590002C0000203800002008B50948016801220D
:1015A0001143016000681040009005484038C26B4C
:1015B00001040A43C263C06B0840009008BD0000EC
:1015C0004010024010B501F0DBFA10BD10B50F4C11
:1015D000216803225202914301432160C11FFF3958
:1015E000FA390ED10A480621006848430949FEF736
:1015F00022FF401C02E0002805D0401E6169490519
:10160000F9D4002010BD032010BD00000070004080
:101610003800002040420F00F8B50446006800265C
:101620004D4D800358D54C4800274038C06BC00052
:1016300009D449484038C26B01040A43C263C06BF5
:101640000840012700904548016882151143016058
:10165000FFF75CFF009005E0FFF758FF0099401A84
:10166000022825D83D480068C005F5D5E869032162
:10167000090208400FD0616981420CD0E86903215A
:101680000902EA698843012109040A43EA61EA6917
:101690008A43EA61E861C0070FD0FFF737FF009087
:1016A00008E0FFF733FF0099411A2D48814201D924
:1016B000032609E0E8698007F3D5E86903210902F8
:1016C000884361690843E861002F05D0224840380B
:1016D000C26B01048A43C2632078C00705D06869E1
:1016E000616880088000084368612078800606D51C
:1016F0006869032109038843A16808436861208859
:10170000400411D568692169800080080843686138
:10171000012120698907884206D10F484038C168F5
:10172000012212041143C1602088000512D56869A6
:10173000032189038843E168084368610121E06867
:101740008903884206D104484038C1680122120446
:101750001143C1603046F8BD4010024000700040A7
:1017600088130000F8B50F46060043D04D4D286899
:101770004007400FB84213D22868C008C000384361
:101780002860FFF7C3FE044605E0FFF7BFFE011B1C
:101790004548814261D828684007400FB842F4D1DB
:1017A0003068424C81070DD5400704D5A068072159
:1017B00009030843A060A0680F2109028843B168AB
:1017C0000843A0603078C00732D0706801280AD082
:1017D00002280BD000280FD03449403103280ED006
:1017E000C969890704E02168890301E0216889014A
:1017F000002906DB0120F8BD21684905F8E7096AE0
:10180000EFE7A168C908C9000143A160FFF77EFEA8
:10181000009006E0FFF77AFE0099411A22488142C3
:101820001BD8A068382108407168C9008842F1D1EE
:1018300028684007400FB84217D91A480168C908FC
:10184000C90039430160FFF761FE054607E0FFF775
:101850005DFE411B1448814201D90320F8BD1148A7
:1018600000684007400FB842F1D13078400706D5F4
:10187000A068072109038843F1680843A06000F0CD
:1018800031F8A1683C2289091140094A515CC90616
:10189000C90EC8400749086007480068FFF758FEAE
:1018A000F8BD000000200240881300000010024034
:1018B000C83D0008380000203000002006480749D5
:1018C00000688968064A4904490F8900515CC906C5
:1018D000C90EC840704700003800002000100240C8
:1018E000083E000810B5204CA068204A8006400F32
:1018F00016D0A0688006410F501001290FD0A168B2
:101900008906490F022912D0A0688006400F0428DA
:1019100023D0A0688006400F032821D0002010BDEE
:10192000206801218004400F8140104612E0E168E8
:101930008B07E1689B0F4906490F491C032B00D018
:101940001046FEF778FDE1684904490E4843E16816
:10195000490F491CFEF76FFD10BD0120C00310BDEB
:101960007D20000210BD0000001002400024F400A1
:10197000F8B504007ED020783827C007E94D00284C
:1019800046D0A868E96838408907890F102802D036
:1019900008280BD001E0032908D001206268000468
:1019A00082420AD129680143296015E02868800332
:1019B0002ED560680028DDD02AE0052301211B0414
:1019C00089049A422A6802D10A432A60EAE78243DC
:1019D0002A60286888432860606800280CD0FFF7D8
:1019E00095FD064604E0FFF791FD801B642873D83F
:1019F00028688003F7D50BE0FFF788FD064604E072
:101A0000FFF784FD801B6428F1D828688003F7D491
:101A10002078800769D5A868E96838408A070721D7
:101A2000920FC902102802D0002813D001E0022A28
:101A300010D0E068002846D0286888432169084310
:101A400028602868FF21013108432860FFF75EFD08
:101A500006462CE02A68520502D5E268002A89D0A1
:101A60006A687F231B029A4363691B021A436A60F8
:101A7000002800E08DE00ED12868884321690843E2
:101A80002860286801218004400F8140A648FEF7A5
:101A9000D2FCA6490860A6480068FFF759FD002857
:101AA00077D122E0FFF732FD801B02289FD82868FB
:101AB0004005F7D568687F210902884361690902FA
:101AC0000843686011E02968FF20013081432960E4
:101AD000FFF71CFD064605E098E0FFF717FD801BA9
:101AE000022884D828684005F7D42078914E000752
:101AF0002ED5A8688006400F03280AD0A0690028C8
:101B0000306A16D0012108433062FFF7FFFC074618
:101B10000BE0306A80071BD5A06900289FD017E032
:101B2000FFF7F4FCC01B022870D8306A8007F7D595
:101B30000EE0400840003062FFF7E8FC074604E092
:101B4000FFF7E4FCC01B022860D8306A8007F7D496
:101B5000207840076CD5A86800278006400F04282D
:101B600018D0E86BC00008D4E96B012000070143DE
:101B7000E963E96B0140012700916F480168C905DD
:101B800019D40168821511430160FFF7BFFC009072
:101B90000DE083E0F06980074AD5A06800287DD079
:101BA00046E0FFF7B3FC0099401A02282ED862489D
:101BB0000068C005F5D5A168012910D004200529C9
:101BC000F16911D049084900F161F1698143F1617E
:101BD000A068002816D0FFF799FC00900EE0F0698D
:101BE00001210843F061F3E70143F161F7E7FFF7F3
:101BF0008DFC0099411A5148814265D8F0698007EF
:101C0000F5D50EE0FFF782FC009007E05CE0FFF7FF
:101C10007DFC0099411A4948814255D8F0698007F6
:101C2000F5D4002F04D0E96B012000078143E9635C
:101C3000E069002873D0A9688906490F02294DD0B0
:101C4000012636060228286805D0B0432860FFF731
:101C50005DFC04463AE0B0432860FFF757FC0746B6
:101C600004E0FFF753FCC01B02282DD82868800130
:101C7000F7D4616A206AA26A0843E16A120211433A
:101C80000843216B0843E9682D4A11400843E86086
:101C9000286830432860E868012100E03DE009073A
:101CA0000843E860FFF732FC044604E0FFF72EFC2F
:101CB000001B022808D828688001F7D52FE0FFF71D
:101CC00025FC001B022801D90320F8BD28688001EB
:101CD000F5D4E8681B490840E86020E00128F4D00A
:101CE000E868226A8107890F914216D17021626AE1
:101CF0000140914211D17F21A26A090201401202E2
:101D000091420AD11F214904E26A0140914204D163
:101D1000400F216B4007884201D00120F8BD002010
:101D2000F8BD0000001002400024F400380000203C
:101D30003000002040100240007000408813000076
:101D40008C80C11FFCFFFEEF094910B5401E884280
:101D500001D9012010BD074C60610321081F00F06C
:101D60000FFF0020A06107202061002010BD0000AF
:101D7000FFFFFF0000E000E010B5014680310A7966
:101D8000012A15D001220A7124228A600268136890
:101D9000146864086400146001225207934300220F
:101DA000426600680360202088600A71104610BDFA
:101DB000022010BD70B50446054680342079012804
:101DC0001AD0012020712420A060286806680268CB
:101DD0005208520002602868826807235B069A4313
:101DE0000A438260284600F0ABFC28680660202089
:101DF000A0600020207170BD022070BD70B5044647
:101E0000054680342079012819D001202071242032
:101E1000A0602868066802685208520002602868BC
:101E20008268D200D2080A438260284600F088FC0B
:101E3000286806602020A0600020207170BD02206C
:101E400070BD70B5040005D025468035A86800280F
:101E500002D006E0012070BD00202871204600F06D
:101E600027F82420A860206801684908490001601B
:101E7000A06A002802D0204600F084FC204600F032
:101E800075FD0128E7D0206841680922D2029143FC
:101E90004160206881682A2291438160206801683E
:101EA000012211430160204600F0D2FC70BD000009
:101EB00030B58DB0044614216846FEF7BAFA1821F1
:101EC00005A8FEF7B6FA18492068884229D10124EE
:101ED000002505A806950594FFF79EFB002801D074
:101EE000FEF79CFD11480268012189030A43026044
:101EF000006808400B900D484038416B2143416316
:101F0000406B0295C007C00F0B9003204002009069
:101F10000220019005206946039504940007FFF70D
:101F200041FA0DB030BD00000038014040100240C1
:101F3000FFB5074604468037F86885B00E4620286E
:101F400002D0022009B0F0BD002E61D00798002811
:101F50005ED00120A1680003814204D120690028DD
:101F600001D1F00754D1002038612221F960E066E8
:101F7000FFF7CCFA0390254640350798A8830798C9
:101F8000E8830121A0680903FF22884204D1236964
:101F9000002B0BD1274A09E0002812D0012212079A
:101FA000904213D12269002A0ED03F222A8492B295
:101FB0000292884202D12069002809D001960026A9
:101FC00031E02369002BF1D07F22EFE70022EDE71B
:101FD0000020019027E00898009000222021204650
:101FE000039B00F077FD002803D02020F860032039
:101FF000A8E70198002820680CD0416A02980140A7
:10200000019801700198401C0190F868222807D0BF
:10201000012097E7406A029908403080B61CF4E737
:10202000E88B401EE883E88B0028D4D12020F8609C
:10203000002087E7FF010000FFB506460446803612
:10204000B06883B00D46202802D0022007B0F0BD52
:10205000002D3BD00598002838D00120A16800034E
:10206000814204D12069002801D1E8072ED1002047
:1020700030612120B060FFF749FA019027464037D0
:102080000598B8820598F8820120A1680003814272
:1020900002D12069002802D00295002522E000200C
:1020A00002901FE000228021204600F013FD00284E
:1020B00025D1029800280BD0216800788862029808
:1020C000401C0290B1682120884308D00120BDE760
:1020D00028882168C005C00D8862AD1CF2E7F88A27
:1020E000401EF882F88A019B002806980090D9D1FA
:1020F00000224021204600F0EDFC002803D02020E3
:10210000B0600320A2E72020B06000209EE7FEE739
:1021100030B587B00C4605462022102101A8FEF7F5
:1021200061F9002069460875014601AA04E050548F
:10213000491CC9B2102902D2605C0028F7D10023E3
:102140000092034A29461846FEF724FD07B030BD29
:10215000FFFF000070B5044D0C46A861FFF7D6F9EB
:102160000019E86170BD00000000002030B5214C6E
:1021700089B01FA5207800F0F7F902461EA1684635
:10218000FEF73AF869460020FFF7C2FF1CA1684637
:102190002269FEF731F869461020FFF7B9FFA278EF
:1021A0001AA16846FEF728F869462020FFF7B0FF1D
:1021B00019A16846A3686268FEF71EF869463020D8
:1021C000FFF7A6FF18A16846E268FEF715F8694612
:1021D0004020FFF79DFFFFF799F9E169884200D29F
:1021E000A56950202946FFF793FF09B030BD0000D4
:1021F00000000000000000204D6F64653A25730068
:102200004C696768743A256C750000004C6576650A
:102210006C3A25640000000054313A256C75205456
:10222000323A256C7500000054333A256C75000075
:1022300070B50125ED03052636070446B56205494C
:1022400010208861200A00F031FAE0B200F02EFA86
:10225000B56170BD000400508068C007C00F7047B2
:1022600080684007C00F7047C0680005800F01D02C
:102270000020704701207047026807239B059A439E
:102280000A430260704710B54369042421400724C3
:102290008C40A3438A401343436110BD70B506468A
:1022A0007F2300211A46084600F062F82C2000F037
:1022B0009BF8002400253046FFF7BAFF6D1C802DE7
:1022C000F9D3641C802CF5D370BD000010B50A2032
:1022D000FEF7BAFF012240212448FFF711F911202F
:1022E00000F082F80320FEF7AFFF112000F07CF829
:1022F0000520FEF7A9FF362000F076F80520FEF74E
:10230000A3FF362000F070F80520FEF79DFFC820DF
:1023100000F05AF80520FEF797FFC82000F054F8A7
:102320000520FEF791FF3A2000F05EF80520FEF749
:102330008BFF3A2000F058F80520FEF785FF0520B6
:1023400000F042F80520FEF77FFF052000F03CF882
:102350001420FEF779FF292000F046F80520FEF74B
:1023600073FF292000F040F810BD00000004005069
:10237000F0B507461C4615460E462A2000F034F8F4
:10238000002000F021F8BF1CF8B200F01DF800207A
:1023900000F01AF8AD1CE8B200F016F82B2000F09F
:1023A00023F8002000F010F8F61CF0B200F00CF852
:1023B000002000F009F8E41CE0B200F005F82C2041
:1023C00000F012F8F0BD000030B50125ED03052442
:1023D0002407A562034A1021916100F067F9A56105
:1023E00030BD00000004005030B50125ED03052488
:1023F0002407A562034A1021916200F057F9A561F4
:1024000030BD0000000400503EB50024194800947F
:1024100001941749029401608460C4600905046155
:102420004160042141610476447684760121C161D2
:10243000014620310C70446284620C7307224263AF
:10244000046382630C77C464FEF70AFD002801D0A0
:10245000FEF7E4FA084800900194694602940548A2
:10246000FEF7E8FB002801D0FEF7D8FA3EBD0000D9
:10247000002401403C00002010000010F0B587B09F
:1024800014216846FDF7D5FF1B48426B20210A4303
:102490004263426B0A400592416B01252943416327
:1024A000416B29400591426B02210A434263406B14
:1024B000124F0840059000227F213846FFF720F890
:1024C000EE030520002231460007FFF719F87F20B0
:1024D0000024009002946946019503943846FEF763
:1024E00061FF052002946946000700960195039458
:1024F000FEF758FF07B0F0BD001002400004005086
:1025000010B5184816490160E121490241600021D7
:102510008160C16001618161C16101620C2241621F
:1025200042618162FFF78DFC002801D0FEF776FA48
:1025300000210C48FFF762FC002801D0FEF76EFA7C
:1025400000210848FFF736FC002801D0FEF766FAA4
:102550000448FFF711FC002801D0FEF75FFA10BD18
:1025600000380140A0000020012801D001A07047E0
:1025700002A070474155544F000000004D414E5598
:10258000414C0000FEE7704710B52B4905280A783A
:1025900012D0032818D004281ED0012823D00228E6
:1025A0002DD07D242401062839D0072808D1FEF734
:1025B000BBF9214621A03AE00020002A01D0087092
:1025C00010BD01220A7005E0012AF9D148780028DF
:1025D000F6D0401E487010BD012AFCD1487803286F
:1025E000F9D2401CF6E7C868174A64309042F2D826
:1025F0004A6864324A608A6864328A600DE04868DA
:10260000642801D9643848608868642801D964382E
:102610008860C8686428DED96438C86010BDFEF7D9
:1026200091F90028214601D008A000E00BA0FFF797
:1026300091FDFFF79BFD10BD000000204465666121
:10264000756C742052414D00FF0F0000436F6E66A1
:102650006967205341564544000000005361766588
:10266000204641494C4544003EB5002101910C46AD
:102670000291009069460C48FEF7DCFA002801D070
:1026800072B6FEE70848FEF78BFD64210648FEF7A8
:1026900025FD002803D10448FEF7DEFB044602486E
:1026A000FEF7B2FD20463EBD3C00002030B50821BB
:1026B000084B20240A46050601D59C6100E09C6277
:1026C0009A619A624006491E000E0906090EF2D16F
:1026D00030BD000000040050704710B5FEF71CFF2D
:1026E00010BD10B592B034216846FDF7A2FE00245B
:1026F00001200D940E940F9440021094FEF766FF93
:1027000002200090C001039040200590049407949B
:102710006846FFF72DF9002801D072B6FEE70720C2
:102720000D900E940F94002110940DA8FFF71AF845
:10273000002801D072B6FEE712B010BD704700004D
:10274000F8B50446416E4034002915D00068816810
:10275000806809014D0F0A4E400F3746315C083F33
:10276000385CC000FDF767FE6085785D715DC00074
:10277000FDF761FE2085F8BD01206085FAE70000C5
:10278000BE3D000810B5018D090707D501684A68EC
:102790000123DB039A43836B1A434A60018DC90707
:1027A00007D001684A6801235B049A43C36A1A434D
:1027B0004A60018D890707D501684A6801231B0417
:1027C0009A43036B1A434A60018D490707D5016894
:1027D0004A6801239B049A43436B1A434A60018D64
:1027E000C90607D50268916801231B039943C36B8F
:1027F00019439160018D890607D501688A68012314
:102800005B039A43036C1A438A60018D490612D513
:1028100003685A6801210905446C8A4322435A60BF
:10282000426C8A4207D10268516803235B059943D1
:10283000836C19435160018D090607D501684A6808
:102840000123DB04C06C9A4302434A6010BD0000C0
:10285000FEB505460026803504462E61FEF756FE7D
:1028600001902068006820270007002817DA254813
:102870000090002239042046019B00F02BF900282B
:102880000DD0EFF31080012181F3108821680A68D0
:1028900080239A430A6080F31088AF6028E02068A4
:1028A0000068400727D517480090012100228905BC
:1028B0002046019B00F00EF900281CD0EFF3108099
:1028C000012181F3108821680A68FF2321339A438C
:1028D0000A6080F31088EFF31080012181F31088E3
:1028E00021688A68520852008A6080F31088EF607D
:1028F0002E710320FEBDAF60EF60E66626672E7185
:102900000020FEBDFFFFFF0110B5EFF31081012293
:1029100082F3108802681368FF242134A3431360F4
:1029200081F31088EFF31081012282F3108802688E
:1029300093680D4C2340936081F31088C16E012988
:102940000BD1EFF31081012282F310880268136823
:102950001024A343136081F3108820228C210A5095
:102960000021C166416710BDFEFFFFEFF8B50446C8
:1029700080682169E2690843616900251143226882
:10298000084311684B4B19400143116020684168AE
:10299000032212039143E26811434160A169206A56
:1029A000084321688A68444B1A4002438A602068C1
:1029B000C16A626A090909011143C1623F4920687D
:1029C000884211D13E4840698007800F0FD001280E
:1029D00006D0022802D003280BD103E0022109E02F
:1029E000042107E0082105E03649884201D1002191
:1029F00000E010210120E369C003334A334E344F15
:102A0000834227D1002906D0022907D0042907D004
:102A100008293FD108E0FEF751FF03E0104603E02C
:102A2000FEF760FF00283AD0616A4900715AFDF74D
:102A300002FD616840004A088018FDF7FCFC014671
:102A40001039B94226D82249491C01400007400FDD
:102A5000084322E0002906D0022907D0042907D024
:102A6000082917D108E0FEF729FF03E0104603E02C
:102A7000FEF738FF002812D0616A4900715AFDF74D
:102A8000DAFC61684A088018FDF7D5FC0146103968
:102A9000B94201D9012502E080B22168C860204610
:102AA000012140304185018500206067A0672846EC
:102AB000F8BD0000F369FFCFFFF4FF1100380140BB
:102AC00040100240004400400024F4009E3D0008F5
:102AD000EFFF0000FFB581B005460E460446803585
:102AE0000A9F32E0781C30D0FEF710FD0499401A9E
:102AF000B84218D8002F16D020680168490724D59D
:102B0000802E22D0402E20D0C169C94309070CD4A1
:102B1000082606622046FFF7F7FE2E610020287186
:102B2000012005B0F0BD0320FBE7C069C0430005EC
:102B30000BD401202168C00208622046FFF7E4FEA2
:102B40002020286100202871EDE72068C169304607
:102B5000884305D0002103988142C3D00020E0E7DC
:102B60000121F8E730B47446641E2578641CAB423A
:102B700000D21D46635D5B00E31830BC18470000BF
:102B80008307FF22DB0E9A408907090E994000282F
:102B900008DB830809489B001B181868904308430A
:102BA000186070470007000F0838830804489B002E
:102BB0001B18D86990430843D861704700E400E0CF
:102BC00000ED00E0B4B0FEF7AFFCFFF78AFDFFF7C1
:102BD00055FCFFF795FCFFF717FC59485949008C45
:102BE0004006C00B45182846FDF77CFE564C0028D1
:102BF00006D0A8686060E868A0602869E06001E02D
:102C0000FDF792FE01220520D1030007FEF778FCB4
:102C1000FFF75CFB0020FFF741FBFFF7A7FA4B4FE4
:102C2000FEF774FC0546FDF771FF0090FFF7ACFC62
:102C3000206A281A642808D345482562FFF714FD46
:102C400020614448FFF710FD60612078002801D022
:102C5000607810E061682069884201D200200AE0B3
:102C6000A168884201D2012005E0E168884201D2D2
:102C7000022000E003200606A070360E08D00022D5
:102C800004213846FEF73CFC022E03D2012202E06A
:102C90000122F5E7002202213846FEF731FC032E1F
:102CA00001D2012200E0002201213846FEF728FC73
:102CB000606A291AFF20F530814202D36562FFF76E
:102CC00055FAA06A291A7D20C000814202D20098DC
:102CD0000028A5D0A56200980300FFF743FF081362
:102CE0000507090B0D0F11131BA50CE01BA50AE02E
:102CF0001CA508E01DA506E01EA504E01FA502E036
:102D000020A500E021A52078FFF72EFC0246201D1B
:102D10000BC8A67804910296059303906069009011
:102D200001951C4906A82369FDF766FA06A8FDF778
:102D300037FB82B2642306A91748FFF77DF96FE7D6
:102D4000C075FF1F00F8FF070000002000040050BE
:102D5000100000100200000455500000444F574E70
:102D6000000000004C45465400000000524947480E
:102D70005400000043454E5445520000534156450F
:102D80000000000052455345540000004E4F4E4590
:102D900000000000283E0008A00000200000000005
:102DA0000000000000000000000000000000000023
:102DB0000000000000000000000000000000000013
:102DC0000000000000000000000000000000000003
:102DD00000000000000000000000000000000000F3
:102DE00000000000000000000000000000000000E3
:102DF00000000000000000000000000000000000D3
:102E000000000000000000000000000000000000C2
:102E1000000000000000000000000000000000189A
:102E200008C80808000000000000000000007F60E3
:102E300060606060606060E0602000000000000092
:102E40000000000000000000000000000000181852
:102E5000181010100000000000000000000000002A
:102E6000000000000808080C0C0C00000000000026
:102E700000000000000000000000000000006C38AE
:102E800010007CC6701CC67C0000000000001038DA
:102E90006C00780C7CCCCC760000000000000000B8
:102EA00000007CC670C0C67C00000000000000006E
:102EB00000006C967CD0D66C000000000000000082
:102EC00000007CC60606C67C00000000000000383A
:102ED0006CC6C6FEC6C66C380000000000000000CC
:102EE000001038286C44C6C6000000000000000036
:102EF00000007CC606FEC67C00000000000000004A
:102F00000000DC666666F60606663C000000006CA3
:102F100038F80C7EC6C6C67C000000000000000E1B
:102F20001B18181818181818D87000000000000096
:102F300000FE860C180C0606C67C0000000076DC3D
:102F40000000780C7CCCCC7600000000000076DC21
:102F500000007CC60606C67C00000000000076DC8F
:102F60000000DC6666666666000000000000000087
:102F7000000076999F98996F000000000000000003
:102F8000000000000000000C060600000000000029
:102F90000000000000003C66663C000000000000ED
:102FA0000000000000000000000000000000001809
:102FB0003C3C3C1818001818000000000000C6C671
:102FC000C644000000000000000000000000006C8B
:102FD0006CFE6C6C6CFE6C6C000000000018187CC1
:102FE000C6C2C07C0686C67C18180000000000001F
:102FF00000C3C60C183063C3000000000000003896
:103000006C6C3876DCCCCC760000000000003030F0
:103010003060000000000000000000000000001808
:103020003060606060603018000000000000001830
:103030000C06060606060C18000000000000000042
:10304000006C38FE386C000000000000000000003A
:103050001818187E18181800000000000000000062
:1030600000000000001818183000000000000000E8
:10307000000000FE00000000000000000000000052
:10308000000000000000181800000000000000020E
:10309000060C183060C08000000000000000007CBA
:1030A000C6CEDEF6E6C6C67C0000000000000018B2
:1030B000387818181818187E000000000000007CEE
:1030C000C6060C183060C6FE000000000000007C40
:1030D000C606063C0606C67C000000000000000C88
:1030E0001C3C6CCCFE0C0C1E00000000000000FE1E
:1030F000C0C0C0FC0606C67C00000000000000380E
:1031000060C0C0FCC6C6C67C00000000000000FE17
:10311000C6060C1830303030000000000000007C83
:10312000C6C6C67CC6C6C67C000000000000007C87
:10313000C6C6C67E06060C7800000000000000002F
:10314000181800000018180000000000000000001F
:1031500018180000001818300000000000000006D9
:103160000C18306030180C06000000000000000051
:1031700000007E00007E00000000000000000060F3
:1031800030180C060C183060000000000000007CB5
:10319000C6C60C1818001818000000000000007CBB
:1031A000C6C6DEDEDEDCC07C0000000000000010D1
:1031B000386CC6C6FEC6C6C600000000000000FC93
:1031C0006666667C666666FC000000000000003CE7
:1031D00066C2C0C0C0C2663C00000000000000F82B
:1031E0006C66666666666CF800000000000000FE13
:1031F00066626878686266FE00000000000000FEFB
:1032000066626878686060F0000000000000003CC2
:1032100066C2C0C0DEC6663A00000000000000C6FC
:10322000C6C6C6FEC6C6C6C6000000000000003CFA
:10323000181818181818183C000000000000001E8C
:103240000C0C0C0C0CCCCC7800000000000000E64C
:10325000666C6C786C6C66E600000000000000F0A4
:1032600060606060606266FE00000000000000C6F2
:10327000EEFED6C6C6C6C6C600000000000000C6E8
:10328000E6F6FEDECEC6C6C600000000000000382E
:103290006CC6C6C6C6C66C3800000000000000FC44
:1032A0006666667C606060F0000000000000007CE4
:1032B000C6C6C6D6DE7C0C0E00000000000000FC76
:1032C0006666667C6C6666E6000000000000007CB6
:1032D000C6C660380CC6C67C000000000000007E38
:1032E0005A1818181818183C00000000000000C6F2
:1032F000C6C6C6C6C6C6C67C00000000000000C622
:10330000C6C6C6C6C66C381000000000000000C665
:10331000C6C6C6C6D6FEEEC600000000000000C647
:10332000C6C66C386CC6C6C600000000000000C6E9
:10333000C6C66C383838387C00000000000000FE3B
:10334000C68C183060C2C6FE000000000000003CC1
:10335000303030303030303C000000000000008061
:10336000C0E070381C0E0602000000000000003CA7
:103370000C0C0C0C0C0C0C3C000000000010386C09
:10338000C600000000000000000000000000000077
:10339000000000000000000000FE000000003030CF
:1033A0001800000000000000000000000000000005
:1033B0000000780C7CCCCC7600000000000000E01F
:1033C0006060786C666666DC00000000000000004B
:1033D00000007CC6C0C0C67C000000000000001CCD
:1033E0000C0C3C6CCCCCCC76000000000000000043
:1033F00000007CC6FEC0C67C000000000000001C6F
:103400003632307C303030780000000000000000A0
:10341000000076CCCCCC7C0CCC780000000000E026
:1034200060606C76666666E60000000000000018CA
:10343000180038181818183C00000000000000069A
:1034400006000E0606060666663C0000000000E068
:103450006060666C786C66E6000000000000003872
:10346000181818181818183C000000000000000078
:10347000000044FED6D6D6D60000000000000000B2
:103480000000DC6666666666000000000000000062
:1034900000007CC6C6C6C67C00000000000000001C
:1034A0000000DC6666667C6060F0000000000000E2
:1034B000000076CCCCCC7C0C0C1E00000000000080
:1034C0000000DC76666060F0000000000000000094
:1034D00000007CC6701CC67C0000000000000010CC
:1034E0003030FC303030361C00000000000000009E
:1034F0000000CCCCCCCCCC7600000000000000005A
:103500000000C6C6C66C38100000000000000000B5
:103510000000C6C6C6D6FE6C000000000000000019
:103520000000C66C38386CC60000000000000000C7
:103530000000C6C6C6C67E060C780000000000006B
:103540000000FECC183066FE000000000000000EF7
:10355000181818701818180E000000000000001845
:103560001818180018181818000000000000007043
:103570001818180E181818700000000000000076C7
:10358000DC0000000000000000000000000000005F
:10359000000000000000000000000000000000002B
:1035A000000000000000000000000000000000001B
:1035B000000000000000000000000000000000000B
:1035C00000000000000000000000000000000000FB
:103D90000000000000000000000000000000010022
:103DA00002000400060008000A000C0010002000B9
:103DB0004000800000010101010307010000080428
:103DC00002040801010100000000000000000000E2
:103DD00000000000000000000000000000000000E3
:103DE00000000000000000000100000002000000D0
:103DF00003000000040000000600000007000000AF
:103E000008000000090000000000000000000000A1
:103E1000000000000000000001000000020000009F
:103E200003000000040000006D6F64653D25732CE5
:103E3000206C696768743D256C752C206B65795F13
:103E40006164633D256C752C20756172745F6B65D0
:103E5000793D25732C206C6576656C3D25642C209E
:103E600074683D256C752F256C752F256C750D0AB2
:103E700000000000943E0008000000203C0000000C
:103E800004010008D03E00083C0000207407000038
:103E90002001000800000000E8030000FC0800000A
:103EA000800C00000000000000000000703E0008D0
:103EB0000000000000000000000000000000000002
:103EC0000100000004000000000000000024F400D5
:04000005080000C12E
:00000001FF
