:020000040800F2
:1000000008080020C1010008A52800086F23000887
:1000100000000000000000000000000000000000E0
:10002000000000000000000000000000A52A0008F9
:100030000000000000000000F5280008F92A000870
:10004000D301000800000000D3010008D30100081C
:10005000D3010008D3010008D3010008D301000830
:1000600000000000D3010008D3010008D3010008FC
:10007000D3010008D3010008D301000800000000EC
:10008000D301000800000000000000005D2B000804
:1000900000000000D3010008D3010008D3010008CC
:1000A000D3010008D3010008D3010008D3010008E0
:1000B000D301000800000000000000000000000064
:1000C00000F002F800F050F80CA030C808382418EE
:1000D0002D18A246671EAB4654465D46AC4201D180
:1000E00000F042F87E460F3E0FCCB6460126334262
:1000F00000D0FB1AA246AB463343184784420000A7
:10010000A4420000103A02D378C878C1FAD8520746
:1001100001D330C830C101D504680C6070470000BD
:100120000023002400250026103A01D378C1FBD813
:10013000520700D330C100D50B60704710B5642959
:1001400002D100F097F810BD752902D100F092F8A5
:1001500010BD732902D100F0A7FA10BD002010BD18
:100160001FB51FBD10B510BD00F0B6FA1146FFF760
:10017000F7FF02F07FFF00F0CEFA03B4FFF7F2FFC3
:1001800003BC00F0D5FA000070B505460C461646D3
:1001900002E00FCC0FC5103E102EFAD2082E02D36B
:1001A00003CC03C5083E042E07D301CC01C5361F7E
:1001B00003E021782970641C6D1C761EF9D270BD95
:1001C0000748804707480047FEE7FEE7FEE7FEE7EF
:1001D000FEE7FEE704480549054A064B7047000064
:1001E0005B2B0008C100000808020020080800205E
:1001F00008040020080400200FB41CB5074B06AA11
:100200007B4469460090059800F023FA0020694677
:1002100000F032FA1CBC08BC04B01847750400009A
:1002200070B50C460546012A05D02878800600D511
:10023000EA69002302E0012305E05B1C934202D23D
:10024000E05C0028F9D1A869E618C01AA861286AFC
:10025000C01828622846C046C04604E06A68207874
:10026000A968641C9047B442F8D32846C046C046EB
:1002700070BD0000F7B5002575291068009914A617
:1002800011D0C046C046002802DA404211A608E05C
:10029000009909688A0701D50FA602E0490704D52D
:1002A0000EA6012501E0C046C046009F0024243769
:1002B00004E000F0FDF930313955641C0028F8D114
:1002C0002B4632462146009800F065F9FEBD00003D
:1002D000000000002D0000002B00000020000000A6
:1002E000F8B50F460546002028622846E968884789
:1002F000002852D0252802D06A68A96849E0E96838
:100300002846002688476C2804460AD0682C08D066
:100310004C2C37D06A2C33D0742C33D07A2C31D07B
:1003200015E0E968064628468847B042044608D1E9
:100330006C2E25D00126B6022846E9688847044677
:1003400005E06C2E02D0FF26013600E04026002C8E
:1003500023D020464138192803D80120C002064383
:1003600020343A4628462E602146FFF7E7FE002853
:100370000CD0012808D0FF1DFF08FF000837B4E7A4
:100380008026D9E70026D7E73F1DAEE76A682046FA
:10039000A9689047286A401CA6E7286AF8BD0000B3
:1003A00030B5441C03E00178401C00290DD08107C2
:1003B000F9D10B4BDD0104C8D11A91432940FAD081
:1003C000001B0A0603D0C01E30BD001B30BD0A044E
:1003D00001D0801E30BD0902FCD0401E30BD00009F
:1003E00001010101D2B210B513029A1813049A1830
:1003F00000F00EF810BD01E004C0091F0429FBD273
:100400008B0701D50280801CC90700D0027070479D
:1004100000290BD0C30702D00270401C491E0229DC
:1004200004D3830702D50280801C891EE3E70022E3
:10043000EEE70022DFE7002203098B422CD3030AF8
:100440008B4211D300239C464EE003460B433CD421
:10045000002243088B4231D303098B421CD3030A89
:100460008B4201D394463FE0C3098B4201D3CB01B9
:10047000C01A524183098B4201D38B01C01A5241E9
:1004800043098B4201D34B01C01A524103098B42ED
:1004900001D30B01C01A5241C3088B4201D3CB00D8
:1004A000C01A524183088B4201D38B00C01A5241BB
:1004B00043088B4201D34B00C01A5241411A00D26B
:1004C00001465241104670475DE0CA0F00D04942D4
:1004D000031000D34042534000229C4603098B4244
:1004E0002DD3030A8B4212D3FC22890112BA030ACC
:1004F0008B420CD3890192118B4208D3890192114E
:100500008B4204D389013AD0921100E08909C309D2
:100510008B4201D3CB01C01A524183098B4201D3D4
:100520008B01C01A524143098B4201D34B01C01ABF
:10053000524103098B4201D30B01C01A5241C30837
:100540008B4201D3CB00C01A524183088B4201D3A6
:100550008B00C01A5241D9D243088B4201D34B00C1
:10056000C01A5241411A00D20146634652415B1003
:10057000104601D34042002B00D5494270476346E4
:100580005B1000D3404201B50020C046C04602BD0A
:10059000704770477047FFB504460D4681B0243060
:1005A00000902168880604D51022E06991432160FB
:1005B00000E00120A84201DD471B00E0002704986D
:1005C000A1697A191018081AA0612078C00602D40F
:1005D0002046C046C046002608E003986268A1682D
:1005E000805D9047206A401C761C206204988642F9
:1005F000F3DB2078C0060AD52046C046C04606E098
:100600006268A16830209047206A401C206238460A
:100610007F1E0028F4DC07E000986268A168405D56
:100620009047206A401C206228466D1E0028F3DC9B
:100630002046C046C0462078000602D5022005B0FC
:10064000F0BD0120FBE7000001694A1C0261087847
:10065000704700B58FB002910021059105490193C3
:1006600079440391114604906846FFF739FE0FB0B4
:1006700000BD0000E5FFFFFF0A681070521C0A6011
:10068000704710B54369002B02D0C046C04601E058
:10069000FFF7C6FD012010BD1278014624310A7013
:1006A00000224A700122ECE711680022D243E8E7F9
:1006B00001468008081A02091018020A1018020CD4
:1006C0001018C008820012185200891A01E0401C5C
:1006D0000A390A29FBD27047754600F025F8AE4664
:1006E000050069465346C008C000854618B020B5CD
:1006F000FFF770FD60BC00274908B6460026C0C55C
:10070000C0C5C0C5C0C5C0C5C0C5C0C5C0C5403DC9
:1007100049008D46704710B50446C046C046204685
:10072000FFF72BFD10BD000000487047A40100201A
:1007300001491820ABBEFEE726000200704700000A
:1007400070B50446006801F003FF002824D020683B
:1007500081688907C90F04D18168104A114010319E
:10076000816000F0D9FE054612E000F0D5FE401B86
:1007700002280DD920688068400709D5A06D102196
:100780000843A065E06D01210843E065084670BD9F
:10079000206880684007E8D4002070BDE8FFFF7F34
:1007A000F8B50446006881688907CD0F01F0CCFEDA
:1007B00000282AD0002D28D1206881680522114008
:1007C00010250126012914D18168114A1140891C84
:1007D000816021680320086000F09EFE074610E05B
:1007E00000F09AFEC01B02280BD920688068C00761
:1007F00007D0A06D2843A065E06D3043E06501207F
:10080000F8BD20688068C007EAD10020F8BD00006C
:10081000E8FFFF7FF8B5044600200090206801F053
:1008200093FE002845D120688168234A1026114094
:10083000002930D18168D5432940491C81601F4877
:10084000006807218905084000020AD51D481C4997
:100850000068FFF7F0FD401C00E0401E00900028FB
:10086000FBD1607E012824D000F056FE07461BE035
:1008700001F06AFE002804D1206881682940491CE3
:10088000816000F049FEC01B02280DD92068006875
:10089000C043C00708D0A06D3043A065E06D0121C2
:1008A0000843E0650846F8BD20680168C943C907E8
:1008B000DED10020F8BD00001700008008270140AD
:1008C000400D03004000002006C843685140026804
:1008D00080685A40514041400148484070470000FC
:1008E000A5A5A5A510B5044600680D49884212D1FA
:1008F000606801280FD12046FFF7E6FF6169884252
:1009000009D1E168A068884205D22069814202D2FB
:100910000449884201D9002010BD012010BD00000B
:1009200013072620FF0F00007D210448C900C16085
:10093000034901611921C90141617047000000208C
:10094000FC080000F0B597B00020304E06900790EC
:10095000089009901490308C01214006C00B2C4F58
:10096000C902411AC5192B480D9001200E902A4842
:10097000CC0AC1680F9101691091406911900DA8CE
:10098000FFF7A2FF129018220DA96846FFF7FCFBA3
:1009900000F0FAFC02200690042007900120099044
:1009A000089414A906A800F067FC00280FD10024C1
:1009B000E0006946421853680A58318C4906C90B51
:1009C0000818C119012000F0AFFC002802D000F087
:1009D00097FC19E0641C032CEAD300F091FC284634
:1009E000FFF780FF00280FD00B48A968C26891422A
:1009F0000AD1E9680269914206D1296940698142B8
:100A000002D1012017B0F0BD0020FBE7C075FF1F29
:100A100000F8FF07130726200000002072B6FEE74B
:100A200003494A6901231B04184302434A61704782
:100A300000200240044A5069044BC9001840014399
:100A400003480143516170470020024007E0FFFF67
:100A50000200010030B505494C6901252C434C6169
:100A60000260BFF36F8F436030BD00000020024082
:100A700030B50B4C002362690125AD042A43626145
:100A8000EFF3108272B620C95B1C20C0DBB2402B92
:100A9000F9D32069C003FCD482F3108830BD000074
:100AA00000200240F8B5044600F036FD0127064656
:100AB0003F04124D06E0601C04D000F02DFD801BA9
:100AC000A04213D228693842F5D128690C49084060
:100AD0000C4929610CD00C4948600120F8BD601C0C
:100AE00006D000F019FD801BA04201D30320F8BD01
:100AF00028694003F3D40020F8BD00000020024024
:100B0000FA830000FB8300008801002038B5002034
:100B1000694608700546044635E068466D1C017854
:100B2000EDB277291ED057291CD073291CD0532928
:100B30001AD061291AD0412918D0642918D0442923
:100B400016D06D2916D04D2914D0702914D05029F3
:100B500012D0722912D0522910D0672910D04729FB
:100B60000ED00EE001240CE002240AE0032408E089
:100B7000042406E0052404E0062402E0072400E043
:100B80000824802D07D2002301226946034801F082
:100B9000FFFA0028C1D0204638BD0000F400002034
:100BA000FFB589B0002536E01298405DA12837D204
:100BB00002011C4B0020694614181C5D0C54401C9B
:100BC0001028F9DB0026E80008900A98002437185E
:100BD000E017400F0019C0086946C0008A5D201A5E
:100BE0008021C14009980A4206D0011908980B9A41
:100BF0000818B9B280B205E0011908980C9A0818D3
:100C0000B9B280B200F010F8641C082CE0DB761C4E
:100C1000102EDADB6D1C1298FFF7C2FBA842C3D876
:100C20000DB0F0BD5C32000810B514464A1C93B2FA
:100C3000421C92B201F014FD204601F071FC10BD7F
:100C4000F8B500270646044640360097307D0D462D
:100C500001280FD001203075206801F079FC0028B0
:100C60000AD0A06D20210843A0650127002030751F
:100C70003846F8BD0220F8BD686802287ED00122FF
:100C80002169D207914202D0121D914206D12068FB
:100C90002968826A4903490B0A436EE0C206D20EF4
:100CA0000F20216E904081432868430302D0C30780
:100CB0004BD102E04000C00E48E0830701D501207F
:100CC00044E0430701D5022040E0030701D503209B
:100CD0003CE0C30601D5042038E0830601D5052099
:100CE00034E0430601D5062030E0030601D5072095
:100CF0002CE0C30501D5082028E0830501D5092093
:100D000024E0430501D50A2020E0030501D50B208E
:100D10001CE0C30401D50C2018E0830401D50D208C
:100D200014E0430401D50E2010E0030401D50F2088
:100D30000CE0C30301D5102008E0830301D5112086
:100D400004E0400301D5122000E000209040014360
:100D500021666968E2698808401C904210D82068C2
:100D60002B68826A9C46C906C90E0F238B409A43A2
:100D700063469B001B0F8B401A4300E03BE08262FE
:100D80002168AB6828684A69000282431840400124
:100D9000400902434A612868002800DB66E72B4AC5
:100DA000116807239B051940294B984214D10B0267
:100DB00012D4C0020143104601F0D6FB2648254953
:100DC0000068FFF738FB0C21401C484300E0401E40
:100DD00000900028FBD149E7204B984203D1CB017A
:100DE00001D4800205E01E4B9842D7D14802D5D4E9
:100DF0005802014325E001212069C907884202D039
:100E0000091D884206D120682968826A4903490B76
:100E10008A43826228680028C0DA0C4A11680723D6
:100E20009B0519400A4B984201D1C00208E00B4BC8
:100E3000984201D1800203E0094B9842AED14002B2
:100E40008143104601F090FB10E7000008270140A5
:100E5000001000B0400D030040000020004000B82A
:100E6000002000B40068006C70470000FEB5002749
:100E7000044601973E4602970097002805D0254674
:100E8000A06D2035002802D007E00120FEBD2046DD
:100E900000F0FCF8E6655420065520688168C9001A
:100EA000C90F12D18168724A114001221207114301
:100EB000816071486F490068FFF7BDFA4000801CEF
:100EC00000E0401E00900028FBD120688168C90026
:100ED000C90F08D1A16D10221143A165E16D012256
:100EE0001143E165174601F033FBA16DC90601D43A
:100EF000002804D0A06D10210843A065B4E0A06DC7
:100F0000FF210131884302210843A065206801F0D8
:100F10001BFB00286DD1217EA06889030843617EF8
:100F2000CA03A17E4B031A431043226B002A01D04F
:100F3000012212031043E26810432269002A02DAF8
:100F40005200520801E00122520510432A7B520050
:100F50001043019A10432A78012A09D1002922D08E
:100F6000A16D20221143A165E16D01221143E165CC
:100F7000616A002906D0FF23C1331940A26A0143E8
:100F8000104608432168CA683C4B1A400243CA60B5
:100F90006168029A890F8907E06C0A4310432A7F2F
:100FA000012A04D00CE0012109040843E0E7636C46
:100FB000226C491C1A43A36C0B4311461943084386
:100FC00021680A692E4B1A4002430A6103216068B6
:100FD000890788420DD0590788420AD049008842C3
:100FE00007D0284A91680F239B0499431840014376
:100FF00091600021626B206801F0BDFA2249A26B6A
:10100000206801F0B8FA0F202169C04300291CD0E4
:101010000122520591420AD121688A6A227F9200F8
:10102000121FD206D20E9040226E104388622068B2
:101030004069616B4007400F88420BD1E665A06DA7
:1010400080088000401CA0650FE021688A6A024386
:101050008A62ECE7A06D0221884310210843A06555
:10106000E06D01210843E06501273846FEBD000020
:10107000E8FFFF7F400D0300400000200102DEFF7B
:1010800002FCFF1F0027014004FFFF0710B586B0D8
:10109000044614216846FFF7CCF9114920688842BC
:1010A0001CD110480268012109050A43026000684A
:1010B000084005900B484038416B012211434163C1
:1010C000406B69461040059012200090032001906B
:1010D000002002900520000700F06AF906B010BD5C
:1010E0000024014040100240F8B5044640690D4616
:1010F000082809D02068C068C00707D0A06D20214B
:101100000843A0650120F8BD082600E0042600F091
:1011100003FA074615E0681C13D000F0FDF9C01B68
:10112000A84201D8002D0CD120680068304208D1B7
:10113000A06D04210843A0650020403420750320E1
:10114000F8BD206800683042E5D0A06D0121490259
:101150000843A065206801F0FFF90C25002812D093
:10116000A07E00280FD12068016809070BD501F087
:10117000EFF9012100280AD0A06D20221043A065BC
:10118000E06D0843E065207E00280BD00CE020686D
:101190004268AA434260A06DFF2201329043084397
:1011A000A065F0E7206805600020F8BD70B5044632
:1011B000006801F0CDF9002802D00221084670BD78
:1011C00025464035287D01280AD001202875204673
:1011D000FFF720FB01460020002903D02875EDE72A
:1011E000022070BDA26D094B1A40FF2301331A4340
:1011F000A265E06523681C221A6028752068826851
:10120000034B1A40121D8260D8E70000FEF1FFFF79
:10121000E8FFFF7F70B5054604464035287D01286C
:1012200007D001262E752046FFF78AFA002802D043
:101230000CE0022070BD2046FFF7B2FA002805D16D
:10124000A16DFF22013291433143A165002129752F
:1012500070BD000070B5044600F05EF90546601CE4
:1012600002D004480078241800F056F9401BA04230
:10127000FAD370BD34000020F8B51F4E0446307814
:101280000F4601280AD001203070002070607D20B8
:10129000C000FFF707FC002802D029E00220F8BDBB
:1012A000042161602268042A03D0491F3960A568BF
:1012B00014E00846FFF7B4FB7D20C000FFF7F2FB07
:1012C00016E029466068FFF7B5FB7D20C000FFF7F8
:1012D000E9FB002801D03D6005E06D1CE268A168D3
:1012E0008918A942EDD805494A6902239A434A61FF
:1012F00000213170F8BD000088010020002002406C
:1013000010B57D200124C000FFF7CCFB05484169E2
:101310008204114341614069002800DA002420461C
:1013200010BD000000200240F0B51FB4144C06466A
:101330002078154601280AD00120207000277D2042
:10134000C0006760FFF7AEFB002803D010E002206A
:1013500005B0F0BD012E0DD029460198FFF788FB9E
:101360007D20C000FFF79EFB06494A69B2434A61EF
:101370002770EDE72A46039B0198FFF76BFBEFE729
:101380008801002000200240064900204A69002A06
:1013900007DA054A8A60054A8A604969002900DA45
:1013A000012070470020024023016745AB89EFCD43
:1013B000F0B5002303249AE02A4601259D402A40E7
:1013C0007ED00E79B607B60F012E01D0022E16D1AF
:1013D00086682746B4465E00B646B7406646BE43BA
:1013E000B446CF687646B74066463743876046685E
:1013F000AE430D79ED06ED0F9D40354345600D7907
:10140000ED43AD0708D0C5685F002646BE40B54332
:101410008E68BE402E43C6600D79AD07AD0F022D1C
:101420000ED1DD08AD002D18AC462D6A5E07F60E14
:101430000F27B740BD430F69B7402F4365462F6262
:1014400005685F002646BE40B5430E79B607B60F65
:10145000BE402E4306604D68AD03AD0F46D09E08DA
:10146000264DB6007519AC462D6E9E07F60E0F2759
:10147000B740BD4305273F07B84201D100270FE021
:101480001F4FB84201D101270AE01E4FB84201D1D7
:10149000022705E01C4FB84201D1032700E00527D1
:1014A000B7402F43154D664637662D684E68954305
:1014B000F60200D51543114F3D607D68954300E06D
:1014C00014E04E68B60200D515437D600B4D8035A3
:1014D0006E684F689643BF0300D516436E602E6852
:1014E0004F689643FF0300D516432E605B1C0A68C5
:1014F0001546DA4000D05FE7F0BD0000001802405A
:101500000004005000080050000C0050002A01D0D8
:1015100081617047816270470148806870470000B0
:101520003400002002488168027889188160704781
:101530003400002010B508480024016882151143CA
:101540000160032000F00AF8002801D0012401E026
:1015500000F028F8204610BD0020024070B50F4E64
:10156000002431780546002915D07D20C000FEF703
:1015700062FF01460A480068FEF75DFF00F0F6FBD7
:10158000002808D1042D06D200222946401E00F072
:101590002BF8756000E00124204670BD3400002067
:1015A0004000002008B5094801680122114301608C
:1015B00000681040009005484038C26B01040A439F
:1015C000C263C06B0840009008BD0000401002409C
:1015D000002805DBC106C90E0120884001490860CA
:1015E0007047000000E100E010B501F021FD10BDE2
:1015F00010B50F4C21680322520291430143216030
:10160000C11FFF39FA390ED10A4806210068484344
:101610000949FEF710FF401C02E0002805D0401EDB
:1016200061694905F9D4002010BD032010BD0000F8
:10163000007000404000002040420F00F8B5044612
:10164000006800264D4D800358D54C48002740388F
:10165000C06BC00009D449484038C26B01040A433A
:10166000C263C06B0840012700904548016882159D
:1016700011430160FFF750FF009005E0FFF74CFFBA
:101680000099401A022825D83D480068C005F5D5C4
:10169000E8690321090208400FD0616981420CD03A
:1016A000E86903210902EA698843012109040A4320
:1016B000EA61EA698A43EA61E861C0070FD0FFF78F
:1016C0002BFF009008E0FFF727FF0099411A2D48F3
:1016D000814201D9032609E0E8698007F3D5E8696A
:1016E00003210902884361690843E861002F05D09E
:1016F00022484038C26B01048A43C2632078C00785
:1017000005D06869616880088000084368612078B6
:10171000800606D56869032109038843A168084348
:1017200068612088400411D56869216980008008BB
:1017300008436861012120698907884206D10F4862
:101740004038C168012212041143C160208800059D
:1017500012D56869032189038843E16808436861F9
:101760000121E0688903884206D104484038C168F5
:10177000012212041143C1603046F8BD40100240FE
:101780000070004088130000F8B50F46060043D0F3
:101790004D4D28684007400FB84213D22868C00852
:1017A000C00038432860FFF7B7FE044605E0FFF7A6
:1017B000B3FE011B4548814261D828684007400FAD
:1017C000B842F4D13068424C81070DD5400704D5AA
:1017D000A068072109030843A060A0680F2109023F
:1017E0008843B1680843A0603078C00732D0706881
:1017F00001280AD002280BD000280FD034494031EC
:1018000003280ED0C969890704E02168890301E033
:1018100021688901002906DB0120F8BD21684905FE
:10182000F8E7096AEFE7A168C908C9000143A160A8
:10183000FFF772FE009006E0FFF76EFE0099411A76
:10184000224881421BD8A068382108407168C9002D
:101850008842F1D128684007400FB84217D91A488A
:101860000168C908C90039430160FFF755FE054604
:1018700007E0FFF751FE411B1448814201D90320C4
:10188000F8BD114800684007400FB842F1D13078E8
:10189000400706D5A068072109038843F16808437B
:1018A000A06000F031F8A1683C2289091140094A82
:1018B000515CC906C90EC84007490860074800685E
:1018C000FFF74CFEF8BD0000002002408813000026
:1018D00000100240B0420008400000203800002004
:1018E0000648074900688968064A4904490F890083
:1018F000515CC906C90EC840704700004000002076
:1019000000100240F042000810B5204CA068204AA8
:101910008006400F16D0A0688006410F50100129A4
:101920000FD0A1688906490F022912D0A06880064D
:10193000400F042823D0A0688006400F032821D040
:10194000002010BD206801218004400F8140104616
:1019500012E0E1688B07E1689B0F4906490F491CBB
:10196000032B00D01046FEF766FDE1684904490EDE
:101970004843E168490F491CFEF75DFD10BD012099
:10198000C00310BD7D20000210BD00000010024009
:101990000024F400F8B504007ED020783827C00772
:1019A000E94D002846D0A868E96838408907890FC2
:1019B000102802D008280BD001E0032908D001200C
:1019C0006268000482420AD129680143296015E057
:1019D000286880032ED560680028DDD02AE0052322
:1019E00001211B0489049A422A6802D10A432A6011
:1019F000EAE782432A6028688843286060680028F4
:101A00000CD0FFF789FD064604E0FFF785FD801B3B
:101A1000642873D828688003F7D50BE0FFF77CFDB6
:101A2000064604E0FFF778FD801B6428F1D828689B
:101A30008003F7D42078800769D5A868E968384022
:101A40008A070721920FC902102802D0002813D05C
:101A500001E0022A10D0E068002846D028688843B8
:101A60002169084328602868FF2101310843286064
:101A7000FFF752FD06462CE02A68520502D5E268BF
:101A8000002A89D06A687F231B029A4363691B027C
:101A90001A436A60002800E08DE00ED12868884370
:101AA000216908432860286801218004400F814093
:101AB000A648FEF7C0FCA6490860A6480068FFF7E4
:101AC0004DFD002877D122E0FFF726FD801B02287C
:101AD0009FD828684005F7D568687F2109028843A8
:101AE000616909020843686011E02968FF2001303C
:101AF00081432960FFF710FD064605E098E0FFF7F7
:101B00000BFD801B022884D828684005F7D4207874
:101B1000914E00072ED5A8688006400F03280AD0F2
:101B2000A0690028306A16D0012108433062FFF70F
:101B3000F3FC07460BE0306A80071BD5A06900283C
:101B40009FD017E0FFF7E8FCC01B022870D8306A6E
:101B50008007F7D50EE0400840003062FFF7DCFC5C
:101B6000074604E0FFF7D8FCC01B022860D8306AA3
:101B70008007F7D4207840076CD5A8680027800636
:101B8000400F042818D0E86BC00008D4E96B01208E
:101B900000070143E963E96B0140012700916F48A9
:101BA0000168C90519D40168821511430160FFF766
:101BB000B3FC00900DE083E0F06980074AD5A0688F
:101BC00000287DD046E0FFF7A7FC0099401A0228C4
:101BD0002ED862480068C005F5D5A168012910D04B
:101BE00004200529F16911D049084900F161F16922
:101BF0008143F161A068002816D0FFF78DFC0090AA
:101C00000EE0F06901210843F061F3E70143F1615F
:101C1000F7E7FFF781FC0099411A5148814265D8E6
:101C2000F0698007F5D50EE0FFF776FC009007E03D
:101C30005CE0FFF771FC0099411A4948814255D890
:101C4000F0698007F5D4002F04D0E96B012000076C
:101C50008143E963E069002873D0A9688906490FC8
:101C600002294DD0012636060228286805D0B04347
:101C70002860FFF751FC04463AE0B0432860FFF7C4
:101C80004BFC074604E0FFF747FCC01B02282DD899
:101C900028688001F7D4616A206AA26A0843E16A71
:101CA000120211430843216B0843E9682D4A114091
:101CB0000843E860286830432860E868012100E0B4
:101CC0003DE009070843E860FFF726FC044604E00E
:101CD000FFF722FC001B022808D828688001F7D5EE
:101CE0002FE0FFF719FC001B022801D90320F8BDE3
:101CF00028688001F5D4E8681B490840E86020E0C6
:101D00000128F4D0E868226A8107890F914216D130
:101D10007021626A0140914211D17F21A26A0902B9
:101D20000140120291420AD11F214904E26A014096
:101D3000914204D1400F216B4007884201D001201D
:101D4000F8BD0020F8BD0000001002400024F4009F
:101D50004000002038000020401002400070004089
:101D6000881300008C80C11FFCFFFEEF094910B5ED
:101D7000401E884201D9012010BD074C606103213B
:101D8000081F01F055F90020A06107202061002004
:101D900010BD0000FFFFFF0000E000E0704770474B
:101DA000704770B5040005D025462035687F0028AF
:101DB00002D006E0012070BD00202877204600F008
:101DC00017F802206877211D206800F0CFFE01225D
:101DD00040342272AA77EA7722706270A270E270B1
:101DE00022716271A271E2716A77002070BD0000F9
:101DF00008B50068094988420FD109480268C9132B
:101E00000A43026000680022084000901146132037
:101E1000FFF7EAFB1320FFF7DBFB08BD00200040C3
:101E200040100240014620314A7F012A01D00120A2
:101E3000704702224A770168CB6801221343CB60C6
:101E400000680949884202D00849884207D1816860
:101E5000074B1940062905D0DB1F994202D00168C3
:101E60001143016000207047002C01400004004035
:101E70000700010070470000F8B504460068C66816
:101E800005690027A907002913DAB10711D5F91E42
:101E9000016101202077206880698007204602D0F8
:101EA000FFF7E8FF04E000F08BF8204600F089F827
:101EB0002777680716D5700714D504202168C0431A
:101EC000086102202077206880698005800F204605
:101ED00002D0FFF7CFFF04E000F072F8204600F0D8
:101EE00070F82777280715D5300713D50820216803
:101EF000C0430861042020772068C069800720461D
:101F000002D0FFF7B7FF04E000F05AF8204600F0D7
:101F100058F82777E80616D5F00614D51020216862
:101F2000C0430861082020772068C0698005800FC1
:101F3000204602D0FFF79EFF04E000F041F8204663
:101F400000F03FF82777E80708D0F00706D0012017
:101F50002168C0430861204600F034F8280601D407
:101F6000A80407D5300605D5216813480861204626
:101F7000FFF715FFE80507D5300605D521680F489E
:101F800008612046FFF70AFF680608D5700606D5E7
:101F900040202168C0430861204600F01DF8A806D3
:101FA00008D5B00606D520202168C0430861204628
:101FB000FFF7F6FEF8BD00007FDFFFFFFFFEFFFF2B
:101FC0007047704710B500680249884201D100F09F
:101FD0006BFD10BD00200040704710B501468031F8
:101FE0000A79012A15D001220A7124228A60026826
:101FF0001368146864086400146001225207934354
:102000000022426600680360202088600A71104642
:1020100010BD022010BD70B50446054680342079FD
:1020200001281AD0012020712420A06028680668A9
:1020300002685208520002602868826807235B0623
:102040009A430A438260284600F0D2FD2868066061
:102050002020A0600020207170BD022070BD70B5EE
:102060000446054680342079012819D001202071CA
:102070002420A060286806680268520852000260A6
:1020800028688268D200D2080A438260284600F09D
:10209000AFFD286806602020A0600020207170BD80
:1020A000022070BD70B5040005D025468035A868B3
:1020B000002802D006E0012070BD002028712046D3
:1020C00000F026F82420A86020680168490849002B
:1020D0000160A06A002802D0204600F0ABFD204637
:1020E00000F09CFE0128E7D0206841680922D20256
:1020F00091434160206881682A2291438160206871
:102100000168012211430160204600F0F9FD70BD15
:1021100030B58DB0044614216846FEF78AF91821BF
:1021200005A8FEF786F918492068884229D10124BC
:10213000002505A806950594FFF780FA002801D030
:10214000FEF76CFC11480268012189030A43026012
:10215000006808400B900D484038416B21434163B3
:10216000406B0295C007C00F0B9003204002009007
:102170000220019005206946039504940007FFF7AB
:1021800017F90DB030BD000000380140401002408A
:10219000FFB5074604468037F86885B00E4620280C
:1021A00002D0022009B0F0BD002E61D007980028AF
:1021B0005ED00120A1680003814204D1206900287B
:1021C00001D1F00754D1002038612221F960E06686
:1021D000FFF7A2F90390254640350798A883079892
:1021E000E8830121A0680903FF22884204D1236902
:1021F000002B0BD1274A09E0002812D00122120738
:10220000904213D12269002A0ED03F222A8492B232
:102210000292884202D12069002809D00196002646
:1022200031E02369002BF1D07F22EFE70022EDE7B8
:102230000020019027E008980090002220212046ED
:10224000039B00F09FFE002803D02020F8600320AD
:10225000A8E70198002820680CD0416A0298014044
:10226000019801700198401C0190F868222807D05D
:10227000012097E7406A029908403080B61CF4E7D5
:10228000E88B401EE883E88B0028D4D12020F8603A
:10229000002087E7FF010000FFB5064604468036B0
:1022A000B06883B00D46202802D0022007B0F0BDF0
:1022B000002D3BD00598002838D00120A1680003EC
:1022C000814204D12069002801D1E8072ED10020E5
:1022D00030612120B060FFF71FF901902746403799
:1022E0000598B8820598F8820120A1680003814210
:1022F00002D12069002802D00295002522E00020AA
:1023000002901FE000228021204600F03BFE0028C2
:1023100025D1029800280BD02168007888620298A5
:10232000401C0290B1682120884308D00120BDE7FD
:1023300028882168C005C00D8862AD1CF2E7F88AC4
:10234000401EF882F88A019B002806980090D9D197
:1023500000224021204600F015FE002803D0202056
:10236000B0600320A2E72020B06000209EE7FEE7D7
:1023700000B5030000F04EFE091606080A0C0E1008
:102380001214160008A000BD08A000BD09A000BDE1
:102390000AA000BD0BA000BD0CA000BD0DA000BD9B
:1023A0000EA000BD0FA000BD55500000444F574E79
:1023B000000000004C4546540000000052494748C8
:1023C0005400000043454E544552000053415645C9
:1023D0000000000052455345540000004F55545032
:1023E000555400004E4F4E450000000030B587B0F8
:1023F0000C4605462022102101A8FDF7F3FF00201E
:1024000069460875014601AA04E05054491CC9B246
:10241000102902D2605C0028F7D100230092034A01
:1024200029461846FEF7BCFB07B030BDFFFF000091
:1024300070B5044D0C462862FFF76EF8001968620B
:1024400070BD00000000002070B5244C88B022A5AB
:10245000207900F029FA0646207800F015FA0246A5
:1024600033461FA16846FDF7C7FE69460020FFF707
:10247000BDFF1EA16846A269FDF7BEFE6946102099
:10248000FFF7B4FFE388E2781BA16846FDF7B4FECE
:1024900069462020FFF7AAFF1BA168462369E2686E
:1024A000FDF7AAFE69463020FFF7A0FF1AA1684693
:1024B0006269FDF7A1FE69464020FFF797FFFFF72D
:1024C0002BF8616A884200D2256A50202946FFF71E
:1024D0008DFF08B070BD000000000000000000206B
:1024E0004D6F64653A257320257300004C69676859
:1024F000743A256C750000004C6576656C3A25646D
:102500002050574D3A25640054313A256C752054BB
:10251000323A256C7500000054333A256C75000082
:1025200070B50125ED03052636070446B562054959
:1025300010208861200A00F09FFAE0B200F09CFAB7
:10254000B56170BD000400508068C007C00F7047BF
:1025500080684007C00F7047C0680005800F01D039
:102560000020704701207047026807239B059A43AB
:102570000A430260704710B54369042421400724D0
:102580008C40A3438A401343436110BD70B5064697
:102590007F2300211A46084600F062F82C2000F044
:1025A0009BF8002400253046FFF7BAFF6D1C802DF4
:1025B000F9D3641C802CF5D370BD000010B50A203F
:1025C000FEF748FE012240212448FEF79FFF11201C
:1025D00000F082F80320FEF73DFE112000F07CF8A9
:1025E0000520FEF737FE362000F076F80520FEF7CE
:1025F00031FE362000F070F80520FEF72BFEC820D3
:1026000000F05AF80520FEF725FEC82000F054F827
:102610000520FEF71FFE3A2000F05EF80520FEF7C9
:1026200019FE3A2000F058F80520FEF713FE0520A9
:1026300000F042F80520FEF70DFE052000F03CF802
:102640001420FEF707FE292000F046F80520FEF7CB
:1026500001FE292000F040F810BD000000040050E9
:10266000F0B507461C4615460E462A2000F034F801
:10267000002000F021F8BF1CF8B200F01DF8002087
:1026800000F01AF8AD1CE8B200F016F82B2000F0AC
:1026900023F8002000F010F8F61CF0B200F00CF85F
:1026A000002000F009F8E41CE0B200F005F82C204E
:1026B00000F012F8F0BD000030B50125ED0305244F
:1026C0002407A562034A1021916100F0D5F9A561A4
:1026D00030BD00000004005030B50125ED03052495
:1026E0002407A562034A1021916200F0C5F9A56193
:1026F00030BD0000000400503EB50024194800948D
:1027000001941749029401608460C4600905046162
:102710004160042141610476447684760121C161DF
:10272000014620310C70446284620C7307224263BC
:10273000046382630C77C464FEF798FB002801D021
:10274000FEF76CF908480090019469460294054828
:10275000FEF776FA002801D0FEF760F93EBD0000D2
:10276000002401404400002010000010F0B587B0A4
:1027700014216846FDF75DFE1B48426B20210A4389
:102780004263426B0A400592416B01252943416334
:10279000416B29400591426B02210A434263406B21
:1027A000124F0840059000227F213846FEF7AEFE0A
:1027B000EE030520002231460007FEF7A7FE7F202A
:1027C0000024009002946946019503943846FEF770
:1027D000EFFD0520029469460007009601950394D9
:1027E000FEF7E6FD07B0F0BD001002400004005007
:1027F00010B50A48084901600F214160002181603D
:1028000031220161C2608161FFF7CBFA002801D05B
:10281000FEF704F910BD000000200040A8000020D1
:1028200010B5184816490160E121490241600021B4
:102830008160C16001618161C16101620C224162FC
:1028400042618162FFF72EFC002801D0FEF7E6F816
:1028500000210C48FFF703FC002801D0FEF7DEF84A
:1028600000210848FFF7D7FB002801D0FEF7D6F873
:102870000448FFF7B2FB002801D0FEF7CFF810BDE7
:1028800000380140F4000020012801D001A0704769
:1028900002A070474155544F000000004D414E5575
:1028A000414C0000FEE70000012801D001A0704764
:1028B00002A07047535445500000000050574D008F
:1028C0000146064A00204300D35A8B4204D2401CE2
:1028D000C0B21428F7D31420704700005E420008ED
:1028E000142800D9142002494000085A70470000FB
:1028F0005E42000870470000F8B53C4C00250127F7
:102900002378052821D021468A784978032828D0C1
:10291000042833D02146CB680A69496901283CD094
:10292000022843D07D26360106284CD0072853D0F4
:10293000082809D12079002853D0257131462CA0D0
:10294000FFF776FDFFF780FDF8BD002B01D0257065
:10295000F8BD2770E0786070E088FFF7B1FFA070E5
:10296000F8BD012BFCD12079012803D00029F7D034
:10297000491E0BE0002AF3D0521E0CE0012BEFD1D0
:102980002079012804D00329EAD2491C6170F8BDDE
:10299000142AFCD2521CA270F8BD1848643181423E
:1029A000FAD864336432E36022610AE0642B01D90F
:1029B000643BE360642A01D9643A22616429EBD95B
:1029C00064396161F8BDFDF7BDFF0028314601D0D3
:1029D0000BA0B5E70EA0B3E7FDF7A6FF31460FA0A9
:1029E000AEE72771314610A0AAE7000000000020E2
:1029F0004F7574707574205354455000FF0F0000DC
:102A0000436F6E66696720534156454400000000DD
:102A100053617665204641494C45440044656661F2
:102A2000756C742052414D004F7574707574205050
:102A3000574D00003EB5002101910C4602910090D7
:102A400069460C48FEF7FCF8002801D072B6FEE794
:102A50000848FEF7ABFB64210648FEF745FB00285B
:102A600003D10448FEF7FEF904460248FEF7D2FB04
:102A700020463EBD4400002030B50821084B2024EC
:102A80000A46050601D59C6100E09C629A619A6243
:102A90004006491E000E0906090EF2D130BD0000A5
:102AA000000400507047000070B5114C20790128D7
:102AB0001DD12089401C80B22081C82801D300206C
:102AC0002081E5880B4E012204213046FEF71EFDD1
:102AD0002089A84201D3012200E0002202213046D1
:102AE000FEF714FD012211463046FEF70FFD70BDC2
:102AF000000000200004005010B5FEF713FD10BDCB
:102B000010B592B034216846FDF793FC00240120F3
:102B10000D940E940F9440021094FEF769FD02206C
:102B20000090C001039040200590049407946846EB
:102B3000FEF730FF002801D072B6FEE707200D90A7
:102B40000E940F94002110940DA8FEF71DFE00288E
:102B500001D072B6FEE712B010BD704710B5024842
:102B6000FFF78AF910BD0000A800002070B50268C8
:102B70001A4B1B4E984201D0B04203D17024A2439D
:102B80004C682243174C184D984208D0B04206D0EA
:102B9000164EB04203D0A04201D0A84204D1032671
:102BA0003602B243CE6832438026B2434E69324386
:102BB0008E68C6620E688662984203D0A04201D039
:102BC000A84201D109690163016804231943016026
:102BD00001214161BFF34F8F026070BD002C0140A5
:102BE0000004004000440140004801400020004033
:102BF000F8B50446416E4034002915D0006881685C
:102C0000806809014D0F0A4E400F3746315C083F7E
:102C1000385CC000FDF70FFC6085785D715DC00019
:102C2000FDF709FC2085F8BD01206085FAE700006A
:102C3000A842000810B5018D090707D501684A6848
:102C40000123DB039A43836B1A434A60018DC90752
:102C500007D001684A6801235B049A43C36A1A4398
:102C60004A60018D890707D501684A6801231B0462
:102C70009A43036B1A434A60018D490707D50168DF
:102C80004A6801239B049A43436B1A434A60018DAF
:102C9000C90607D50268916801231B039943C36BDA
:102CA00019439160018D890607D501688A6801235F
:102CB0005B039A43036C1A438A60018D490612D55F
:102CC00003685A6801210905446C8A4322435A600B
:102CD000426C8A4207D10268516803235B0599431D
:102CE000836C19435160018D090607D501684A6854
:102CF0000123DB04C06C9A4302434A6010BD00000C
:102D0000FEB505460026803504462E61FEF704FC1C
:102D100001902068006820270007002817DA25485E
:102D20000090002239042046019B00F02BF9002876
:102D30000DD0EFF31080012181F3108821680A681B
:102D400080239A430A6080F31088AF6028E02068EF
:102D50000068400727D51748009001210022890507
:102D60002046019B00F00EF900281CD0EFF31080E4
:102D7000012181F3108821680A68FF2321339A43D7
:102D80000A6080F31088EFF31080012181F310882E
:102D900021688A68520852008A6080F31088EF60C8
:102DA0002E710320FEBDAF60EF60E66626672E71D0
:102DB0000020FEBDFFFFFF0110B5EFF310810122DF
:102DC00082F3108802681368FF242134A343136040
:102DD00081F31088EFF31081012282F310880268DA
:102DE00093680D4C2340936081F31088C16E0129D4
:102DF0000BD1EFF31081012282F31088026813686F
:102E00001024A343136081F3108820228C210A50E0
:102E10000021C166416710BDFEFFFFEFF8B5044613
:102E200080682169E26908436169002511432268CD
:102E3000084311684B4B19400143116020684168F9
:102E4000032212039143E26811434160A169206AA1
:102E5000084321688A68444B1A4002438A6020680C
:102E6000C16A626A090909011143C1623F492068C8
:102E7000884211D13E4840698007800F0FD0012859
:102E800006D0022802D003280BD103E0022109E07A
:102E9000042107E0082105E03649884201D10021DC
:102EA00000E010210120E369C003334A334E344F60
:102EB000834227D1002906D0022907D0042907D050
:102EC00008293FD108E0FEF70BFD03E0104603E0C0
:102ED000FEF71AFD00283AD0616A4900715AFDF7E1
:102EE000AAFA616840004A088018FDF7A4FA014672
:102EF0001039B94226D82249491C01400007400F29
:102F0000084322E0002906D0022907D0042907D06F
:102F1000082917D108E0FEF7E3FC03E0104603E0C0
:102F2000FEF7F2FC002812D0616A4900715AFDF7E1
:102F300082FA61684A088018FDF77DFA0146103967
:102F4000B94201D9012502E080B22168C86020465B
:102F5000012140304185018500206067A067284637
:102F6000F8BD0000F369FFCFFFF4FF110038014006
:102F700040100240004400400024F4008842000851
:102F8000EFFF0000FFB581B005460E4604468035D0
:102F90000A9F32E0781C30D0FEF7BEFA0499401A3E
:102FA000B84218D8002F16D020680168490724D5E8
:102FB000802E22D0402E20D0C169C94309070CD4ED
:102FC000082606622046FFF7F7FE2E6100202871D2
:102FD000012005B0F0BD0320FBE7C069C043000538
:102FE0000BD401202168C00208622046FFF7E4FEEE
:102FF0002020286100202871EDE72068C169304653
:10300000884305D0002103988142C3D00020E0E727
:103010000121F8E730B47446641E2578641CAB4285
:1030200000D21D46635D5B00E31830BC184700000A
:103030008307FF22DB0E9A408907090E994000287A
:1030400008DB830809489B001B1818689043084355
:10305000186070470007000F0838830804489B0079
:103060001B18D86990430843D861704700E400E01A
:1030700000ED00E0C2B0FEF75DFAFFF741FDFFF79B
:1030800075FBFFF7CDFBFFF737FBFFF7B1FB6A4896
:103090006A49008C4006C00B45182846FDF722FC03
:1030A000674C002806D0A868E060E86820612869BD
:1030B000606101E0FDF738FC6248FEF7B3FE0028CE
:1030C00001D072B6FEE701220520D1030007FEF70A
:1030D0001DFAFFF773FA0020FFF758FAFFF7B4F96B
:1030E000FF26F536FEF718FA0546FDF70FFD0090AE
:1030F000FFF702FCA06A281A64280FD35248A56281
:10310000FFF798FCA169002903D04A008918081824
:103110008008A0614D48FFF78DFCE0612078002811
:1031200003D06078E070A07824E0A169E2680846E6
:10313000914201D200210AE02369994201D2012182
:1031400005E06369994201D2022100E00321E170A8
:10315000904201D800200DE06169884201D314201B
:1031600008E0891A801A142250434A088018FDF793
:1031700062F9C0B2FFF7B4FBE080207900281BD1D0
:10318000E778002F08D0002204213148FEF7BEF96D
:10319000022F03D2012202E00122F5E700220221E0
:1031A0002B48FEF7B3F9032F01D2012200E00022E1
:1031B00001212748FEF7AAF9E06A281AB04202D393
:1031C000E562FFF741F9206B291A7D20C00081429A
:1031D00002D20098002885D02563E088FFF770FBB5
:1031E00007460098FFF7C4F800902079FFF75CFBD2
:1031F00009902078FFF748FB21460C312AC9024686
:1032000006A805972AC0E588E378E069009901904F
:1032100002A82AC0A06900900E490AA8099BFCF7E1
:10322000EBFF0AA8FDF7BCF882B264230AA90A489A
:10323000FFF732F856E70000C075FF1F00F8FF07E0
:1032400000000020A8000020100000100200000470
:103250000004005010430008F400002000000000AB
:10326000000000000000000000000000000000005E
:10327000000000000000000000000000000000004E
:10328000000000000000000000000000000000003E
:10329000000000000000000000000000000000002E
:1032A000000000000000000000000000000000001E
:1032B000000000000000000000000000000000000E
:1032C00000000000000000000000000000000000FE
:1032D00000000000000000000000000000000018D6
:1032E00008C80808000000000000000000007F601F
:1032F00060606060606060E06020000000000000CE
:10330000000000000000000000000000000018188D
:103310001810101000000000000000000000000065
:10332000000000000808080C0C0C00000000000061
:1033300000000000000000000000000000006C38E9
:1033400010007CC6701CC67C000000000000103815
:103350006C00780C7CCCCC760000000000000000F3
:1033600000007CC670C0C67C0000000000000000A9
:1033700000006C967CD0D66C0000000000000000BD
:1033800000007CC60606C67C000000000000003875
:103390006CC6C6FEC6C66C38000000000000000007
:1033A000001038286C44C6C6000000000000000071
:1033B00000007CC606FEC67C000000000000000085
:1033C0000000DC666666F60606663C000000006CDF
:1033D00038F80C7EC6C6C67C000000000000000E57
:1033E0001B18181818181818D870000000000000D2
:1033F00000FE860C180C0606C67C0000000076DC79
:103400000000780C7CCCCC7600000000000076DC5C
:1034100000007CC60606C67C00000000000076DCCA
:103420000000DC66666666660000000000000000C2
:10343000000076999F98996F00000000000000003E
:10344000000000000000000C060600000000000064
:103450000000000000003C66663C00000000000028
:103460000000000000000000000000000000001844
:103470003C3C3C1818001818000000000000C6C6AC
:10348000C644000000000000000000000000006CC6
:103490006CFE6C6C6CFE6C6C000000000018187CFC
:1034A000C6C2C07C0686C67C18180000000000005A
:1034B00000C3C60C183063C30000000000000038D1
:1034C0006C6C3876DCCCCC7600000000000030302C
:1034D0003060000000000000000000000000001844
:1034E000306060606060301800000000000000186C
:1034F0000C06060606060C1800000000000000007E
:10350000006C38FE386C0000000000000000000075
:103510001818187E1818180000000000000000009D
:103520000000000000181818300000000000000023
:10353000000000FE0000000000000000000000008D
:103540000000000000001818000000000000000249
:10355000060C183060C08000000000000000007CF5
:10356000C6CEDEF6E6C6C67C0000000000000018ED
:10357000387818181818187E000000000000007C29
:10358000C6060C183060C6FE000000000000007C7B
:10359000C606063C0606C67C000000000000000CC3
:1035A0001C3C6CCCFE0C0C1E00000000000000FE59
:1035B000C0C0C0FC0606C67C000000000000003849
:1035C00060C0C0FCC6C6C67C00000000000000FE53
:1035D000C6060C1830303030000000000000007CBF
:1035E000C6C6C67CC6C6C67C000000000000007CC3
:1035F000C6C6C67E06060C7800000000000000006B
:10360000181800000018180000000000000000005A
:103610001818000000181830000000000000000614
:103620000C18306030180C0600000000000000008C
:1036300000007E00007E000000000000000000602E
:1036400030180C060C183060000000000000007CF0
:10365000C6C60C1818001818000000000000007CF6
:10366000C6C6DEDEDEDCC07C00000000000000100C
:10367000386CC6C6FEC6C6C600000000000000FCCE
:103680006666667C666666FC000000000000003C22
:1036900066C2C0C0C0C2663C00000000000000F866
:1036A0006C66666666666CF800000000000000FE4E
:1036B00066626878686266FE00000000000000FE36
:1036C00066626878686060F0000000000000003CFE
:1036D00066C2C0C0DEC6663A00000000000000C638
:1036E000C6C6C6FEC6C6C6C6000000000000003C36
:1036F000181818181818183C000000000000001EC8
:103700000C0C0C0C0CCCCC7800000000000000E687
:10371000666C6C786C6C66E600000000000000F0DF
:1037200060606060606266FE00000000000000C62D
:10373000EEFED6C6C6C6C6C600000000000000C623
:10374000E6F6FEDECEC6C6C6000000000000003869
:103750006CC6C6C6C6C66C3800000000000000FC7F
:103760006666667C606060F0000000000000007C1F
:10377000C6C6C6D6DE7C0C0E00000000000000FCB1
:103780006666667C6C6666E6000000000000007CF1
:10379000C6C660380CC6C67C000000000000007E73
:1037A0005A1818181818183C00000000000000C62D
:1037B000C6C6C6C6C6C6C67C00000000000000C65D
:1037C000C6C6C6C6C66C381000000000000000C6A1
:1037D000C6C6C6C6D6FEEEC600000000000000C683
:1037E000C6C66C386CC6C6C600000000000000C625
:1037F000C6C66C383838387C00000000000000FE77
:10380000C68C183060C2C6FE000000000000003CFC
:10381000303030303030303C00000000000000809C
:10382000C0E070381C0E0602000000000000003CE2
:103830000C0C0C0C0C0C0C3C000000000010386C44
:10384000C6000000000000000000000000000000B2
:10385000000000000000000000FE0000000030300A
:103860001800000000000000000000000000000040
:103870000000780C7CCCCC7600000000000000E05A
:103880006060786C666666DC000000000000000086
:1038900000007CC6C0C0C67C000000000000001C08
:1038A0000C0C3C6CCCCCCC7600000000000000007E
:1038B00000007CC6FEC0C67C000000000000001CAA
:1038C0003632307C303030780000000000000000DC
:1038D000000076CCCCCC7C0CCC780000000000E062
:1038E00060606C76666666E6000000000000001806
:1038F000180038181818183C0000000000000006D6
:1039000006000E0606060666663C0000000000E0A3
:103910006060666C786C66E60000000000000038AD
:10392000181818181818183C0000000000000000B3
:10393000000044FED6D6D6D60000000000000000ED
:103940000000DC666666666600000000000000009D
:1039500000007CC6C6C6C67C000000000000000057
:103960000000DC6666667C6060F00000000000001D
:10397000000076CCCCCC7C0C0C1E000000000000BB
:103980000000DC76666060F00000000000000000CF
:1039900000007CC6701CC67C000000000000001007
:1039A0003030FC303030361C0000000000000000D9
:1039B0000000CCCCCCCCCC76000000000000000095
:1039C0000000C6C6C66C38100000000000000000F1
:1039D0000000C6C6C6D6FE6C000000000000000055
:1039E0000000C66C38386CC6000000000000000003
:1039F0000000C6C6C6C67E060C78000000000000A7
:103A00000000FECC183066FE000000000000000E32
:103A1000181818701818180E000000000000001880
:103A2000181818001818181800000000000000707E
:103A30001818180E18181870000000000000007602
:103A4000DC0000000000000000000000000000009A
:103A50000000000000000000000000000000000066
:103A60000000000000000000000000000000000056
:103A70000000000000000000000000000000000046
:103A80000000000000000000000000000000000036
:1042600001000200040007000B00100017001F00EF
:1042700029003500420051006200740087009A0056
:10428000AC00BA00C300C800010002000400060030
:1042900008000A000C00100020004000800000010F
:1042A00001010103070100000804020408010101E3
:1042B00000000000000000000000000000000000FE
:1042C00000000000000000000000000000000000EE
:1042D00001000000020000000300000004000000D4
:1042E00006000000070000000800000009000000B0
:1042F00000000000000000000000000000000000BE
:1043000001000000020000000300000004000000A3
:104310006D6F64653D25732C206F75747075743DE9
:1043200025732C206C696768743D256C752C206B97
:1043300065795F6164633D256C752C2075617274CD
:104340005F6B65793D25732C206C6576656C3D252A
:10435000642C2070776D3D25642C2070776D5F6C28
:104360006576656C3D25642C2074683D256C752F41
:10437000256C752F256C750D0A00000000000000EB
:10438000A0430008000000204400000004010008D1
:10439000E443000844000020C40700002001000896
:1043A000000000000000000000000000E803000022
:1043B000FC080000800C000000000000000000006D
:1043C0007C43000800000000000000000000000026
:1043D00000000000010000000400000000000000D8
:0443E0000024F400C1
:04000005080000C12E
:00000001FF
